{
  "_format": "hh-sol-artifact-1",
  "contractName": "ConvergentPoolFactory",
  "sourceName": "contracts/factories/ConvergentPoolFactory.sol",
  "abi": [
    {
      "inputs": [
        {
          "internalType": "contract IVault",
          "name": "_vault",
          "type": "address"
        },
        {
          "internalType": "address",
          "name": "_governance",
          "type": "address"
        }
      ],
      "stateMutability": "nonpayable",
      "type": "constructor"
    },
    {
      "anonymous": false,
      "inputs": [
        {
          "indexed": true,
          "internalType": "address",
          "name": "pool",
          "type": "address"
        },
        {
          "indexed": true,
          "internalType": "address",
          "name": "bondToken",
          "type": "address"
        }
      ],
      "name": "CCPoolCreated",
      "type": "event"
    },
    {
      "anonymous": false,
      "inputs": [
        {
          "indexed": true,
          "internalType": "address",
          "name": "pool",
          "type": "address"
        }
      ],
      "name": "PoolCreated",
      "type": "event"
    },
    {
      "inputs": [],
      "name": "SPONSOR",
      "outputs": [
        {
          "internalType": "contract SponsorWhitelistControl",
          "name": "",
          "type": "address"
        }
      ],
      "stateMutability": "view",
      "type": "function"
    },
    {
      "inputs": [
        {
          "internalType": "address",
          "name": "who",
          "type": "address"
        }
      ],
      "name": "authorize",
      "outputs": [],
      "stateMutability": "nonpayable",
      "type": "function"
    },
    {
      "inputs": [
        {
          "internalType": "address",
          "name": "",
          "type": "address"
        }
      ],
      "name": "authorized",
      "outputs": [
        {
          "internalType": "bool",
          "name": "",
          "type": "bool"
        }
      ],
      "stateMutability": "view",
      "type": "function"
    },
    {
      "inputs": [
        {
          "internalType": "address",
          "name": "_underlying",
          "type": "address"
        },
        {
          "internalType": "address",
          "name": "_bond",
          "type": "address"
        },
        {
          "internalType": "uint256",
          "name": "_expiration",
          "type": "uint256"
        },
        {
          "internalType": "uint256",
          "name": "_unitSeconds",
          "type": "uint256"
        },
        {
          "internalType": "uint256",
          "name": "_percentFee",
          "type": "uint256"
        },
        {
          "internalType": "string",
          "name": "_name",
          "type": "string"
        },
        {
          "internalType": "string",
          "name": "_symbol",
          "type": "string"
        }
      ],
      "name": "create",
      "outputs": [
        {
          "internalType": "address",
          "name": "",
          "type": "address"
        }
      ],
      "stateMutability": "nonpayable",
      "type": "function"
    },
    {
      "inputs": [
        {
          "internalType": "address",
          "name": "who",
          "type": "address"
        }
      ],
      "name": "deauthorize",
      "outputs": [],
      "stateMutability": "nonpayable",
      "type": "function"
    },
    {
      "inputs": [],
      "name": "getVault",
      "outputs": [
        {
          "internalType": "contract IVault",
          "name": "",
          "type": "address"
        }
      ],
      "stateMutability": "view",
      "type": "function"
    },
    {
      "inputs": [],
      "name": "governance",
      "outputs": [
        {
          "internalType": "address",
          "name": "",
          "type": "address"
        }
      ],
      "stateMutability": "view",
      "type": "function"
    },
    {
      "inputs": [
        {
          "internalType": "address",
          "name": "who",
          "type": "address"
        }
      ],
      "name": "isAuthorized",
      "outputs": [
        {
          "internalType": "bool",
          "name": "",
          "type": "bool"
        }
      ],
      "stateMutability": "view",
      "type": "function"
    },
    {
      "inputs": [
        {
          "internalType": "address",
          "name": "pool",
          "type": "address"
        }
      ],
      "name": "isPoolFromFactory",
      "outputs": [
        {
          "internalType": "bool",
          "name": "",
          "type": "bool"
        }
      ],
      "stateMutability": "view",
      "type": "function"
    },
    {
      "inputs": [],
      "name": "owner",
      "outputs": [
        {
          "internalType": "address",
          "name": "",
          "type": "address"
        }
      ],
      "stateMutability": "view",
      "type": "function"
    },
    {
      "inputs": [],
      "name": "percentFeeGov",
      "outputs": [
        {
          "internalType": "uint256",
          "name": "",
          "type": "uint256"
        }
      ],
      "stateMutability": "view",
      "type": "function"
    },
    {
      "inputs": [
        {
          "internalType": "address",
          "name": "newGov",
          "type": "address"
        }
      ],
      "name": "setGov",
      "outputs": [],
      "stateMutability": "nonpayable",
      "type": "function"
    },
    {
      "inputs": [
        {
          "internalType": "uint256",
          "name": "newFee",
          "type": "uint256"
        }
      ],
      "name": "setGovFee",
      "outputs": [],
      "stateMutability": "nonpayable",
      "type": "function"
    },
    {
      "inputs": [
        {
          "internalType": "address",
          "name": "who",
          "type": "address"
        }
      ],
      "name": "setOwner",
      "outputs": [],
      "stateMutability": "nonpayable",
      "type": "function"
    }
  ],
  "bytecode": "0x60a060405234801561001057600080fd5b506040516200530c3803806200530c8339818101604052604081101561003557600080fd5b5080516020909101516001600160601b0319606083811b91909116608052600180546001600160a01b03191633178155604080518281528082019091529081602001602082028036833701905050905060008160008151811061009457fe5b6001600160a01b03909216602092830291909101820152604051630809469f60e11b815260048101828152835160248301528351730888000000000000000000000000000000000001936310128d3e938693928392604490920191858101910280838360005b838110156101125781810151838201526020016100fa565b5050505090500192505050600060405180830381600087803b15801561013757600080fd5b505af115801561014b573d6000803e3d6000fd5b5050505061015e8261018e60201b60201c565b610167826101b2565b50600480546001600160a01b0319166001600160a01b039290921691909117905550610226565b6001600160a01b03166000908152600260205260409020805460ff19166001179055565b6001546001600160a01b03163314610204576040805162461bcd60e51b815260206004820152601060248201526f29b2b73232b9103737ba1037bbb732b960811b604482015290519081900360640190fd5b600180546001600160a01b0319166001600160a01b0392909216919091179055565b60805160601c6150c862000244600039806109c852506150c86000f3fe60806040523480156200001157600080fd5b5060043610620001005760003560e01c80636634b7531162000099578063b6a5d7de116200006f578063b6a5d7de14620003b9578063b918161114620003ef578063cfad57a21462000425578063fe9fbb80146200045b5762000100565b80636634b753146200035b5780638d928af814620003a55780638da5cb5b14620003af5762000100565b8063278473fd11620000db578063278473fd14620002df57806327c97fa514620002ff57806341bd436a14620003355780635aa6e67514620003515762000100565b806313af403514620001055780631d073a7a146200013d57806325ebc8471462000170575b600080fd5b6200013b600480360360208110156200011d57600080fd5b503573ffffffffffffffffffffffffffffffffffffffff1662000491565b005b620001476200055f565b6040805173ffffffffffffffffffffffffffffffffffffffff9092168252519081900360200190f35b62000147600480360360e08110156200018857600080fd5b73ffffffffffffffffffffffffffffffffffffffff82358116926020810135909116916040820135916060810135916080820135919081019060c0810160a0820135640100000000811115620001dd57600080fd5b820183602082011115620001f057600080fd5b803590602001918460018302840111640100000000831117156200021357600080fd5b91908080601f01602080910402602001604051908101604052809392919081815260200183838082843760009201919091525092959493602081019350359150506401000000008111156200026757600080fd5b8201836020820111156200027a57600080fd5b803590602001918460018302840111640100000000831117156200029d57600080fd5b91908080601f01602080910402602001604051908101604052809392919081815260200183838082843760009201919091525092955062000577945050505050565b6200013b60048036036020811015620002f757600080fd5b5035620007b3565b6200013b600480360360208110156200031757600080fd5b503573ffffffffffffffffffffffffffffffffffffffff16620008a6565b6200033f62000979565b60408051918252519081900360200190f35b620001476200097f565b62000391600480360360208110156200037357600080fd5b503573ffffffffffffffffffffffffffffffffffffffff166200099b565b604080519115158252519081900360200190f35b62000147620009c6565b62000147620009ea565b6200013b60048036036020811015620003d157600080fd5b503573ffffffffffffffffffffffffffffffffffffffff1662000a06565b62000391600480360360208110156200040757600080fd5b503573ffffffffffffffffffffffffffffffffffffffff1662000a9b565b6200013b600480360360208110156200043d57600080fd5b503573ffffffffffffffffffffffffffffffffffffffff1662000ab0565b62000391600480360360208110156200047357600080fd5b503573ffffffffffffffffffffffffffffffffffffffff1662000b7e565b60015473ffffffffffffffffffffffffffffffffffffffff1633146200051857604080517f08c379a000000000000000000000000000000000000000000000000000000000815260206004820152601060248201527f53656e646572206e6f74206f776e657200000000000000000000000000000000604482015290519081900360640190fd5b600180547fffffffffffffffffffffffff00000000000000000000000000000000000000001673ffffffffffffffffffffffffffffffffffffffff92909216919091179055565b73088800000000000000000000000000000000000181565b6000808888888862000588620009c6565b6003546004546040518c929173ffffffffffffffffffffffffffffffffffffffff16908c908c90620005ba9062000c6f565b808b73ffffffffffffffffffffffffffffffffffffffff1681526020018a73ffffffffffffffffffffffffffffffffffffffff1681526020018981526020018881526020018773ffffffffffffffffffffffffffffffffffffffff1681526020018681526020018581526020018473ffffffffffffffffffffffffffffffffffffffff1681526020018060200180602001838103835285818151815260200191508051906020019080838360005b838110156200068257818101518382015260200162000668565b50505050905090810190601f168015620006b05780820380516001836020036101000a031916815260200191505b50838103825284518152845160209182019186019080838360005b83811015620006e5578181015183820152602001620006cb565b50505050905090810190601f168015620007135780820380516001836020036101000a031916815260200191505b509c50505050505050505050505050604051809103906000f0801580156200073f573d6000803e3d6000fd5b5090506200074d8162000ba9565b8773ffffffffffffffffffffffffffffffffffffffff168173ffffffffffffffffffffffffffffffffffffffff167fb14ff89cddeb998412ff084d61dbc14306dcdad1a6302415ee0c3cd849a6b62e60405160405180910390a398975050505050505050565b620007be3362000b7e565b6200082a57604080517f08c379a000000000000000000000000000000000000000000000000000000000815260206004820152601560248201527f53656e646572206e6f7420417574686f72697a65640000000000000000000000604482015290519081900360640190fd5b670429d069189e00008110620008a157604080517f08c379a000000000000000000000000000000000000000000000000000000000815260206004820152601760248201527f4e65772066656520686967686572207468616e20333025000000000000000000604482015290519081900360640190fd5b600355565b60015473ffffffffffffffffffffffffffffffffffffffff1633146200092d57604080517f08c379a000000000000000000000000000000000000000000000000000000000815260206004820152601060248201527f53656e646572206e6f74206f776e657200000000000000000000000000000000604482015290519081900360640190fd5b73ffffffffffffffffffffffffffffffffffffffff16600090815260026020526040902080547fffffffffffffffffffffffffffffffffffffffffffffffffffffffffffffff00169055565b60035481565b60045473ffffffffffffffffffffffffffffffffffffffff1681565b73ffffffffffffffffffffffffffffffffffffffff1660009081526020819052604090205460ff1690565b7f000000000000000000000000000000000000000000000000000000000000000090565b60015473ffffffffffffffffffffffffffffffffffffffff1681565b60015473ffffffffffffffffffffffffffffffffffffffff16331462000a8d57604080517f08c379a000000000000000000000000000000000000000000000000000000000815260206004820152601060248201527f53656e646572206e6f74206f776e657200000000000000000000000000000000604482015290519081900360640190fd5b62000a988162000c20565b50565b60026020526000908152604090205460ff1681565b60015473ffffffffffffffffffffffffffffffffffffffff16331462000b3757604080517f08c379a000000000000000000000000000000000000000000000000000000000815260206004820152601060248201527f53656e646572206e6f74206f776e657200000000000000000000000000000000604482015290519081900360640190fd5b600480547fffffffffffffffffffffffff00000000000000000000000000000000000000001673ffffffffffffffffffffffffffffffffffffffff92909216919091179055565b73ffffffffffffffffffffffffffffffffffffffff1660009081526002602052604090205460ff1690565b73ffffffffffffffffffffffffffffffffffffffff811660008181526020819052604080822080547fffffffffffffffffffffffffffffffffffffffffffffffffffffffffffffff00166001179055517f83a48fbcfc991335314e74d0496aab6a1987e992ddc85dddbcc4d6dd6ef2e9fc9190a250565b73ffffffffffffffffffffffffffffffffffffffff16600090815260026020526040902080547fffffffffffffffffffffffffffffffffffffffffffffffffffffffffffffff00166001179055565b6144158062000c7e8339019056fe6102a06040527f6e71edae12b1b97f4d1f60370fef10105fa2faae0126114a169c64845d6126c960e0523480156200003657600080fd5b506040516200441538038062004415833981016040819052620000599162000732565b6040805180820190915260018152603160f81b602080830191825284519085019081206080529151902060a0527f8b73c3c69bb8fe3d512ecc4cf759cc79239f7b179b0ffacaa9a75d522b39400f60c052825183918391620000be91600391620005b8565b508051620000d4906004906020840190620005b8565b50506040805160018082528183019092526060925090602080830190803683370190505090506000816000815181106200010a57fe5b6001600160a01b0390921660209283029190910190910152604051630809469f60e11b8152730888000000000000000000000000000000000001906310128d3e906200015b90849060040162000880565b600060405180830381600087803b1580156200017657600080fd5b505af11580156200018b573d6000803e3d6000fd5b5050505087428a03106200019e57600080fd5b6040516309b2760f60e01b81526000906001600160a01b038916906309b2760f90620001d09060029060040162000902565b602060405180830381600087803b158015620001eb57600080fd5b505af115801562000200573d6000803e3d6000fd5b505050506040513d601f19601f8201168201806040525081019062000226919062000719565b6040805160028082526060808301845293945090916020830190803683370190505090508b6001600160a01b03168d6001600160a01b03161015620002c9578c816000815181106200027457fe5b60200260200101906001600160a01b031690816001600160a01b0316815250508b81600181518110620002a357fe5b60200260200101906001600160a01b031690816001600160a01b03168152505062000328565b8b81600081518110620002d857fe5b60200260200101906001600160a01b031690816001600160a01b0316815250508c816001815181106200030757fe5b60200260200101906001600160a01b031690816001600160a01b0316815250505b6040805160028082526060820183526001600160a01b038c16926366a9c7d29286928692602083019080368337019050506040518463ffffffff1660e01b8152600401620003799392919062000895565b600060405180830381600087803b1580156200039457600080fd5b505af1158015620003a9573d6000803e3d6000fd5b5050506001600160601b031960608b901b166101c052506101e0829052610220889052670429d069189e00008710620003ff5760405162461bcd60e51b8152600401620003f69062000917565b60405180910390fd5b6102408790526001600160601b031960608e901b16610100526040805163313ce56760e01b815290516001600160a01b038f169163313ce567916004808301926020929190829003018186803b1580156200045957600080fd5b505afa1580156200046e573d6000803e3d6000fd5b505050506040513d601f19601f8201168201806040525081019062000494919062000811565b60f81b6001600160f81b0319166101205260608c901b6001600160601b031916610140526040805163313ce56760e01b815290516001600160a01b038e169163313ce567916004808301926020929190829003018186803b158015620004f957600080fd5b505afa1580156200050e573d6000803e3d6000fd5b505050506040513d601f19601f8201168201806040525081019062000534919062000811565b60f81b6001600160f81b031916610160526101808b90526101a08a9052606086901b6001600160601b031916610200526001600160a01b038c8116908e1610806200058157600162000584565b60005b60ff166102605280620005995760006200059c565b60015b60ff1661028052506200093d9c50505050505050505050505050565b828054600181600116156101000203166002900490600052602060002090601f016020900481019282601f10620005fb57805160ff19168380011785556200062b565b828001600101855582156200062b579182015b828111156200062b5782518255916020019190600101906200060e565b50620006399291506200063d565b5090565b5b808211156200063957600081556001016200063e565b80516001600160a01b03811681146200066c57600080fd5b92915050565b600082601f83011262000683578081fd5b81516001600160401b03808211156200069a578283fd5b6040516020601f8401601f1916820181018381118382101715620006bc578586fd5b80604052508194508382528681858801011115620006d957600080fd5b600092505b83831015620006fd5785830181015182840182015291820191620006de565b838311156200070f5760008185840101525b5050505092915050565b6000602082840312156200072b578081fd5b5051919050565b6000806000806000806000806000806101408b8d03121562000752578586fd5b6200075e8c8c62000654565b99506200076f8c60208d0162000654565b985060408b0151975060608b015196506200078e8c60808d0162000654565b955060a08b0151945060c08b01519350620007ad8c60e08d0162000654565b6101008c01519093506001600160401b0380821115620007cb578384fd5b620007d98e838f0162000672565b93506101208d0151915080821115620007f0578283fd5b50620007ff8d828e0162000672565b9150509295989b9194979a5092959850565b60006020828403121562000823578081fd5b815160ff8116811462000834578182fd5b9392505050565b6000815180845260208085019450808401835b83811015620008755781516001600160a01b0316875295820195908201906001016200084e565b509495945050505050565b6000602082526200083460208301846200083b565b60006060820185835260206060818501528186518084526080860191508288019350845b81811015620008e05784516001600160a01b031683529383019391830191600101620008b9565b50508481036040860152620008f681876200083b565b98975050505050505050565b60208101600383106200091157fe5b91905290565b6020808252600c908201526b08ccaca40e8dede40d0d2ced60a31b604082015260600190565b60805160a05160c05160e0516101005160601c6101205160f81c6101405160601c6101605160f81c610180516101a0516101c05160601c6101e0516102005160601c610220516102405161026051610280516138ce62000b476000398061090452806109755280610fb7528061102852806113e65280611442528061163d528061170852806118ce528061196b5280611a4b52806122dc528061239e528061243252806125805250806108c352806109415280610f765280610ff4528061134f52806113ab52806115d35280611694528061188d528061193252806119b45280611a1052806122a2528061235d52806123f9528061254c52508061060252806114ae5280611526528061155452806115b1528061161b528061166f52806116e352508061064a5280611f9852508061066e52806115845250806105de52806107c15280610e7452508061075f5280610a9d5280610b4b5280610e1b5250806110c35280611b0f5250806106265280611aa95280611ad85250806110e752806114195280611a805280611d9952806121f65250806106925280611d5b5280611e325280611e815280611f4f528061206652806121b652508061059a528061138252806119e95280611d2c52806121905250806107105280611cee5280611df65280611ebd5280612150525080610cdb52508061129a5250806112dc5250806112bb52506138ce6000f3fe608060405234801561001057600080fd5b506004361061020b5760003560e01c80636f307dc31161012a578063a9059cbb116100bd578063dd62ed3e1161008c578063f1cd96ba11610071578063f1cd96ba146103e9578063f46c39e7146103f1578063f7b94283146104065761020b565b8063dd62ed3e146103ce578063eaee3f3b146103e15761020b565b8063a9059cbb14610380578063d505accf14610393578063d5c096c4146103a8578063d73dd623146103bb5761020b565b80637ecebe00116100f95780637ecebe001461034a5780638d928af81461035d57806395d89b41146103655780639d2c110c1461036d5761020b565b80636f307dc3146102fb57806370a082311461030357806374f3b0091461031657806379155050146103375761020b565b80633644e515116101a25780634c1a4115116101715780634c1a4115146102d05780635aa6e675146102d857806364c9ec6f146102e057806366188463146102e85761020b565b80633644e515146102b057806338fff2d0146102b857806341bd436a146102c05780634665096d146102c85761020b565b806323b872dd116101de57806323b872dd1461027857806325a760c21461028b57806329e4f362146102a0578063313ce567146102a85761020b565b806306fdde0314610210578063095ea7b31461022e57806318160ddd1461024e5780631d073a7a14610263575b600080fd5b61021861040e565b6040516102259190613669565b60405180910390f35b61024161023c3660046132b4565b6104c2565b60405161022591906135d7565b6102566104d9565b60405161022591906135e2565b61026b6104df565b6040516102259190613595565b6102416102863660046131ff565b6104f7565b610293610598565b604051610225919061384b565b6102566105bc565b6102936105c8565b6102566105cd565b6102566105dc565b610256610600565b610256610624565b610256610648565b61026b61066c565b61026b610690565b6102416102f63660046132b4565b6106b4565b61026b61070e565b6102566103113660046131ab565b610732565b610329610324366004613312565b610751565b6040516102259291906135a9565b6102566103453660046134e1565b6109cf565b6102566103583660046131ab565b610a80565b61026b610a9b565b610218610abf565b61025661037b3660046133e5565b610b3e565b61024161038e3660046132b4565b610c99565b6103a66103a136600461323f565b610ca6565b005b6103296103b6366004613312565b610e0d565b6102416103c93660046132b4565b611060565b6102566103dc3660046131c7565b611096565b6102566110c1565b6102936110e5565b6103f9611109565b6040516102259190613813565b6103f9611135565b60038054604080516020601f60027fffffffffffffffffffffffffffffffffffffffffffffffffffffffffffffffff6101006001881615020190951694909404938401819004810282018101909252828152606093909290918301828280156104b85780601f1061048d576101008083540402835291602001916104b8565b820191906000526020600020905b81548152906001019060200180831161049b57829003601f168201915b5050505050905090565b60006104cf33848461114d565b5060015b92915050565b60025490565b73088800000000000000000000000000000000000181565b6001600160a01b0383166000818152600160209081526040808320338085529252822054919261053591148061052d5750838210155b6101976111b5565b6105408585856111c7565b336001600160a01b0386161480159061057957507fffffffffffffffffffffffffffffffffffffffffffffffffffffffffffffffff8114155b1561058b5761058b853385840361114d565b60019150505b9392505050565b7f000000000000000000000000000000000000000000000000000000000000000081565b670429d069189e000081565b601290565b60006105d7611296565b905090565b7f000000000000000000000000000000000000000000000000000000000000000090565b7f000000000000000000000000000000000000000000000000000000000000000081565b7f000000000000000000000000000000000000000000000000000000000000000081565b7f000000000000000000000000000000000000000000000000000000000000000081565b7f000000000000000000000000000000000000000000000000000000000000000081565b7f000000000000000000000000000000000000000000000000000000000000000081565b3360009081526001602090815260408083206001600160a01b03861684529091528120548083106106f0576106eb3385600061114d565b610704565b61070433856106ff8487611333565b61114d565b5060019392505050565b7f000000000000000000000000000000000000000000000000000000000000000081565b6001600160a01b0381166000908152602081905260409020545b919050565b606080336001600160a01b037f000000000000000000000000000000000000000000000000000000000000000016146107bf576040517f08c379a00000000000000000000000000000000000000000000000000000000081526004016107b6906136da565b60405180910390fd5b7f00000000000000000000000000000000000000000000000000000000000000008a14610818576040517f08c379a00000000000000000000000000000000000000000000000000000000081526004016107b6906137a5565b6060610826848601866132df565b90508751600214801561083a575080516002145b610870576040517f08c379a00000000000000000000000000000000000000000000000000000000081526004016107b69061376e565b61087988611349565b61088281611349565b60008061088e8a61147a565b604080516002808252606082019092529294509092508160200160208202803683370190505093506108c082896117dc565b847f0000000000000000000000000000000000000000000000000000000000000000815181106108ec57fe5b602090810291909101015261090181896117dc565b847f00000000000000000000000000000000000000000000000000000000000000008151811061092d57fe5b60200260200101818152505050506109ad817f00000000000000000000000000000000000000000000000000000000000000008151811061096a57fe5b6020026020010151827f00000000000000000000000000000000000000000000000000000000000000008151811061099e57fe5b60200260200101518a8c611812565b92506109b8836119ae565b6109c1826119ae565b509850989650505050505050565b6000806109da611aa4565b905060006109e88683611b5c565b905060006109f68684611b5c565b9050600085610a1757610a12610a0c898b611333565b85611b5c565b610a23565b610a2389890185611b5c565b90506000610a3384840183611333565b9050610a5081610a4b670de0b6b3a764000088611c99565b611b5c565b905086610a6657610a618189611333565b610a70565b610a708882611333565b955050505050505b949350505050565b6001600160a01b031660009081526005602052604090205490565b7f000000000000000000000000000000000000000000000000000000000000000090565b60048054604080516020601f60027fffffffffffffffffffffffffffffffffffffffffffffffffffffffffffffffff6101006001881615020190951694909404938401819004810282018101909252828152606093909290918301828280156104b85780601f1061048d576101008083540402835291602001916104b8565b6000336001600160a01b037f00000000000000000000000000000000000000000000000000000000000000001614610ba2576040517f08c379a00000000000000000000000000000000000000000000000000000000081526004016107b6906136da565b6000808086516001811115610bb357fe5b1490508015610bd557610bce86606001518760200151611cea565b9150610bea565b610be786606001518760400151611cea565b91505b610bf8858760200151611cea565b9450610c08848760400151611cea565b9350600080610c21878960200151888b60400151611df1565b915091508215610c68576000610c39858484876109cf565b9050610c4c85828b604001516000611f45565b9050610c5c818a6040015161214c565b95505050505050610591565b6000610c76858385876109cf565b9050610c8981868b604001516001611f45565b9050610c5c818a6020015161214c565b60006104cf3384846111c7565b610cb48442111560d16111b5565b6001600160a01b0387166000908152600560209081526040808320549051909291610d0b917f0000000000000000000000000000000000000000000000000000000000000000918c918c918c9188918d91016135eb565b6040516020818303038152906040528051906020012090506000610d2e8261221a565b9050600060018288888860405160008152602001604052604051610d55949392919061364b565b6020604051602081039080840390855afa158015610d77573d6000803e3d6000fd5b50506040517fffffffffffffffffffffffffffffffffffffffffffffffffffffffffffffffe001519150610dd790506001600160a01b03821615801590610dcf57508b6001600160a01b0316826001600160a01b0316145b6101f86111b5565b6001600160a01b038b166000908152600560205260409020600185019055610e008b8b8b61114d565b5050505050505050505050565b606080336001600160a01b037f00000000000000000000000000000000000000000000000000000000000000001614610e72576040517f08c379a00000000000000000000000000000000000000000000000000000000081526004016107b6906136da565b7f00000000000000000000000000000000000000000000000000000000000000008a14610ecb576040517f08c379a00000000000000000000000000000000000000000000000000000000081526004016107b6906137a5565b6060610ed9848601866132df565b905087516002148015610eed575080516002145b610f23576040517f08c379a00000000000000000000000000000000000000000000000000000000081526004016107b69061376e565b610f2c88611349565b610f3581611349565b600080610f418a61147a565b60408051600280825260608201909252929450909250816020016020820280368337019050509350610f7382896117dc565b847f000000000000000000000000000000000000000000000000000000000000000081518110610f9f57fe5b6020908102919091010152610fb481896117dc565b847f000000000000000000000000000000000000000000000000000000000000000081518110610fe057fe5b60200260200101818152505050506109ad817f00000000000000000000000000000000000000000000000000000000000000008151811061101d57fe5b6020026020010151827f00000000000000000000000000000000000000000000000000000000000000008151811061105157fe5b60200260200101518a8c612253565b3360008181526001602090815260408083206001600160a01b038716845290915281205490916104cf9185906106ff9086612476565b6001600160a01b03918216600090815260016020908152604080832093909416825291909152205490565b7f000000000000000000000000000000000000000000000000000000000000000081565b7f000000000000000000000000000000000000000000000000000000000000000081565b60065470010000000000000000000000000000000090046fffffffffffffffffffffffffffffffff1681565b6006546fffffffffffffffffffffffffffffffff1681565b6001600160a01b0380841660008181526001602090815260408083209487168084529490915290819020849055517f8c5be1e5ebec7d5bd14f71427d1e84f3dd0314c0f7b2291e5b200ac8c7c3b925906111a89085906135e2565b60405180910390a3505050565b816111c3576111c381612488565b5050565b6001600160a01b0383166000908152602081905260409020546111ef828210156101966111b5565b6112066001600160a01b03841615156101996111b5565b6001600160a01b038085166000908152602081905260408082208585039055918516815220546112369083612476565b6001600160a01b0380851660008181526020819052604090819020939093559151908616907fddf252ad1be2c89b69c2b068fc378daa952ba7f163c4a11628f55a4df523b3ef906112889086906135e2565b60405180910390a350505050565b60007f00000000000000000000000000000000000000000000000000000000000000007f00000000000000000000000000000000000000000000000000000000000000007f00000000000000000000000000000000000000000000000000000000000000006113036124f5565b3060405160200161131895949392919061361f565b60405160208183030381529060405280519060200120905090565b60006113438383111560016111b5565b50900390565b6113a8817f00000000000000000000000000000000000000000000000000000000000000008151811061137857fe5b60200260200101517f000000000000000000000000000000000000000000000000000000000000000060126124f9565b817f0000000000000000000000000000000000000000000000000000000000000000815181106113d457fe5b60200260200101818152505061143f817f00000000000000000000000000000000000000000000000000000000000000008151811061140f57fe5b60200260200101517f000000000000000000000000000000000000000000000000000000000000000060126124f9565b817f00000000000000000000000000000000000000000000000000000000000000008151811061146b57fe5b60200260200101818152505050565b60065460009081906fffffffffffffffffffffffffffffffff808216917001000000000000000000000000000000009004167f000000000000000000000000000000000000000000000000000000000000000061151e57600060068190556040517f9f878c349b0fc751f12168fdf539db8c1848b81c0751432f28626da5aa7024ee9161150c91859185918190613830565b60405180910390a190925090506117d7565b600061154a837f00000000000000000000000000000000000000000000000000000000000000006117dc565b90506000611578837f00000000000000000000000000000000000000000000000000000000000000006117dc565b905060606115a883838a7f0000000000000000000000000000000000000000000000000000000000000000612253565b905060006116127f0000000000000000000000000000000000000000000000000000000000000000837f0000000000000000000000000000000000000000000000000000000000000000815181106115fc57fe5b6020026020010151611c9990919063ffffffff16565b905060006116667f0000000000000000000000000000000000000000000000000000000000000000847f0000000000000000000000000000000000000000000000000000000000000000815181106115fc57fe5b905060006116da7f00000000000000000000000000000000000000000000000000000000000000006116d4867f0000000000000000000000000000000000000000000000000000000000000000815181106116bd57fe5b60200260200101518961133390919063ffffffff16565b90611c99565b905060006117317f00000000000000000000000000000000000000000000000000000000000000006116d4877f0000000000000000000000000000000000000000000000000000000000000000815181106116bd57fe5b90507f9f878c349b0fc751f12168fdf539db8c1848b81c0751432f28626da5aa7024ee848484846040516117689493929190613830565b60405180910390a1600680546fffffffffffffffffffffffffffffffff928316700100000000000000000000000000000000029383167fffffffffffffffffffffffffffffffff0000000000000000000000000000000090911617909116919091179055909750955050505050505b915091565b60008282026118008415806117f95750838583816117f657fe5b04145b60036111b5565b670de0b6b3a764000090049392505050565b604080516002808252606080830184529260208301908036833701905050905060008061183e85612546565b91509150600061184c6104d9565b9050600061185a8484611c99565b905061186688826117dc565b89111561190957600061187d856116d48c866117dc565b905061188987826125ba565b89867f0000000000000000000000000000000000000000000000000000000000000000815181106118b657fe5b60209081029190910101526118cb8a83611c99565b867f0000000000000000000000000000000000000000000000000000000000000000815181106118f757fe5b602002602001018181525050506119a2565b6000611919846116d48b866117dc565b905061192587826125ba565b61192f89836117dc565b867f00000000000000000000000000000000000000000000000000000000000000008151811061195b57fe5b60200260200101818152505088867f00000000000000000000000000000000000000000000000000000000000000008151811061199457fe5b602002602001018181525050505b50505050949350505050565b611a0d817f0000000000000000000000000000000000000000000000000000000000000000815181106119dd57fe5b602002602001015160127f00000000000000000000000000000000000000000000000000000000000000006124f9565b817f000000000000000000000000000000000000000000000000000000000000000081518110611a3957fe5b60200260200101818152505061143f817f000000000000000000000000000000000000000000000000000000000000000081518110611a7457fe5b602002602001015160127f00000000000000000000000000000000000000000000000000000000000000006124f9565b6000807f00000000000000000000000000000000000000000000000000000000000000004210611ad5576000611af9565b427f0000000000000000000000000000000000000000000000000000000000000000035b670de0b6b3a76400009081029150611b349082907f000000000000000000000000000000000000000000000000000000000000000002611c99565b90506000611b4a670de0b6b3a764000083611333565b905080611b5657600080fd5b91505090565b600081611b725750670de0b6b3a76400006104d3565b82611b7f575060006104d3565b611bac7f8000000000000000000000000000000000000000000000000000000000000000841060066111b5565b82611bd2770bce5086492111aea88f4bb1ca6bcf584181ea8059f76532841060076111b5565b826000670c7d713b49da000083138015611bf35750670f43fc2c04ee000083125b15611c2a576000611c038461264d565b9050670de0b6b3a764000080820784020583670de0b6b3a764000083050201915050611c38565b81611c3484612784565b0290505b670de0b6b3a76400009005611c867ffffffffffffffffffffffffffffffffffffffffffffffffdc702bd3a30fc00008212801590611c7f575068070c1cc73b00c800008213155b60086111b5565b611c8f81612b24565b9695505050505050565b6000611ca882151560046111b5565b82611cb5575060006104d3565b670de0b6b3a764000083810290611cd890858381611ccf57fe5b041460056111b5565b828181611ce157fe5b049150506104d3565b60007f00000000000000000000000000000000000000000000000000000000000000006001600160a01b0316826001600160a01b03161415611d5957611d52837f000000000000000000000000000000000000000000000000000000000000000060126124f9565b90506104d3565b7f00000000000000000000000000000000000000000000000000000000000000006001600160a01b0316826001600160a01b03161415611dbf57611d52837f000000000000000000000000000000000000000000000000000000000000000060126124f9565b6040517f08c379a00000000000000000000000000000000000000000000000000000000081526004016107b6906137dc565b6000807f00000000000000000000000000000000000000000000000000000000000000006001600160a01b0316856001600160a01b0316148015611e6657507f00000000000000000000000000000000000000000000000000000000000000006001600160a01b0316836001600160a01b0316145b15611e7f5785611e746104d9565b850191509150611f3c565b7f00000000000000000000000000000000000000000000000000000000000000006001600160a01b0316856001600160a01b0316148015611ef157507f00000000000000000000000000000000000000000000000000000000000000006001600160a01b0316836001600160a01b0316145b15611f0a57611efe6104d9565b86018491509150611f3c565b6040517f08c379a00000000000000000000000000000000000000000000000000000000081526004016107b690613711565b94509492505050565b60008115612064577f00000000000000000000000000000000000000000000000000000000000000006001600160a01b0316836001600160a01b03161415612013576000611fbd611f968688611333565b7f0000000000000000000000000000000000000000000000000000000000000000906117dc565b600680546fffffffffffffffffffffffffffffffff8082168401167fffffffffffffffffffffffffffffffff00000000000000000000000000000000909116179055905061200b8682612476565b915050610a78565b6000612022611f968787611333565b600680546fffffffffffffffffffffffffffffffff700100000000000000000000000000000000808304821685018216029116179055905061200b8682612476565b7f00000000000000000000000000000000000000000000000000000000000000006001600160a01b0316836001600160a01b031614156120ef5760006120ad611f968688611333565b600680546fffffffffffffffffffffffffffffffff700100000000000000000000000000000000808304821685018216029116179055905061200b8582611333565b60006120fe611f968787611333565b600680546fffffffffffffffffffffffffffffffff8082168401167fffffffffffffffffffffffffffffffff00000000000000000000000000000000909116179055905061200b8582611333565b60007f00000000000000000000000000000000000000000000000000000000000000006001600160a01b0316826001600160a01b031614156121b457611d528360127f00000000000000000000000000000000000000000000000000000000000000006124f9565b7f00000000000000000000000000000000000000000000000000000000000000006001600160a01b0316826001600160a01b03161415611dbf57611d528360127f00000000000000000000000000000000000000000000000000000000000000006124f9565b6000612224611296565b8260405160200161223692919061355f565b604051602081830303815290604052805190602001209050919050565b604080516002808252606080830184529260208301908036833701905050905060008061227f85612546565b91509150600061228d6104d9565b9050806123195761229e8589612ff4565b87847f0000000000000000000000000000000000000000000000000000000000000000815181106122cb57fe5b6020026020010181815250506000847f00000000000000000000000000000000000000000000000000000000000000008151811061230557fe5b602002602001018181525050505050610a78565b60006123258484611c99565b90506000612333828a6117dc565b9050898111156123d957600061234d866116d48d876117dc565b90506123598882612ff4565b8a877f00000000000000000000000000000000000000000000000000000000000000008151811061238657fe5b602090810291909101015261239b8b84611c99565b877f0000000000000000000000000000000000000000000000000000000000000000815181106123c757fe5b60200260200101818152505050612469565b60006123e9866116d484876117dc565b90506123f58882612ff4565b81877f00000000000000000000000000000000000000000000000000000000000000008151811061242257fe5b60200260200101818152505089877f00000000000000000000000000000000000000000000000000000000000000008151811061245b57fe5b602002602001018181525050505b5050505050949350505050565b600082820161059184821015836111b5565b7f08c379a0000000000000000000000000000000000000000000000000000000006000908152602060045260076024526642414c23000030600a808404818106603090810160081b95839006959095019082900491820690940160101b939093010160c81b604452606490fd5b4690565b60008160ff168360ff1611156125225781830360ff16600a0a848161251a57fe5b04935061253e565b8160ff168360ff16101561253e5782820360ff16600a0a840293505b509192915050565b600080827f00000000000000000000000000000000000000000000000000000000000000008151811061257557fe5b6020026020010151837f0000000000000000000000000000000000000000000000000000000000000000815181106125a957fe5b602002602001015191509150915091565b6001600160a01b0382166000908152602081905260409020546125e2828210156101966111b5565b6001600160a01b0383166000908152602081905260409020828203905560025461260c9083611333565b6002556040516000906001600160a01b038516907fddf252ad1be2c89b69c2b068fc378daa952ba7f163c4a11628f55a4df523b3ef906111a89086906135e2565b670de0b6b3a7640000026000806ec097ce7bc90715b34b9f1000000000808401907fffffffffffffffffffffffffffffffffff3f68318436f8ea4cb460f0000000008501028161269957fe5b05905060006ec097ce7bc90715b34b9f100000000082800205905081806ec097ce7bc90715b34b9f100000000081840205915060038205016ec097ce7bc90715b34b9f100000000082840205915060058205016ec097ce7bc90715b34b9f100000000082840205915060078205016ec097ce7bc90715b34b9f100000000082840205915060098205016ec097ce7bc90715b34b9f1000000000828402059150600b8205016ec097ce7bc90715b34b9f1000000000828402059150600d8205016ec097ce7bc90715b34b9f1000000000828402059150600f826002919005919091010295945050505050565b6000670de0b6b3a76400008212156127c1576127b7826ec097ce7bc90715b34b9f1000000000816127b157fe5b05612784565b600003905061074c565b60007e1600ef3172e58d2e933ec884fde10064c63b5372d805e203c0000000000000831261281257770195e54c5dd42177f53a27172fa9ec630262827000000000830592506806f05b59d3b2000000015b73011798004d755d3c8bc8e03204cf44619e000000831261284a576b1425982cf597cd205cef7380830592506803782dace9d9000000015b606492830292026e01855144814a7ff805980ff00840008312612892576e01855144814a7ff805980ff008400068056bc75e2d63100000840205925068ad78ebc5ac62000000015b6b02df0ab5a80a22c61ab5a70083126128cd576b02df0ab5a80a22c61ab5a70068056bc75e2d6310000084020592506856bc75e2d631000000015b693f1fce3da636ea5cf850831261290457693f1fce3da636ea5cf85068056bc75e2d631000008402059250682b5e3af16b18800000015b690127fa27722cc06cc5e2831261293b57690127fa27722cc06cc5e268056bc75e2d6310000084020592506815af1d78b58c400000015b68280e60114edb805d0383126129705768280e60114edb805d0368056bc75e2d631000008402059250680ad78ebc5ac6200000015b680ebc5fb41746121110831261299b57680ebc5fb4174612111068056bc75e2d631000009384020592015b6808f00f760a4b2db55d83126129d0576808f00f760a4b2db55d68056bc75e2d6310000084020592506802b5e3af16b1880000015b6806f5f17757889379378312612a05576806f5f177578893793768056bc75e2d63100000840205925068015af1d78b58c40000015b6806248f33704b2866038312612a39576806248f33704b28660368056bc75e2d63100000840205925067ad78ebc5ac620000015b6805c548670b9510e7ac8312612a6d576805c548670b9510e7ac68056bc75e2d6310000084020592506756bc75e2d6310000015b600068056bc75e2d63100000840168056bc75e2d631000008086030281612a9057fe5b059050600068056bc75e2d63100000828002059050818068056bc75e2d63100000818402059150600382050168056bc75e2d63100000828402059150600582050168056bc75e2d63100000828402059150600782050168056bc75e2d63100000828402059150600982050168056bc75e2d63100000828402059150600b820501600202606485820105979650505050505050565b6000612b697ffffffffffffffffffffffffffffffffffffffffffffffffdc702bd3a30fc00008312158015612b62575068070c1cc73b00c800008313155b60096111b5565b6000821215612b9d57612b7e82600003612b24565b6ec097ce7bc90715b34b9f100000000081612b9557fe5b05905061074c565b60006806f05b59d3b20000008312612bf357507ffffffffffffffffffffffffffffffffffffffffffffffff90fa4a62c4e00000090910190770195e54c5dd42177f53a27172fa9ec630262827000000000612c3f565b6803782dace9d90000008312612c3b57507ffffffffffffffffffffffffffffffffffffffffffffffffc87d2531627000000909101906b1425982cf597cd205cef7380612c3f565b5060015b6064929092029168056bc75e2d6310000068ad78ebc5ac620000008412612ca5577fffffffffffffffffffffffffffffffffffffffffffffff5287143a539e0000009093019268056bc75e2d631000006e01855144814a7ff805980ff008400082020590505b6856bc75e2d6310000008412612cf7577fffffffffffffffffffffffffffffffffffffffffffffffa9438a1d29cf0000009093019268056bc75e2d631000006b02df0ab5a80a22c61ab5a70082020590505b682b5e3af16b188000008412612d47577fffffffffffffffffffffffffffffffffffffffffffffffd4a1c50e94e78000009093019268056bc75e2d63100000693f1fce3da636ea5cf85082020590505b6815af1d78b58c4000008412612d97577fffffffffffffffffffffffffffffffffffffffffffffffea50e2874a73c000009093019268056bc75e2d63100000690127fa27722cc06cc5e282020590505b680ad78ebc5ac62000008412612de6577ffffffffffffffffffffffffffffffffffffffffffffffff5287143a539e000009093019268056bc75e2d6310000068280e60114edb805d0382020590505b68056bc75e2d631000008412612e35577ffffffffffffffffffffffffffffffffffffffffffffffffa9438a1d29cf000009093019268056bc75e2d63100000680ebc5fb4174612111082020590505b6802b5e3af16b18800008412612e84577ffffffffffffffffffffffffffffffffffffffffffffffffd4a1c50e94e7800009093019268056bc75e2d631000006808f00f760a4b2db55d82020590505b68015af1d78b58c400008412612ed3577ffffffffffffffffffffffffffffffffffffffffffffffffea50e2874a73c00009093019268056bc75e2d631000006806f5f177578893793782020590505b68056bc75e2d631000008481019085906002908280020505918201919050600368056bc75e2d631000008783020505918201919050600468056bc75e2d631000008783020505918201919050600568056bc75e2d631000008783020505918201919050600668056bc75e2d631000008783020505918201919050600768056bc75e2d631000008783020505918201919050600868056bc75e2d631000008783020505918201919050600968056bc75e2d631000008783020505918201919050600a68056bc75e2d631000008783020505918201919050600b68056bc75e2d631000008783020505918201919050600c68056bc75e2d631000008783020505918201919050606468056bc75e2d63100000848402058502059695505050505050565b6001600160a01b0382166000908152602081905260409020546130179082612476565b6001600160a01b03831660009081526020819052604090205560025461303d9082612476565b6002556040516001600160a01b038316906000907fddf252ad1be2c89b69c2b068fc378daa952ba7f163c4a11628f55a4df523b3ef9061307e9085906135e2565b60405180910390a35050565b80356104d381613880565b600082601f8301126130a5578081fd5b813567ffffffffffffffff8111156130bb578182fd5b60208082026130cb828201613859565b838152935081840185830182870184018810156130e757600080fd5b600092505b8483101561310a5780358252600192909201919083019083016130ec565b505050505092915050565b600082601f830112613125578081fd5b813567ffffffffffffffff81111561313b578182fd5b61316c60207fffffffffffffffffffffffffffffffffffffffffffffffffffffffffffffffe0601f84011601613859565b915080825283602082850101111561318357600080fd5b8060208401602084013760009082016020015292915050565b8035600281106104d357600080fd5b6000602082840312156131bc578081fd5b813561059181613880565b600080604083850312156131d9578081fd5b82356131e481613880565b915060208301356131f481613880565b809150509250929050565b600080600060608486031215613213578081fd5b833561321e81613880565b9250602084013561322e81613880565b929592945050506040919091013590565b600080600080600080600060e0888a031215613259578283fd5b873561326481613880565b9650602088013561327481613880565b95506040880135945060608801359350608088013560ff81168114613297578384fd5b9699959850939692959460a0840135945060c09093013592915050565b600080604083850312156132c6578182fd5b82356132d181613880565b946020939093013593505050565b6000602082840312156132f0578081fd5b813567ffffffffffffffff811115613306578182fd5b610a7884828501613095565b60008060008060008060008060e0898b03121561332d578081fd5b88359750602089013561333f81613880565b9650604089013561334f81613880565b9550606089013567ffffffffffffffff8082111561336b578283fd5b6133778c838d01613095565b965060808b0135955060a08b0135945060c08b013591508082111561339a578283fd5b818b0191508b601f8301126133ad578283fd5b8135818111156133bb578384fd5b8c60208285010111156133cc578384fd5b6020830194508093505050509295985092959890939650565b6000806000606084860312156133f9578283fd5b833567ffffffffffffffff80821115613410578485fd5b8186019150610120808389031215613426578586fd5b61342f81613859565b905061343b888461319c565b815261344a886020850161308a565b602082015261345c886040850161308a565b6040820152606083013560608201526080830135608082015260a083013560a082015261348c8860c0850161308a565b60c082015261349e8860e0850161308a565b60e082015261010080840135838111156134b6578788fd5b6134c28a828701613115565b9183019190915250976020870135975060409096013595945050505050565b600080600080608085870312156134f6578182fd5b8435935060208501359250604085013591506060850135801515811461351a578182fd5b939692955090935050565b6000815180845260208085019450808401835b8381101561355457815187529582019590820190600101613538565b509495945050505050565b7f190100000000000000000000000000000000000000000000000000000000000081526002810192909252602282015260420190565b6001600160a01b0391909116815260200190565b6000604082526135bc6040830185613525565b82810360208401526135ce8185613525565b95945050505050565b901515815260200190565b90815260200190565b9586526001600160a01b0394851660208701529290931660408501526060840152608083019190915260a082015260c00190565b9485526020850193909352604084019190915260608301526001600160a01b0316608082015260a00190565b93845260ff9290921660208401526040830152606082015260800190565b6000602080835283518082850152825b8181101561369557858101830151858201604001528201613679565b818111156136a65783604083870101525b50601f017fffffffffffffffffffffffffffffffffffffffffffffffffffffffffffffffe016929092016040019392505050565b60208082526010908201527f4e6f6e205661756c742063616c6c657200000000000000000000000000000000604082015260600190565b60208082526022908201527f546f6b656e207265717565737420646f65736e2774206d617463682073746f7260408201527f6564000000000000000000000000000000000000000000000000000000000000606082015260800190565b6020808252600e908201527f496e76616c696420666f726d6174000000000000000000000000000000000000604082015260600190565b6020808252600d908201527f57726f6e6720706f6f6c20696400000000000000000000000000000000000000604082015260600190565b6020808252601a908201527f43616c6c65642077697468206e6f6e20706f6f6c20746f6b656e000000000000604082015260600190565b6fffffffffffffffffffffffffffffffff91909116815260200190565b93845260208401929092526040830152606082015260800190565b60ff91909116815260200190565b60405181810167ffffffffffffffff8111828210171561387857600080fd5b604052919050565b6001600160a01b038116811461389557600080fd5b5056fea2646970667358221220bcd609be7dfeffc010e814b32e0b5c027fc2da93bf26648dc50b8f63fe25e13a64736f6c63430007010033a2646970667358221220c02fdcbe43f5a69553ab2da174e267276183621efe692d1a73265c2c40a58e6a64736f6c63430007010033",
  "linkReferences": {},
  "deployedLinkReferences": {}
}