{
  "_format": "hh-sol-artifact-1",
  "contractName": "Vault",
  "sourceName": "contracts/balancer-core-v2/vault/Vault.sol",
  "abi": [
    {
      "inputs": [
        {
          "internalType": "contract IAuthorizer",
          "name": "authorizer",
          "type": "address"
        },
        {
          "internalType": "contract IWETH",
          "name": "weth",
          "type": "address"
        },
        {
          "internalType": "uint256",
          "name": "pauseWindowDuration",
          "type": "uint256"
        },
        {
          "internalType": "uint256",
          "name": "bufferPeriodDuration",
          "type": "uint256"
        }
      ],
      "stateMutability": "nonpayable",
      "type": "constructor"
    },
    {
      "anonymous": false,
      "inputs": [
        {
          "indexed": true,
          "internalType": "contract IAuthorizer",
          "name": "newAuthorizer",
          "type": "address"
        }
      ],
      "name": "AuthorizerChanged",
      "type": "event"
    },
    {
      "anonymous": false,
      "inputs": [
        {
          "indexed": true,
          "internalType": "contract IERC20",
          "name": "token",
          "type": "address"
        },
        {
          "indexed": true,
          "internalType": "address",
          "name": "sender",
          "type": "address"
        },
        {
          "indexed": false,
          "internalType": "address",
          "name": "recipient",
          "type": "address"
        },
        {
          "indexed": false,
          "internalType": "uint256",
          "name": "amount",
          "type": "uint256"
        }
      ],
      "name": "ExternalBalanceTransfer",
      "type": "event"
    },
    {
      "anonymous": false,
      "inputs": [
        {
          "indexed": true,
          "internalType": "contract IFlashLoanRecipient",
          "name": "recipient",
          "type": "address"
        },
        {
          "indexed": true,
          "internalType": "contract IERC20",
          "name": "token",
          "type": "address"
        },
        {
          "indexed": false,
          "internalType": "uint256",
          "name": "amount",
          "type": "uint256"
        },
        {
          "indexed": false,
          "internalType": "uint256",
          "name": "feeAmount",
          "type": "uint256"
        }
      ],
      "name": "FlashLoan",
      "type": "event"
    },
    {
      "anonymous": false,
      "inputs": [
        {
          "indexed": true,
          "internalType": "address",
          "name": "user",
          "type": "address"
        },
        {
          "indexed": true,
          "internalType": "contract IERC20",
          "name": "token",
          "type": "address"
        },
        {
          "indexed": false,
          "internalType": "int256",
          "name": "delta",
          "type": "int256"
        }
      ],
      "name": "InternalBalanceChanged",
      "type": "event"
    },
    {
      "anonymous": false,
      "inputs": [
        {
          "indexed": false,
          "internalType": "bool",
          "name": "paused",
          "type": "bool"
        }
      ],
      "name": "PausedStateChanged",
      "type": "event"
    },
    {
      "anonymous": false,
      "inputs": [
        {
          "indexed": true,
          "internalType": "bytes32",
          "name": "poolId",
          "type": "bytes32"
        },
        {
          "indexed": true,
          "internalType": "address",
          "name": "liquidityProvider",
          "type": "address"
        },
        {
          "indexed": false,
          "internalType": "contract IERC20[]",
          "name": "tokens",
          "type": "address[]"
        },
        {
          "indexed": false,
          "internalType": "int256[]",
          "name": "deltas",
          "type": "int256[]"
        },
        {
          "indexed": false,
          "internalType": "uint256[]",
          "name": "protocolFeeAmounts",
          "type": "uint256[]"
        }
      ],
      "name": "PoolBalanceChanged",
      "type": "event"
    },
    {
      "anonymous": false,
      "inputs": [
        {
          "indexed": true,
          "internalType": "bytes32",
          "name": "poolId",
          "type": "bytes32"
        },
        {
          "indexed": true,
          "internalType": "address",
          "name": "assetManager",
          "type": "address"
        },
        {
          "indexed": true,
          "internalType": "contract IERC20",
          "name": "token",
          "type": "address"
        },
        {
          "indexed": false,
          "internalType": "int256",
          "name": "cashDelta",
          "type": "int256"
        },
        {
          "indexed": false,
          "internalType": "int256",
          "name": "managedDelta",
          "type": "int256"
        }
      ],
      "name": "PoolBalanceManaged",
      "type": "event"
    },
    {
      "anonymous": false,
      "inputs": [
        {
          "indexed": true,
          "internalType": "bytes32",
          "name": "poolId",
          "type": "bytes32"
        },
        {
          "indexed": true,
          "internalType": "address",
          "name": "poolAddress",
          "type": "address"
        },
        {
          "indexed": false,
          "internalType": "enum IVault.PoolSpecialization",
          "name": "specialization",
          "type": "uint8"
        }
      ],
      "name": "PoolRegistered",
      "type": "event"
    },
    {
      "anonymous": false,
      "inputs": [
        {
          "indexed": true,
          "internalType": "address",
          "name": "relayer",
          "type": "address"
        },
        {
          "indexed": true,
          "internalType": "address",
          "name": "sender",
          "type": "address"
        },
        {
          "indexed": false,
          "internalType": "bool",
          "name": "approved",
          "type": "bool"
        }
      ],
      "name": "RelayerApprovalChanged",
      "type": "event"
    },
    {
      "anonymous": false,
      "inputs": [
        {
          "indexed": true,
          "internalType": "bytes32",
          "name": "poolId",
          "type": "bytes32"
        },
        {
          "indexed": true,
          "internalType": "contract IERC20",
          "name": "tokenIn",
          "type": "address"
        },
        {
          "indexed": true,
          "internalType": "contract IERC20",
          "name": "tokenOut",
          "type": "address"
        },
        {
          "indexed": false,
          "internalType": "uint256",
          "name": "amountIn",
          "type": "uint256"
        },
        {
          "indexed": false,
          "internalType": "uint256",
          "name": "amountOut",
          "type": "uint256"
        }
      ],
      "name": "Swap",
      "type": "event"
    },
    {
      "anonymous": false,
      "inputs": [
        {
          "indexed": true,
          "internalType": "bytes32",
          "name": "poolId",
          "type": "bytes32"
        },
        {
          "indexed": false,
          "internalType": "contract IERC20[]",
          "name": "tokens",
          "type": "address[]"
        }
      ],
      "name": "TokensDeregistered",
      "type": "event"
    },
    {
      "anonymous": false,
      "inputs": [
        {
          "indexed": true,
          "internalType": "bytes32",
          "name": "poolId",
          "type": "bytes32"
        },
        {
          "indexed": false,
          "internalType": "contract IERC20[]",
          "name": "tokens",
          "type": "address[]"
        },
        {
          "indexed": false,
          "internalType": "address[]",
          "name": "assetManagers",
          "type": "address[]"
        }
      ],
      "name": "TokensRegistered",
      "type": "event"
    },
    {
      "inputs": [],
      "name": "SPONSOR",
      "outputs": [
        {
          "internalType": "contract SponsorWhitelistControl",
          "name": "",
          "type": "address"
        }
      ],
      "stateMutability": "view",
      "type": "function"
    },
    {
      "inputs": [],
      "name": "WETH",
      "outputs": [
        {
          "internalType": "contract IWETH",
          "name": "",
          "type": "address"
        }
      ],
      "stateMutability": "view",
      "type": "function"
    },
    {
      "inputs": [
        {
          "internalType": "enum IVault.SwapKind",
          "name": "kind",
          "type": "uint8"
        },
        {
          "components": [
            {
              "internalType": "bytes32",
              "name": "poolId",
              "type": "bytes32"
            },
            {
              "internalType": "uint256",
              "name": "assetInIndex",
              "type": "uint256"
            },
            {
              "internalType": "uint256",
              "name": "assetOutIndex",
              "type": "uint256"
            },
            {
              "internalType": "uint256",
              "name": "amount",
              "type": "uint256"
            },
            {
              "internalType": "bytes",
              "name": "userData",
              "type": "bytes"
            }
          ],
          "internalType": "struct IVault.BatchSwapStep[]",
          "name": "swaps",
          "type": "tuple[]"
        },
        {
          "internalType": "contract IAsset[]",
          "name": "assets",
          "type": "address[]"
        },
        {
          "components": [
            {
              "internalType": "address",
              "name": "sender",
              "type": "address"
            },
            {
              "internalType": "bool",
              "name": "fromInternalBalance",
              "type": "bool"
            },
            {
              "internalType": "address payable",
              "name": "recipient",
              "type": "address"
            },
            {
              "internalType": "bool",
              "name": "toInternalBalance",
              "type": "bool"
            }
          ],
          "internalType": "struct IVault.FundManagement",
          "name": "funds",
          "type": "tuple"
        },
        {
          "internalType": "int256[]",
          "name": "limits",
          "type": "int256[]"
        },
        {
          "internalType": "uint256",
          "name": "deadline",
          "type": "uint256"
        }
      ],
      "name": "batchSwap",
      "outputs": [
        {
          "internalType": "int256[]",
          "name": "assetDeltas",
          "type": "int256[]"
        }
      ],
      "stateMutability": "payable",
      "type": "function"
    },
    {
      "inputs": [
        {
          "internalType": "bytes32",
          "name": "poolId",
          "type": "bytes32"
        },
        {
          "internalType": "contract IERC20[]",
          "name": "tokens",
          "type": "address[]"
        }
      ],
      "name": "deregisterTokens",
      "outputs": [],
      "stateMutability": "nonpayable",
      "type": "function"
    },
    {
      "inputs": [
        {
          "internalType": "bytes32",
          "name": "poolId",
          "type": "bytes32"
        },
        {
          "internalType": "address",
          "name": "sender",
          "type": "address"
        },
        {
          "internalType": "address payable",
          "name": "recipient",
          "type": "address"
        },
        {
          "components": [
            {
              "internalType": "contract IAsset[]",
              "name": "assets",
              "type": "address[]"
            },
            {
              "internalType": "uint256[]",
              "name": "minAmountsOut",
              "type": "uint256[]"
            },
            {
              "internalType": "bytes",
              "name": "userData",
              "type": "bytes"
            },
            {
              "internalType": "bool",
              "name": "toInternalBalance",
              "type": "bool"
            }
          ],
          "internalType": "struct IVault.ExitPoolRequest",
          "name": "request",
          "type": "tuple"
        }
      ],
      "name": "exitPool",
      "outputs": [],
      "stateMutability": "nonpayable",
      "type": "function"
    },
    {
      "inputs": [
        {
          "internalType": "contract IFlashLoanRecipient",
          "name": "recipient",
          "type": "address"
        },
        {
          "internalType": "contract IERC20[]",
          "name": "tokens",
          "type": "address[]"
        },
        {
          "internalType": "uint256[]",
          "name": "amounts",
          "type": "uint256[]"
        },
        {
          "internalType": "bytes",
          "name": "userData",
          "type": "bytes"
        }
      ],
      "name": "flashLoan",
      "outputs": [],
      "stateMutability": "nonpayable",
      "type": "function"
    },
    {
      "inputs": [
        {
          "internalType": "bytes4",
          "name": "selector",
          "type": "bytes4"
        }
      ],
      "name": "getActionId",
      "outputs": [
        {
          "internalType": "bytes32",
          "name": "",
          "type": "bytes32"
        }
      ],
      "stateMutability": "view",
      "type": "function"
    },
    {
      "inputs": [],
      "name": "getAuthorizer",
      "outputs": [
        {
          "internalType": "contract IAuthorizer",
          "name": "",
          "type": "address"
        }
      ],
      "stateMutability": "view",
      "type": "function"
    },
    {
      "inputs": [],
      "name": "getDomainSeparator",
      "outputs": [
        {
          "internalType": "bytes32",
          "name": "",
          "type": "bytes32"
        }
      ],
      "stateMutability": "view",
      "type": "function"
    },
    {
      "inputs": [
        {
          "internalType": "address",
          "name": "user",
          "type": "address"
        },
        {
          "internalType": "contract IERC20[]",
          "name": "tokens",
          "type": "address[]"
        }
      ],
      "name": "getInternalBalance",
      "outputs": [
        {
          "internalType": "uint256[]",
          "name": "balances",
          "type": "uint256[]"
        }
      ],
      "stateMutability": "view",
      "type": "function"
    },
    {
      "inputs": [
        {
          "internalType": "address",
          "name": "user",
          "type": "address"
        }
      ],
      "name": "getNextNonce",
      "outputs": [
        {
          "internalType": "uint256",
          "name": "",
          "type": "uint256"
        }
      ],
      "stateMutability": "view",
      "type": "function"
    },
    {
      "inputs": [],
      "name": "getPausedState",
      "outputs": [
        {
          "internalType": "bool",
          "name": "paused",
          "type": "bool"
        },
        {
          "internalType": "uint256",
          "name": "pauseWindowEndTime",
          "type": "uint256"
        },
        {
          "internalType": "uint256",
          "name": "bufferPeriodEndTime",
          "type": "uint256"
        }
      ],
      "stateMutability": "view",
      "type": "function"
    },
    {
      "inputs": [
        {
          "internalType": "bytes32",
          "name": "poolId",
          "type": "bytes32"
        }
      ],
      "name": "getPool",
      "outputs": [
        {
          "internalType": "address",
          "name": "",
          "type": "address"
        },
        {
          "internalType": "enum IVault.PoolSpecialization",
          "name": "",
          "type": "uint8"
        }
      ],
      "stateMutability": "view",
      "type": "function"
    },
    {
      "inputs": [
        {
          "internalType": "bytes32",
          "name": "poolId",
          "type": "bytes32"
        },
        {
          "internalType": "contract IERC20",
          "name": "token",
          "type": "address"
        }
      ],
      "name": "getPoolTokenInfo",
      "outputs": [
        {
          "internalType": "uint256",
          "name": "cash",
          "type": "uint256"
        },
        {
          "internalType": "uint256",
          "name": "managed",
          "type": "uint256"
        },
        {
          "internalType": "uint256",
          "name": "lastChangeBlock",
          "type": "uint256"
        },
        {
          "internalType": "address",
          "name": "assetManager",
          "type": "address"
        }
      ],
      "stateMutability": "view",
      "type": "function"
    },
    {
      "inputs": [
        {
          "internalType": "bytes32",
          "name": "poolId",
          "type": "bytes32"
        }
      ],
      "name": "getPoolTokens",
      "outputs": [
        {
          "internalType": "contract IERC20[]",
          "name": "tokens",
          "type": "address[]"
        },
        {
          "internalType": "uint256[]",
          "name": "balances",
          "type": "uint256[]"
        },
        {
          "internalType": "uint256",
          "name": "lastChangeBlock",
          "type": "uint256"
        }
      ],
      "stateMutability": "view",
      "type": "function"
    },
    {
      "inputs": [],
      "name": "getProtocolFeesCollector",
      "outputs": [
        {
          "internalType": "contract ProtocolFeesCollector",
          "name": "",
          "type": "address"
        }
      ],
      "stateMutability": "view",
      "type": "function"
    },
    {
      "inputs": [
        {
          "internalType": "address",
          "name": "user",
          "type": "address"
        },
        {
          "internalType": "address",
          "name": "relayer",
          "type": "address"
        }
      ],
      "name": "hasApprovedRelayer",
      "outputs": [
        {
          "internalType": "bool",
          "name": "",
          "type": "bool"
        }
      ],
      "stateMutability": "view",
      "type": "function"
    },
    {
      "inputs": [
        {
          "internalType": "bytes32",
          "name": "poolId",
          "type": "bytes32"
        },
        {
          "internalType": "address",
          "name": "sender",
          "type": "address"
        },
        {
          "internalType": "address",
          "name": "recipient",
          "type": "address"
        },
        {
          "components": [
            {
              "internalType": "contract IAsset[]",
              "name": "assets",
              "type": "address[]"
            },
            {
              "internalType": "uint256[]",
              "name": "maxAmountsIn",
              "type": "uint256[]"
            },
            {
              "internalType": "bytes",
              "name": "userData",
              "type": "bytes"
            },
            {
              "internalType": "bool",
              "name": "fromInternalBalance",
              "type": "bool"
            }
          ],
          "internalType": "struct IVault.JoinPoolRequest",
          "name": "request",
          "type": "tuple"
        }
      ],
      "name": "joinPool",
      "outputs": [],
      "stateMutability": "payable",
      "type": "function"
    },
    {
      "inputs": [
        {
          "components": [
            {
              "internalType": "enum IVault.PoolBalanceOpKind",
              "name": "kind",
              "type": "uint8"
            },
            {
              "internalType": "bytes32",
              "name": "poolId",
              "type": "bytes32"
            },
            {
              "internalType": "contract IERC20",
              "name": "token",
              "type": "address"
            },
            {
              "internalType": "uint256",
              "name": "amount",
              "type": "uint256"
            }
          ],
          "internalType": "struct IVault.PoolBalanceOp[]",
          "name": "ops",
          "type": "tuple[]"
        }
      ],
      "name": "managePoolBalance",
      "outputs": [],
      "stateMutability": "nonpayable",
      "type": "function"
    },
    {
      "inputs": [
        {
          "components": [
            {
              "internalType": "enum IVault.UserBalanceOpKind",
              "name": "kind",
              "type": "uint8"
            },
            {
              "internalType": "contract IAsset",
              "name": "asset",
              "type": "address"
            },
            {
              "internalType": "uint256",
              "name": "amount",
              "type": "uint256"
            },
            {
              "internalType": "address",
              "name": "sender",
              "type": "address"
            },
            {
              "internalType": "address payable",
              "name": "recipient",
              "type": "address"
            }
          ],
          "internalType": "struct IVault.UserBalanceOp[]",
          "name": "ops",
          "type": "tuple[]"
        }
      ],
      "name": "manageUserBalance",
      "outputs": [],
      "stateMutability": "payable",
      "type": "function"
    },
    {
      "inputs": [
        {
          "internalType": "enum IVault.SwapKind",
          "name": "kind",
          "type": "uint8"
        },
        {
          "components": [
            {
              "internalType": "bytes32",
              "name": "poolId",
              "type": "bytes32"
            },
            {
              "internalType": "uint256",
              "name": "assetInIndex",
              "type": "uint256"
            },
            {
              "internalType": "uint256",
              "name": "assetOutIndex",
              "type": "uint256"
            },
            {
              "internalType": "uint256",
              "name": "amount",
              "type": "uint256"
            },
            {
              "internalType": "bytes",
              "name": "userData",
              "type": "bytes"
            }
          ],
          "internalType": "struct IVault.BatchSwapStep[]",
          "name": "swaps",
          "type": "tuple[]"
        },
        {
          "internalType": "contract IAsset[]",
          "name": "assets",
          "type": "address[]"
        },
        {
          "components": [
            {
              "internalType": "address",
              "name": "sender",
              "type": "address"
            },
            {
              "internalType": "bool",
              "name": "fromInternalBalance",
              "type": "bool"
            },
            {
              "internalType": "address payable",
              "name": "recipient",
              "type": "address"
            },
            {
              "internalType": "bool",
              "name": "toInternalBalance",
              "type": "bool"
            }
          ],
          "internalType": "struct IVault.FundManagement",
          "name": "funds",
          "type": "tuple"
        }
      ],
      "name": "queryBatchSwap",
      "outputs": [
        {
          "internalType": "int256[]",
          "name": "",
          "type": "int256[]"
        }
      ],
      "stateMutability": "nonpayable",
      "type": "function"
    },
    {
      "inputs": [
        {
          "internalType": "enum IVault.PoolSpecialization",
          "name": "specialization",
          "type": "uint8"
        }
      ],
      "name": "registerPool",
      "outputs": [
        {
          "internalType": "bytes32",
          "name": "",
          "type": "bytes32"
        }
      ],
      "stateMutability": "nonpayable",
      "type": "function"
    },
    {
      "inputs": [
        {
          "internalType": "bytes32",
          "name": "poolId",
          "type": "bytes32"
        },
        {
          "internalType": "contract IERC20[]",
          "name": "tokens",
          "type": "address[]"
        },
        {
          "internalType": "address[]",
          "name": "assetManagers",
          "type": "address[]"
        }
      ],
      "name": "registerTokens",
      "outputs": [],
      "stateMutability": "nonpayable",
      "type": "function"
    },
    {
      "inputs": [
        {
          "internalType": "contract IAuthorizer",
          "name": "newAuthorizer",
          "type": "address"
        }
      ],
      "name": "setAuthorizer",
      "outputs": [],
      "stateMutability": "nonpayable",
      "type": "function"
    },
    {
      "inputs": [
        {
          "internalType": "bool",
          "name": "paused",
          "type": "bool"
        }
      ],
      "name": "setPaused",
      "outputs": [],
      "stateMutability": "nonpayable",
      "type": "function"
    },
    {
      "inputs": [
        {
          "internalType": "address",
          "name": "sender",
          "type": "address"
        },
        {
          "internalType": "address",
          "name": "relayer",
          "type": "address"
        },
        {
          "internalType": "bool",
          "name": "approved",
          "type": "bool"
        }
      ],
      "name": "setRelayerApproval",
      "outputs": [],
      "stateMutability": "nonpayable",
      "type": "function"
    },
    {
      "inputs": [
        {
          "components": [
            {
              "internalType": "bytes32",
              "name": "poolId",
              "type": "bytes32"
            },
            {
              "internalType": "enum IVault.SwapKind",
              "name": "kind",
              "type": "uint8"
            },
            {
              "internalType": "contract IAsset",
              "name": "assetIn",
              "type": "address"
            },
            {
              "internalType": "contract IAsset",
              "name": "assetOut",
              "type": "address"
            },
            {
              "internalType": "uint256",
              "name": "amount",
              "type": "uint256"
            },
            {
              "internalType": "bytes",
              "name": "userData",
              "type": "bytes"
            }
          ],
          "internalType": "struct IVault.SingleSwap",
          "name": "singleSwap",
          "type": "tuple"
        },
        {
          "components": [
            {
              "internalType": "address",
              "name": "sender",
              "type": "address"
            },
            {
              "internalType": "bool",
              "name": "fromInternalBalance",
              "type": "bool"
            },
            {
              "internalType": "address payable",
              "name": "recipient",
              "type": "address"
            },
            {
              "internalType": "bool",
              "name": "toInternalBalance",
              "type": "bool"
            }
          ],
          "internalType": "struct IVault.FundManagement",
          "name": "funds",
          "type": "tuple"
        },
        {
          "internalType": "uint256",
          "name": "limit",
          "type": "uint256"
        },
        {
          "internalType": "uint256",
          "name": "deadline",
          "type": "uint256"
        }
      ],
      "name": "swap",
      "outputs": [
        {
          "internalType": "uint256",
          "name": "amountCalculated",
          "type": "uint256"
        }
      ],
      "stateMutability": "payable",
      "type": "function"
    },
    {
      "stateMutability": "payable",
      "type": "receive"
    }
  ],
  "bytecode": "0x6101806040523480156200001257600080fd5b5060405162006e6a38038062006e6a83398101604081905262000035916200030b565b8382826040518060400160405280601181526020017010985b185b98d95c88158c8815985d5b1d607a1b81525080604051806040016040528060018152602001603160f81b815250306001600160a01b031660001b89806001600160a01b03166080816001600160a01b031660601b815250505030604051620000b890620002fd565b620000c49190620003a6565b604051809103906000f080158015620000e1573d6000803e3d6000fd5b5060601b6001600160601b03191660a052600160005560c052815160209283012060e052805191012061010052507f8b73c3c69bb8fe3d512ecc4cf759cc79239f7b179b0ffacaa9a75d522b39400f61012052620001486276a70083111561019462000239565b6200015c62278d0082111561019562000239565b42909101610140819052016101605262000176816200024e565b5060408051600180825281830190925260609160208083019080368337019050509050600081600081518110620001a957fe5b6001600160a01b0390921660209283029190910190910152604051630809469f60e11b8152730888000000000000000000000000000000000001906310128d3e90620001fa90849060040162000357565b600060405180830381600087803b1580156200021557600080fd5b505af11580156200022a573d6000803e3d6000fd5b505050505050505050620003d3565b816200024a576200024a81620002aa565b5050565b6040516001600160a01b038216907f94b979b6831a51293e2641426f97747feed46f17779fed9cd18d1ecefcfe92ef90600090a2600380546001600160a01b0390921661010002610100600160a81b0319909216919091179055565b62461bcd60e51b6000908152602060045260076024526642414c23000030600a808404818106603090810160081b95839006959095019082900491820690940160101b939093010160c81b604452606490fd5b610b5c806200630e83390190565b6000806000806080858703121562000321578384fd5b84516200032e81620003ba565b60208601519094506200034181620003ba565b6040860151606090960151949790965092505050565b6020808252825182820181905260009190848201906040850190845b818110156200039a5783516001600160a01b03168352928401929184019160010162000373565b50909695505050505050565b6001600160a01b0391909116815260200190565b6001600160a01b0381168114620003d057600080fd5b50565b60805160601c60a05160601c60c05160e05161010051610120516101405161016051615ed76200043760003980611acc525080611aa85250806128685250806128aa5250806128895250806111195250806113cd5250806105485250615ed76000f3fe6080604052600436106101b05760003560e01c806390193b7c116100ec578063e6c460921161008a578063f84d066e11610064578063f84d066e146104aa578063f94d4668146104ca578063fa6e671d146104f9578063fec90d7214610519576101de565b8063e6c4609214610447578063ed24911d14610467578063f6c009271461047c576101de565b8063ad5c4648116100c6578063ad5c4648146103da578063b05f8e48146103ef578063b95cac281461041f578063d2946c2b14610432576101de565b806390193b7c14610392578063945bcec9146103b2578063aaabadc5146103c5576101de565b80631d073a7a1161015957806366a9c7d21161013357806366a9c7d2146103125780637d3aeb9614610332578063851c1bb3146103525780638bdb391314610372576101de565b80631d073a7a146102bd57806352bbbe29146102df5780635c38449e146102f2576101de565b80630f5a6efa1161018a5780630f5a6efa1461024c57806316c38b3c146102795780631c0de05114610299576101de565b8063058a628f146101e357806309b2760f146102035780630e8e3e8414610239576101de565b366101de576101dc6101c0610546565b6001600160a01b0316336001600160a01b03161461020661056b565b005b600080fd5b3480156101ef57600080fd5b506101dc6101fe366004615096565b61057d565b34801561020f57600080fd5b5061022361021e36600461561d565b6105a1565b6040516102309190615c57565b60405180910390f35b6101dc61024736600461525b565b610654565b34801561025857600080fd5b5061026c610267366004615134565b610790565b6040516102309190615c21565b34801561028557600080fd5b506101dc610294366004615397565b610825565b3480156102a557600080fd5b506102ae61083e565b60405161023093929190615c3f565b3480156102c957600080fd5b506102d2610867565b6040516102309190615a7c565b6102236102ed3660046157c4565b61087f565b3480156102fe57600080fd5b506101dc61030d366004615593565b610a20565b34801561031e57600080fd5b506101dc61032d36600461547e565b610e22565b34801561033e57600080fd5b506101dc61034d366004615450565b610fc1565b34801561035e57600080fd5b5061022361036d36600461556b565b611115565b34801561037e57600080fd5b506101dc61038d3660046153e7565b611167565b34801561039e57600080fd5b506102236103ad366004615096565b61117d565b61026c6103c03660046156bc565b611198565b3480156103d157600080fd5b506102d26112cc565b3480156103e657600080fd5b506102d26112e0565b3480156103fb57600080fd5b5061040f61040a366004615547565b6112ef565b6040516102309493929190615dd2565b6101dc61042d3660046153e7565b6113b2565b34801561043e57600080fd5b506102d26113cb565b34801561045357600080fd5b506101dc610462366004615181565b6113ef565b34801561047357600080fd5b5061022361150b565b34801561048857600080fd5b5061049c6104973660046153cf565b611515565b604051610230929190615ab4565b3480156104b657600080fd5b5061026c6104c5366004615639565b61153f565b3480156104d657600080fd5b506104ea6104e53660046153cf565b611623565b60405161023093929190615beb565b34801561050557600080fd5b506101dc6105143660046150ea565b611657565b34801561052557600080fd5b506105396105343660046150b2565b6116e9565b6040516102309190615c34565b7f00000000000000000000000000000000000000000000000000000000000000005b90565b8161057957610579816116fe565b5050565b610585611751565b61058d61176a565b61059681611798565b61059e611801565b50565b60006105ab611751565b6105b3611808565b60006105c2338460065461181d565b6000818152600560205260409020549091506105e49060ff16156101f461056b565b60008181526005602052604090819020805460ff1916600190811790915560068054909101905551339082907f3c13bc30b8e878c53fd2a36b679409c073afd75950be43d8858768e956fbc20e9061063d908790615d53565b60405180910390a3905061064f611801565b919050565b61065c611751565b6000806000805b845181101561077b5760008060008060006106918a878151811061068357fe5b60200260200101518961185c565b9c5093985091965094509250905060018560038111156106ad57fe5b14156106c4576106bf848383866118d4565b61076a565b866106d6576106d1611808565b600196505b60008560038111156106e457fe5b1415610715576106f6848383866118f7565b6106ff84611917565b156106bf5761070e8984611924565b985061076a565b61072a61072185611917565b1561020761056b565b600061073585610568565b9050600286600381111561074557fe5b141561075c5761075781848487611936565b610768565b6107688184848761194f565b505b505060019093019250610663915050565b50610785836119bd565b50505061059e611801565b606081516001600160401b03811180156107a957600080fd5b506040519080825280602002602001820160405280156107d3578160200160208202803683370190505b50905060005b825181101561081e576107ff848483815181106107f257fe5b60200260200101516119e0565b82828151811061080b57fe5b60209081029190910101526001016107d9565b5092915050565b61082d611751565b61083561176a565b61059681611a0b565b600080600061084b611a89565b159250610856611aa6565b9150610860611aca565b9050909192565b73088800000000000000000000000000000000000181565b6000610889611751565b610891611808565b835161089c81611aee565b6108ab834211156101fc61056b565b6108be60008760800151116101fe61056b565b60006108cd8760400151611b20565b905060006108de8860600151611b20565b9050610901816001600160a01b0316836001600160a01b031614156101fd61056b565b610909614c23565b8851608082015260208901518190600181111561092257fe5b9081600181111561092f57fe5b9052506001600160a01b03808416602083015282811660408084019190915260808b0151606084015260a08b01516101008401528951821660c08401528901511660e082015260008061098183611b45565b919850925090506109b860008c60200151600181111561099d57fe5b146109ab57898311156109b0565b898210155b6101fb61056b565b6109d08b60400151838c600001518d60200151611c39565b6109e88b60600151828c604001518d60600151611d17565b610a0a6109f88c60400151611917565b610a03576000610a05565b825b6119bd565b505050505050610a18611801565b949350505050565b610a28611751565b610a30611808565b610a3c83518351611df1565b606083516001600160401b0381118015610a5557600080fd5b50604051908082528060200260200182016040528015610a7f578160200160208202803683370190505b509050606084516001600160401b0381118015610a9b57600080fd5b50604051908082528060200260200182016040528015610ac5578160200160208202803683370190505b5090506000805b8651811015610c3e576000878281518110610ae357fe5b602002602001015190506000878381518110610afb57fe5b60200260200101519050610b46846001600160a01b0316836001600160a01b03161160006001600160a01b0316846001600160a01b031614610b3e576066610b41565b60685b61056b565b819350816001600160a01b03166370a08231306040518263ffffffff1660e01b8152600401610b759190615a7c565b60206040518083038186803b158015610b8d57600080fd5b505afa158015610ba1573d6000803e3d6000fd5b505050506040513d601f19601f82011682018060405250810190610bc5919061589c565b858481518110610bd157fe5b602002602001018181525050610be681611dfe565b868481518110610bf257fe5b602002602001018181525050610c2081868581518110610c0e57fe5b6020026020010151101561021061056b565b610c346001600160a01b0383168b83611e85565b5050600101610acc565b5060405163f04f270760e01b81526001600160a01b0388169063f04f270790610c71908990899088908a90600401615b9e565b600060405180830381600087803b158015610c8b57600080fd5b505af1158015610c9f573d6000803e3d6000fd5b5050505060005b8651811015610e10576000878281518110610cbd57fe5b602002602001015190506000848381518110610cd557fe5b602002602001015190506000826001600160a01b03166370a08231306040518263ffffffff1660e01b8152600401610d0d9190615a7c565b60206040518083038186803b158015610d2557600080fd5b505afa158015610d39573d6000803e3d6000fd5b505050506040513d601f19601f82011682018060405250810190610d5d919061589c565b9050610d6e8282101561020361056b565b60008282039050610d97888681518110610d8457fe5b602002602001015182101561025a61056b565b610da18482611edb565b836001600160a01b03168c6001600160a01b03167f0d7d75e01ab95780d3cd1c8ec0dd6c2ce19e3a20427eec8bf53283b6fb8e95f08c8881518110610de257fe5b602002602001015184604051610df9929190615d66565b60405180910390a350505050806001019050610ca6565b50505050610e1c611801565b50505050565b610e2a611751565b610e32611808565b82610e3c81611efd565b610e4883518351611df1565b60005b8351811015610ee6576000848281518110610e6257fe5b60200260200101519050610e8e60006001600160a01b0316826001600160a01b0316141561013561056b565b838281518110610e9a57fe5b6020908102919091018101516000888152600a835260408082206001600160a01b0395861683529093529190912080546001600160a01b03191692909116919091179055600101610e4b565b506000610ef285611f2e565b90506002816002811115610f0257fe5b1415610f5057610f18845160021461020c61056b565b610f4b8585600081518110610f2957fe5b602002602001015186600181518110610f3e57fe5b6020026020010151611f48565b610f78565b6001816002811115610f5e57fe5b1415610f6e57610f4b8585611ff4565b610f78858561204c565b847ff5847d3f2197b16cdcd2098ec95d0905cd1abdaf415f07bb7cef2bba8ac5dec48585604051610faa929190615b06565b60405180910390a25050610fbc611801565b505050565b610fc9611751565b610fd1611808565b81610fdb81611efd565b6000610fe684611f2e565b90506002816002811115610ff657fe5b14156110445761100c835160021461020c61056b565b61103f848460008151811061101d57fe5b60200260200101518560018151811061103257fe5b60200260200101516120a1565b61106c565b600181600281111561105257fe5b14156110625761103f848461210f565b61106c84846121c9565b60005b83518110156110d257600a6000868152602001908152602001600020600085838151811061109957fe5b6020908102919091018101516001600160a01b0316825281019190915260400160002080546001600160a01b031916905560010161106f565b50837f7dcdc6d02ef40c7c1a7046a011b058bd7f988fa14e20a66344f9d4e60657d610846040516111039190615af3565b60405180910390a25050610579611801565b60007f00000000000000000000000000000000000000000000000000000000000000008260405160200161114a9291906159f6565b604051602081830303815290604052805190602001209050919050565b610e1c60018585856111788661222c565b612238565b6001600160a01b031660009081526002602052604090205490565b60606111a2611751565b6111aa611808565b83516111b581611aee565b6111c4834211156101fc61056b565b6111d086518551611df1565b6111dc8787878b6123be565b91506000805b87518110156112ae5760008882815181106111f957fe5b60200260200101519050600085838151811061121157fe5b6020026020010151905061123d88848151811061122a57fe5b60200260200101518213156101fb61056b565b600081131561127d57885160208a0151829161125c9185918491611c39565b61126583611917565b15611277576112748582611924565b94505b506112a4565b60008112156112a45760008160000390506112a283828c604001518d60600151611d17565b505b50506001016111e2565b506112b8816119bd565b50506112c2611801565b9695505050505050565b60035461010090046001600160a01b031690565b60006112ea610546565b905090565b600080600080856112ff8161264c565b60008061130b89611f2e565b9050600281600281111561131b57fe5b14156113325761132b898961266a565b915061135d565b600181600281111561134057fe5b14156113505761132b89896126e4565b61135a8989612752565b91505b6113668261276a565b96506113718261277d565b955061137c82612793565b6000998a52600a60209081526040808c206001600160a01b039b8c168d5290915290992054969995989796909616955050505050565b6113ba611808565b610e1c60008585856111788661222c565b7f000000000000000000000000000000000000000000000000000000000000000090565b6113f7611751565b6113ff611808565b611407614c73565b60005b82518110156115015782818151811061141f57fe5b6020026020010151915060008260200151905061143b8161264c565b604083015161145561144d8383612799565b61020961056b565b6000828152600a602090815260408083206001600160a01b038581168552925290912054611488911633146101f661056b565b8351606085015160008061149e848787866127f5565b91509150846001600160a01b0316336001600160a01b0316877f6edcaf6241105b4c94c2efdbf3a6b12458eb3d07be3a0e81d24b13c44045fe7a85856040516114e8929190615d66565b60405180910390a450505050505080600101905061140a565b505061059e611801565b60006112ea612864565b600080826115228161264c565b61152b84612901565b61153485611f2e565b925092505b50915091565b60603330146115f9576000306001600160a01b0316600036604051611565929190615a0e565b6000604051808303816000865af19150503d80600081146115a2576040519150601f19603f3d011682016040523d82523d6000602084013e6115a7565b606091505b5050905080600081146115b657fe5b60046000803e6000516001600160e01b031916637d30e60960e11b81146115e1573d6000803e3d6000fd5b50602060005260043d0380600460203e602081016000f35b6060611607858585896123be565b9050602081510263fa61cc126020830352600482036024820181fd5b6060806000836116328161264c565b606061163d86612907565b909550905061164b81612969565b95979096509350505050565b61165f611751565b611667611808565b8261167181611aee565b6001600160a01b0384811660008181526004602090815260408083209488168084529490915290819020805460ff1916861515179055519091907f46961fdb4502b646d5095fba7600486a8ac05041d55cdf0f16ed677180b5cad8906116d8908690615c34565b60405180910390a350610fbc611801565b60006116f58383612a17565b90505b92915050565b62461bcd60e51b6000908152602060045260076024526642414c23000030600a808404818106603090810160081b95839006959095019082900491820690940160101b939093010160c81b604452606490fd5b6117636002600054141561019061056b565b6002600055565b60006117816000356001600160e01b031916611115565b905061059e6117908233612a45565b61019161056b565b6040516001600160a01b038216907f94b979b6831a51293e2641426f97747feed46f17779fed9cd18d1ecefcfe92ef90600090a2600380546001600160a01b039092166101000274ffffffffffffffffffffffffffffffffffffffff0019909216919091179055565b6001600055565b61181b611813611a89565b61019261056b565b565b600069ffffffffffffffffffff8216605084600281111561183a57fe5b901b17606085901b6bffffffffffffffffffffffff19161790505b9392505050565b600080600080600080600088606001519050336001600160a01b0316816001600160a01b0316146118ae57876118995761189461176a565b600197505b6118ae6118a68233612a17565b6101f761056b565b885160208a015160408b01516080909b0151919b909a9992985090965090945092505050565b6118e9836118e186611b20565b836000612acf565b50610e1c8482846000611d17565b61190a8261190486611b20565b83612b25565b610e1c8482856000611c39565b6001600160a01b03161590565b60008282016116f5848210158361056b565b6119438385836000612acf565b50610e1c828583612b25565b8015610e1c5761196a6001600160a01b038516848484612b55565b826001600160a01b0316846001600160a01b03167f540a1a3f28340caec336c81d8d7b3df139ee5cdc1839a4f283d7ebb7eaae2d5c84846040516119af929190615ada565b60405180910390a350505050565b6119cc8134101561020461056b565b348190038015610579576105793382612b76565b6001600160a01b039182166000908152600b6020908152604080832093909416825291909152205490565b8015611a2b57611a26611a1c611aa6565b421061019361056b565b611a40565b611a40611a36611aca565b42106101a961056b565b6003805460ff19168215151790556040517f9e3a5e37224532dea67b89face185703738a228a6e8a23dee546960180d3be6490611a7e908390615c34565b60405180910390a150565b6000611a93611aca565b4211806112ea57505060035460ff161590565b7f000000000000000000000000000000000000000000000000000000000000000090565b7f000000000000000000000000000000000000000000000000000000000000000090565b336001600160a01b0382161461059e57611b0661176a565b611b108133612a17565b61059e5761059e816101f7612bf0565b6000611b2b82611917565b611b3d57611b3882610568565b6116f8565b6116f8610546565b600080600080611b588560800151612901565b90506000611b698660800151611f2e565b90506002816002811115611b7957fe5b1415611b9057611b898683612c24565b9450611bbb565b6001816002811115611b9e57fe5b1415611bae57611b898683612cd4565b611bb88683612d67565b94505b611bce8660000151876060015187612f8b565b809450819550505085604001516001600160a01b031686602001516001600160a01b031687608001517f2170c741c41531aec20e7c107c24eecfdd15e69c9bb0a8dd37b1840b9e0b207b8787604051611c28929190615d66565b60405180910390a450509193909250565b82611c4357610e1c565b611c4c84611917565b15611ccd57611c5e811561020261056b565b611c6d8347101561020461056b565b611c75610546565b6001600160a01b031663d0e30db0846040518263ffffffff1660e01b81526004016000604051808303818588803b158015611caf57600080fd5b505af1158015611cc3573d6000803e3d6000fd5b5050505050610e1c565b6000611cd885610568565b90508115611cf5576000611cef8483876001612acf565b90940393505b8315611d1057611d106001600160a01b038216843087612b55565b5050505050565b82611d2157610e1c565b611d2a84611917565b15611dba57611d3c811561020261056b565b611d44610546565b6001600160a01b0316632e1a7d4d846040518263ffffffff1660e01b8152600401611d6f9190615c57565b600060405180830381600087803b158015611d8957600080fd5b505af1158015611d9d573d6000803e3d6000fd5b50611db5925050506001600160a01b03831684612b76565b610e1c565b6000611dc585610568565b90508115611ddd57611dd8838286612b25565b611d10565b611d106001600160a01b0382168486611e85565b610579818314606761056b565b600080611e096113cb565b6001600160a01b031663d877845c6040518163ffffffff1660e01b815260040160206040518083038186803b158015611e4157600080fd5b505afa158015611e55573d6000803e3d6000fd5b505050506040513d601f19601f82011682018060405250810190611e79919061589c565b90506118558382612fb9565b610fbc8363a9059cbb60e01b8484604051602401611ea4929190615ada565b60408051601f198184030181529190526020810180516001600160e01b03166001600160e01b031990931692909217909152613006565b801561057957610579611eec6113cb565b6001600160a01b0384169083611e85565b611f068161264c565b61059e611f1282612901565b6001600160a01b0316336001600160a01b0316146101f561056b565b600061ffff605083901c166116f8600382106101f461056b565b611f69816001600160a01b0316836001600160a01b0316141561020a61056b565b611f88816001600160a01b0316836001600160a01b031610606661056b565b60008381526009602052604090208054611fc5906001600160a01b0316158015611fbd575060018201546001600160a01b0316155b61020b61056b565b80546001600160a01b039384166001600160a01b03199182161782556001909101805492909316911617905550565b6000828152600860205260408120905b8251811015610e1c57600061203584838151811061201e57fe5b6020026020010151846130a690919063ffffffff16565b90506120438161020a61056b565b50600101612004565b6000828152600160205260408120905b8251811015610e1c57600061208a84838151811061207657fe5b602090810291909101015184906000613109565b90506120988161020a61056b565b5060010161205c565b60008060006120b18686866131b6565b9250925092506120db6120c38461327d565b80156120d357506120d38361327d565b61020d61056b565b600095865260096020526040862080546001600160a01b031990811682556001909101805490911690559490945550505050565b6000828152600860205260408120905b8251811015610e1c57600083828151811061213657fe5b602002602001015190506121826120d3600760008881526020019081526020016000206000846001600160a01b03166001600160a01b031681526020019081526020016000205461327d565b60008581526007602090815260408083206001600160a01b038516845290915281208190556121b1848361328a565b90506121bf8161020961056b565b505060010161211f565b6000828152600160205260408120905b8251811015610e1c5760008382815181106121f057fe5b6020026020010151905060006122068483613391565b90506122146120d38261327d565b61221e84836133a0565b5050508060010190506121d9565b612234614c9c565b5090565b612240611751565b8361224a8161264c565b8361225481611aee565b612268836000015151846020015151611df1565b60606122778460000151613442565b9050606061228588836134d0565b9050606080606061229a8c8c8c8c8c89613561565b92509250925060006122ab8c611f2e565b905060028160028111156122bb57fe5b14156123235761231e8c876000815181106122d257fe5b6020026020010151866000815181106122e757fe5b6020026020010151896001815181106122fc57fe5b60200260200101518860018151811061231157fe5b6020026020010151613726565b61234c565b600181600281111561233157fe5b14156123425761231e8c8786613765565b61234c8c856137d2565b6000808e600181111561235b57fe5b1490508b6001600160a01b03168d7fe5ce249087ce04f05a957192435400fd97868dba0e6a4b4c049abf8af80dae7889612395888661381b565b876040516123a593929190615b65565b60405180910390a3505050505050505050611d10611801565b606083516001600160401b03811180156123d757600080fd5b50604051908082528060200260200182016040528015612401578160200160208202803683370190505b50905061240c614cc6565b612414614c23565b60008060005b895181101561263f5789818151811061242f57fe5b60200260200101519450600089518660200151108015612453575089518660400151105b905061246081606461056b565b60006124828b88602001518151811061247557fe5b6020026020010151611b20565b905060006124998c89604001518151811061247557fe5b90506124bc816001600160a01b0316836001600160a01b031614156101fd61056b565b606088015161250c576124d4600085116101fe61056b565b60006124e18b84846138c2565b6001600160a01b0316876001600160a01b0316149050612503816101ff61056b565b50606088018590525b87516080880152868a600181111561252057fe5b9081600181111561252d57fe5b9052506001600160a01b0380831660208901528181166040808a01919091526060808b0151908a015260808a01516101008a01528c51821660c08a01528c01511660e088015260008061257f89611b45565b919850925090506125918c85856138e4565b97506125c561259f836138fe565b8c8c60200151815181106125af57fe5b602002602001015161391290919063ffffffff16565b8b8b60200151815181106125d557fe5b6020026020010181815250506126136125ed826138fe565b8c8c60400151815181106125fd57fe5b602002602001015161394690919063ffffffff16565b8b8b604001518151811061262357fe5b602002602001018181525050505050505080600101905061241a565b5050505050949350505050565b60008181526005602052604090205461059e9060ff166101f461056b565b600080600080600061267b8761397a565b945094509450945050836001600160a01b0316866001600160a01b031614156126aa57829450505050506116f8565b816001600160a01b0316866001600160a01b031614156126cf5793506116f892505050565b6126da6102096116fe565b5050505092915050565b60008281526007602090815260408083206001600160a01b038516845290915281205481612711826139f0565b8061272f5750600085815260086020526040902061272f9085613a02565b90508061274a5761273f8561264c565b61274a6102096116fe565b509392505050565b6000828152600160205260408120610a188184613391565b6dffffffffffffffffffffffffffff1690565b60701c6dffffffffffffffffffffffffffff1690565b60e01c90565b6000806127a584611f2e565b905060028160028111156127b557fe5b14156127cd576127c58484613a23565b9150506116f8565b60018160028111156127db57fe5b14156127eb576127c58484613a74565b6127c58484613a8c565b600080600061280386611f2e565b9050600087600281111561281357fe5b141561282f5761282586828787613aa4565b925092505061285b565b600187600281111561283d57fe5b141561284f5761282586828787613b1f565b61282586828787613b9b565b94509492505050565b60007f00000000000000000000000000000000000000000000000000000000000000007f00000000000000000000000000000000000000000000000000000000000000007f00000000000000000000000000000000000000000000000000000000000000006128d1613bfe565b306040516020016128e6959493929190615d09565b60405160208183030381529060405280519060200120905090565b60601c90565b606080600061291584611f2e565b9050600281600281111561292557fe5b141561293e5761293484613c02565b9250925050612964565b600181600281111561294c57fe5b141561295b5761293484613d37565b61293484613e5c565b915091565b6060600082516001600160401b038111801561298457600080fd5b506040519080825280602002602001820160405280156129ae578160200160208202803683370190505b5091506000905060005b82518110156115395760008482815181106129cf57fe5b602002602001015190506129e281613f56565b8483815181106129ee57fe5b602002602001018181525050612a0c83612a0783612793565b613f71565b9250506001016129b8565b6001600160a01b03918216600090815260046020908152604080832093909416825291909152205460ff1690565b6003546040516326f8aa2160e21b815260009161010090046001600160a01b031690639be2a88490612a7f90869086903090600401615c60565b60206040518083038186803b158015612a9757600080fd5b505afa158015612aab573d6000803e3d6000fd5b505050506040513d601f19601f820116820180604052508101906116f591906153b3565b600080612adc86866119e0565b9050612af58380612aed5750848210155b61020161056b565b612aff8185613f88565b9150818103612b1b878783612b13876138fe565b600003613f97565b5050949350505050565b6000612b3184846119e0565b90506000612b3f8284611924565b9050611d10858583612b50876138fe565b613f97565b610e1c846323b872dd60e01b858585604051602401611ea493929190615a90565b612b85814710156101a361056b565b6000826001600160a01b031682604051612b9e90610568565b60006040518083038185875af1925050503d8060008114612bdb576040519150601f19603f3d011682016040523d82523d6000602084013e612be0565b606091505b50509050610fbc816101a461056b565b6001600160a01b0382166000908152600260205260409020805460018101909155610fbc612c1e8483613ff2565b8361056b565b600080600080612c418660800151876020015188604001516131b6565b92509250925060008087604001516001600160a01b031688602001516001600160a01b03161015612c76575083905082612c7c565b50829050835b612c8888888484614118565b60408b015160208c01519199509294509092506001600160a01b03918216911610612cbc57612cb78183614215565b612cc6565b612cc68282614215565b909255509295945050505050565b600080612ce9846080015185602001516126e4565b90506000612cff856080015186604001516126e4565b9050612d0d85858484614118565b6080880180516000908152600760208181526040808420828e01516001600160a01b03908116865290835281852098909855935183529081528282209a830151909516815298909352919096209590955550929392505050565b60808201516000908152600160209081526040822090840151829182918290612d91908390614250565b90506000612dac88604001518461425090919063ffffffff16565b9050811580612db9575080155b15612dd657612dcb886080015161264c565b612dd66102096116fe565b60001991820191016000612de98461426f565b90506060816001600160401b0381118015612e0357600080fd5b50604051908082528060200260200182016040528015612e2d578160200160208202803683370190505b50600060a08c018190529091505b82811015612ead576000612e4f8783614273565b9050612e5a81613f56565b838381518110612e6657fe5b602002602001018181525050612e838c60a00151612a0783612793565b60a08d015281861415612e9857809850612ea4565b84821415612ea4578097505b50600101612e3b565b5060405162f64aa560e11b81526001600160a01b038a16906301ec954a90612edf908d90859089908990600401615d74565b602060405180830381600087803b158015612ef957600080fd5b505af1158015612f0d573d6000803e3d6000fd5b505050506040513d601f19601f82011682018060405250810190612f31919061589c565b9750600080612f498c600001518d606001518c612f8b565b9092509050612f588983614289565b9850612f6488826142ba565b9750612f7187878b6142d0565b612f7c87868a6142d0565b50505050505050505092915050565b60008080856001811115612f9b57fe5b1415612fab575082905081612fb1565b50819050825b935093915050565b6000828202612fdd841580612fd6575083858381612fd357fe5b04145b600361056b565b80612fec5760009150506116f8565b670de0b6b3a76400006000198201046001019150506116f8565b60006060836001600160a01b0316836040516130229190615a1e565b6000604051808303816000865af19150503d806000811461305f576040519150601f19603f3d011682016040523d82523d6000602084013e613064565b606091505b5091509150600082141561307c573d6000803e3d6000fd5b610e1c81516000148061309e57508180602001905181019061309e91906153b3565b6101a261056b565b60006130b28383613a02565b61310157508154600180820184556000848152602080822090930180546001600160a01b0319166001600160a01b038616908117909155855490825282860190935260409020919091556116f8565b5060006116f8565b6001600160a01b03821660009081526002840160205260408120548061319657505082546040805180820182526001600160a01b03858116808352602080840187815260008781526001808c018452878220965187546001600160a01b03191696169590951786559051948401949094559482018089559083526002880190945291902091909155611855565b600019016000908152600180860160205260408220018390559050611855565b60008060008060006131c887876142e8565b9150915060006131d88383614319565b60008a81526009602090815260408083208484526002019091528120805460018201549197509293509061320b836139f0565b8061321a575061321a826139f0565b8061323b575061322a8c87613a23565b801561323b575061323b8c86613a23565b9050806132565761324b8c61264c565b6132566102096116fe565b613260838361434c565b985061326c8383614371565b975050505050505093509350939050565b6001600160e01b03161590565b6001600160a01b0381166000908152600183016020526040812054801561338757835460001980830191908101906000908790839081106132c757fe5b60009182526020909120015487546001600160a01b03909116915081908890859081106132f057fe5b600091825260208083209190910180546001600160a01b0319166001600160a01b0394851617905591831681526001898101909252604090209084019055865487908061333957fe5b60008281526020808220830160001990810180546001600160a01b03191690559092019092556001600160a01b03881682526001898101909152604082209190915594506116f89350505050565b60009150506116f8565b60006116f58383610209614388565b6001600160a01b0381166000908152600283016020526040812054801561338757835460001990810160008181526001878101602090815260408084209587018452808420865481546001600160a01b03199081166001600160a01b0392831617835588860180549387019390935588548216875260028d018086528488209a909a5588541690975584905593895593871682529390925281205590506116f8565b60608082516001600160401b038111801561345c57600080fd5b50604051908082528060200260200182016040528015613486578160200160208202803683370190505b50905060005b835181101561081e576134a484828151811061247557fe5b8282815181106134b057fe5b6001600160a01b039092166020928302919091019091015260010161348c565b60608060606134de85612907565b915091506134ee82518551611df1565b6134fe600083511161020f61056b565b60005b82518110156135585761355085828151811061351957fe5b60200260200101516001600160a01b031684838151811061353657fe5b60200260200101516001600160a01b03161461020861056b565b600101613501565b50949350505050565b606080606080600061357286612969565b9150915060006135818b612901565b905060008c600181111561359157fe5b1461363457806001600160a01b03166374f3b0098c8c8c87876135b26143c5565b8f604001516040518863ffffffff1660e01b81526004016135d99796959493929190615c7f565b600060405180830381600087803b1580156135f357600080fd5b505af1158015613607573d6000803e3d6000fd5b505050506040513d6000823e601f3d908101601f1916820160405261362f9190810190615341565b6136cd565b806001600160a01b031663d5c096c48c8c8c87876136506143c5565b8f604001516040518863ffffffff1660e01b81526004016136779796959493929190615c7f565b600060405180830381600087803b15801561369157600080fd5b505af11580156136a5573d6000803e3d6000fd5b505050506040513d6000823e601f3d908101601f191682016040526136cd9190810190615341565b80955081965050506136e387518651865161443f565b60008c60018111156136f157fe5b14613708576137038989898888614457565b613715565b6137158a8989888861459d565b955050505096509650969350505050565b60006137328584614319565b6000878152600960209081526040808320848452600201909152902090915061375b8584614215565b9055505050505050565b60005b8251811015610e1c5781818151811061377d57fe5b60200260200101516007600086815260200190815260200160002060008584815181106137a657fe5b6020908102919091018101516001600160a01b0316825281019190915260400160002055600101613768565b6000828152600160205260408120905b8251811015610e1c57613813818483815181106137fb57fe5b6020026020010151846142d09092919063ffffffff16565b6001016137e2565b606082516001600160401b038111801561383457600080fd5b5060405190808252806020026020018201604052801561385e578160200160208202803683370190505b50905060005b835181101561081e578261388e5783818151811061387e57fe5b60200260200101516000036138a3565b83818151811061389a57fe5b60200260200101515b8282815181106138af57fe5b6020908102919091010152600101613864565b6000808460018111156138d157fe5b146138dc5781610a18565b509092915050565b6000808460018111156138f357fe5b1461081e5782610a18565b6000612234600160ff1b83106101a561056b565b60008282016116f582841280159061392a5750848212155b8061393f575060008412801561393f57508482125b600061056b565b60008183036116f582841280159061395e5750848213155b80613973575060008412801561397357508482135b600161056b565b6000818152600960205260408120805460018201546001600160a01b03918216928492909116908290816139ae8685614319565b60008181526002840160205260409020805460018201549199509192506139d5828261434c565b96506139e18282614371565b94505050505091939590929450565b60006139fb8261327d565b1592915050565b6001600160a01b031660009081526001919091016020526040902054151590565b600082815260096020526040812080546001600160a01b0384811691161480613a5b575060018101546001600160a01b038481169116145b8015610a18575050506001600160a01b03161515919050565b6000828152600860205260408120610a188184613a02565b6000828152600160205260408120610a188184614712565b6000806002856002811115613ab557fe5b1415613acb57613ac6868585614733565b613af5565b6001856002811115613ad957fe5b1415613aea57613ac6868585614741565b613af586858561474f565b8215613b0f57613b0f6001600160a01b0385163385611e85565b5050600081900394909350915050565b6000806002856002811115613b3057fe5b1415613b4657613b4186858561475d565b613b70565b6001856002811115613b5457fe5b1415613b6557613b4186858561476b565b613b70868585614779565b8215613b8b57613b8b6001600160a01b038516333086612b55565b5090946000869003945092505050565b6000806002856002811115613bac57fe5b1415613bc457613bbd868585614787565b9050613bf1565b6001856002811115613bd257fe5b1415613be357613bbd868585614797565b613bee8685856147a7565b90505b6000915094509492505050565b4690565b606080600080600080613c148761397a565b92975090955093509150506001600160a01b0384161580613c3c57506001600160a01b038216155b15613c655750506040805160008082526020820190815281830190925294509250612964915050565b60408051600280825260608201835290916020830190803683370190505095508386600081518110613c9357fe5b60200260200101906001600160a01b031690816001600160a01b0316815250508186600181518110613cc157fe5b6001600160a01b03929092166020928302919091018201526040805160028082526060820183529092909190830190803683370190505094508285600081518110613d0857fe5b6020026020010181815250508085600181518110613d2257fe5b60200260200101818152505050505050915091565b60008181526008602052604090206060908190613d538161426f565b6001600160401b0381118015613d6857600080fd5b50604051908082528060200260200182016040528015613d92578160200160208202803683370190505b50925082516001600160401b0381118015613dac57600080fd5b50604051908082528060200260200182016040528015613dd6578160200160208202803683370190505b50915060005b8351811015613e55576000613df183836147b7565b905080858381518110613e0057fe5b6001600160a01b03928316602091820292909201810191909152600088815260078252604080822093851682529290915220548451859084908110613e4157fe5b602090810291909101015250600101613ddc565b5050915091565b60008181526001602052604090206060908190613e788161426f565b6001600160401b0381118015613e8d57600080fd5b50604051908082528060200260200182016040528015613eb7578160200160208202803683370190505b50925082516001600160401b0381118015613ed157600080fd5b50604051908082528060200260200182016040528015613efb578160200160208202803683370190505b50915060005b8351811015613e5557613f1482826147e4565b858381518110613f2057fe5b60200260200101858481518110613f3357fe5b60209081029190910101919091526001600160a01b039091169052600101613f01565b6000613f618261277d565b613f6a8361276a565b0192915050565b600081831015613f8157816116f5565b5090919050565b6000818310613f8157816116f5565b6001600160a01b038085166000818152600b602090815260408083209488168084529490915290819020859055517f18e1ea4139e68413d7d08aa752e71568e36b2c5bf940893314c2c5b01eaa0c42906119af908590615c57565b600080613ffd614808565b9050428110156140115760009150506116f8565b600061401b614814565b90508061402d576000925050506116f8565b600081614038614925565b8051602091820120604051614054939233918a91899101615cdd565b604051602081830303815290604052805190602001209050600061407782614974565b90506000806000614086614990565b9250925092506000600185858585604051600081526020016040526040516140b19493929190615d35565b6020604051602081039080840390855afa1580156140d3573d6000803e3d6000fd5b5050604051601f1901519150506001600160a01b0381161580159061410957508a6001600160a01b0316816001600160a01b0316145b9b9a5050505050505050505050565b60008060008061412786613f56565b9050600061413486613f56565b905061414b61414288612793565b612a0788612793565b60a08a015260405163274b044360e21b81526001600160a01b03891690639d2c110c90614180908c9086908690600401615dad565b602060405180830381600087803b15801561419a57600080fd5b505af11580156141ae573d6000803e3d6000fd5b505050506040513d601f19601f820116820180604052508101906141d2919061589c565b92506000806141ea8b600001518c6060015187612f8b565b90925090506141f98983614289565b965061420588826142ba565b9550505050509450945094915050565b60008061422d61422485612793565b612a0785612793565b9050610a1861423b8561276a565b6142448561276a565b8363ffffffff166149b7565b6001600160a01b03166000908152600291909101602052604090205490565b5490565b6000908152600191820160205260409020015490565b60008061429f836142998661276a565b90611924565b905060006142ac8561277d565b9050436112c28383836149c5565b60008061429f836142ca8661276a565b906149fe565b60009182526001928301602052604090912090910155565b600080826001600160a01b0316846001600160a01b03161061430b57828461430e565b83835b915091509250929050565b6000828260405160200161432e929190615a3a565b60405160208183030381529060405280519060200120905092915050565b60006116f561435a8461276a565b6143638461276a565b61436c86612793565b6149c5565b60006116f561437f8461277d565b6143638461277d565b6001600160a01b03821660009081526002840160205260408120546143af8115158461056b565b6143bc8560018303614273565b95945050505050565b60006143cf6113cb565b6001600160a01b03166355c676286040518163ffffffff1660e01b815260040160206040518083038186803b15801561440757600080fd5b505afa15801561441b573d6000803e3d6000fd5b505050506040513d601f19601f820116820180604052508101906112ea919061589c565b610fbc828414801561445057508183145b606761056b565b606083516001600160401b038111801561447057600080fd5b5060405190808252806020026020018201604052801561449a578160200160208202803683370190505b50905060005b8551518110156145935760008482815181106144b857fe5b602002602001015190506144e8876020015183815181106144d557fe5b60200260200101518210156101f961056b565b6000876000015183815181106144fa57fe5b6020026020010151905061451481838b8b60600151611d17565b600085848151811061452257fe5b6020026020010151905061453e61453883611b20565b82611edb565b61456d61454b8483611924565b89868151811061455757fe5b60200260200101516142ba90919063ffffffff16565b85858151811061457957fe5b6020026020010181815250505050508060010190506144a0565b5095945050505050565b6060600084516001600160401b03811180156145b857600080fd5b506040519080825280602002602001820160405280156145e2578160200160208202803683370190505b50915060005b86515181101561470857600085828151811061460057fe5b602002602001015190506146308860200151838151811061461d57fe5b60200260200101518211156101fa61056b565b60008860000151838151811061464257fe5b6020026020010151905061465c81838c8c60600151611c39565b61466581611917565b15614677576146748483611924565b93505b600086848151811061468557fe5b6020026020010151905061469b61453883611b20565b808310156146ba576146b58382038a868151811061455757fe5b6146e2565b6146e28184038a86815181106146cc57fe5b602002602001015161428990919063ffffffff16565b8685815181106146ee57fe5b6020026020010181815250505050508060010190506145e8565b50614593816119bd565b6001600160a01b031660009081526002919091016020526040902054151590565b610e1c8383614a1484614a4f565b610e1c8383614a1484614afa565b610e1c8383614a1484614b55565b610e1c8383614ba484614a4f565b610e1c8383614ba484614afa565b610e1c8383614ba484614b55565b6000610a188484614bc585614a4f565b6000610a188484614bc585614afa565b6000610a188484614bc585614b55565b60008260000182815481106147c857fe5b6000918252602090912001546001600160a01b03169392505050565b600090815260019182016020526040902080549101546001600160a01b0390911691565b60006112ea6000614bdf565b6000803560e01c8063b95cac28811461485c57638bdb39138114614884576352bbbe2981146148ac5763945bcec981146148d45763fa6e671d81146148fc5760009250614920565b7f3f7b71252bd19113ff48c19c6e004a9bcfcca320a0d74d58e85877cbd7dcae589250614920565b7f8bbc57f66ea936902f50a71ce12b92c43f3c5340bb40c27c4e90ab84eeae33539250614920565b7fe192dcbc143b1e244ad73b813fd3c097b832ad260a157340b4e5e5beda067abe9250614920565b7f9bfc43a4d98313c6766986ffd7c916c7481566d9f224c6819af0a53388aced3a9250614920565b7fa3f865aa351e51cfeb40f5178d1564bb629fe9030b83caf6361d1baaf5b90b5a92505b505090565b60606000368080601f0160208091040260200160405190810160405280939291908181526020018383808284376000920191909152505082519293505050608010156105685760803603815290565b600061497e612864565b8260405160200161114a929190615a61565b600080600061499f6020614bdf565b92506149ab6040614bdf565b91506108606060614bdf565b60e01b60709190911b010190565b60008383016149f38582108015906149eb57506e01000000000000000000000000000082105b61020e61056b565b6143bc8585856149b7565b6000614a0e83831115600161056b565b50900390565b600080614a24836142ca8661276a565b90506000614a35846142998761277d565b90506000614a4286612793565b90506112c28383836149c5565b6000806000806000614a608961397a565b9450509350935093506000836001600160a01b0316896001600160a01b03161415614aab576000614a9584898b63ffffffff16565b9050614aa18185614be9565b9093509050614acd565b6000614abb83898b63ffffffff16565b9050614ac78184614be9565b90925090505b614ad78383614215565b8555614ae38383614c05565b600190950194909455509192505050949350505050565b600080614b0786866126e4565b90506000614b1982858763ffffffff16565b60008881526007602090815260408083206001600160a01b038b16845290915290208190559050614b4a8183614be9565b979650505050505050565b600084815260016020526040812081614b6e8287613391565b90506000614b8082868863ffffffff16565b9050614b8d838883613109565b50614b988183614be9565b98975050505050505050565b600080614bb4836142998661276a565b90506000614a35846142ca8761277d565b600080614bd18461276a565b9050436143bc8285836149c5565b3601607f19013590565b6000614bf48261277d565b614bfd8461277d565b039392505050565b60006116f5614c138461277d565b614c1c8461277d565b60006149b7565b60408051610120810190915280600081526000602082018190526040820181905260608083018290526080830182905260a0830182905260c0830182905260e08301919091526101009091015290565b604080516080810190915280600081526000602082018190526040820181905260609091015290565b60405180608001604052806060815260200160608152602001606081526020016000151581525090565b6040518060a0016040528060008019168152602001600081526020016000815260200160008152602001606081525090565b80356116f881615e71565b600082601f830112614d13578081fd5b8135614d26614d2182615e1c565b615df6565b818152915060208083019084810181840286018201871015614d4757600080fd5b60005b84811015614d6f578135614d5d81615e71565b84529282019290820190600101614d4a565b505050505092915050565b600082601f830112614d8a578081fd5b8135614d98614d2182615e1c565b818152915060208083019084810160005b84811015614d6f578135870160a080601f19838c03011215614dca57600080fd5b614dd381615df6565b8583013581526040808401358783015260608085013582840152608091508185013581840152508284013592506001600160401b03831115614e1457600080fd5b614e228c8885870101614f01565b90820152865250509282019290820190600101614da9565b600082601f830112614e4a578081fd5b8135614e58614d2182615e1c565b818152915060208083019084810181840286018201871015614e7957600080fd5b60005b84811015614d6f57813584529282019290820190600101614e7c565b600082601f830112614ea8578081fd5b8151614eb6614d2182615e1c565b818152915060208083019084810181840286018201871015614ed757600080fd5b60005b84811015614d6f57815184529282019290820190600101614eda565b80356116f881615e86565b600082601f830112614f11578081fd5b81356001600160401b03811115614f26578182fd5b614f39601f8201601f1916602001615df6565b9150808252836020828501011115614f5057600080fd5b8060208401602084013760009082016020015292915050565b80356116f881615e94565b8035600281106116f857600080fd5b8035600481106116f857600080fd5b600060808284031215614fa3578081fd5b614fad6080615df6565b905081356001600160401b0380821115614fc657600080fd5b614fd285838601614d03565b83526020840135915080821115614fe857600080fd5b614ff485838601614e3a565b6020840152604084013591508082111561500d57600080fd5b5061501a84828501614f01565b60408301525061502d8360608401614ef6565b606082015292915050565b600060808284031215615049578081fd5b6150536080615df6565b9050813561506081615e71565b8152602082013561507081615e86565b6020820152604082013561508381615e71565b6040820152606082013561502d81615e86565b6000602082840312156150a7578081fd5b81356116f581615e71565b600080604083850312156150c4578081fd5b82356150cf81615e71565b915060208301356150df81615e71565b809150509250929050565b6000806000606084860312156150fe578081fd5b833561510981615e71565b9250602084013561511981615e71565b9150604084013561512981615e86565b809150509250925092565b60008060408385031215615146578182fd5b823561515181615e71565b915060208301356001600160401b0381111561516b578182fd5b61517785828601614d03565b9150509250929050565b60006020808385031215615193578182fd5b82356001600160401b038111156151a8578283fd5b8301601f810185136151b8578283fd5b80356151c6614d2182615e1c565b818152838101908385016080808502860187018a10156151e4578788fd5b8795505b8486101561524d5780828b0312156151fe578788fd5b61520781615df6565b6152118b84614f69565b8152878301358882015260406152298c828601614cf8565b908201526060838101359082015284526001959095019492860192908101906151e8565b509098975050505050505050565b6000602080838503121561526d578182fd5b82356001600160401b03811115615282578283fd5b8301601f81018513615292578283fd5b80356152a0614d2182615e1c565b8181528381019083850160a0808502860187018a10156152be578788fd5b8795505b8486101561524d5780828b0312156152d8578788fd5b6152e181615df6565b6152eb8b84614f83565b81526152f98b898501614cf8565b818901526040838101359082015260606153158c828601614cf8565b9082015260806153278c858301614cf8565b9082015284526001959095019492860192908101906152c2565b60008060408385031215615353578182fd5b82516001600160401b0380821115615369578384fd5b61537586838701614e98565b9350602085015191508082111561538a578283fd5b5061517785828601614e98565b6000602082840312156153a8578081fd5b81356116f581615e86565b6000602082840312156153c4578081fd5b81516116f581615e86565b6000602082840312156153e0578081fd5b5035919050565b600080600080608085870312156153fc578182fd5b84359350602085013561540e81615e71565b9250604085013561541e81615e71565b915060608501356001600160401b03811115615438578182fd5b61544487828801614f92565b91505092959194509250565b60008060408385031215615462578182fd5b8235915060208301356001600160401b0381111561516b578182fd5b600080600060608486031215615492578081fd5b833592506020808501356001600160401b03808211156154b0578384fd5b6154bc88838901614d03565b945060408701359150808211156154d1578384fd5b508501601f810187136154e2578283fd5b80356154f0614d2182615e1c565b81815283810190838501858402850186018b101561550c578687fd5b8694505b8385101561553757803561552381615e71565b835260019490940193918501918501615510565b5080955050505050509250925092565b60008060408385031215615559578182fd5b8235915060208301356150df81615e71565b60006020828403121561557c578081fd5b81356001600160e01b0319811681146116f5578182fd5b600080600080608085870312156155a8578182fd5b84356155b381615e71565b935060208501356001600160401b03808211156155ce578384fd5b6155da88838901614d03565b945060408701359150808211156155ef578384fd5b6155fb88838901614e3a565b93506060870135915080821115615610578283fd5b5061544487828801614f01565b60006020828403121561562e578081fd5b81356116f581615e94565b60008060008060e0858703121561564e578182fd5b6156588686614f74565b935060208501356001600160401b0380821115615673578384fd5b61567f88838901614d7a565b94506040870135915080821115615694578384fd5b506156a187828801614d03565b9250506156b18660608701615038565b905092959194509250565b60008060008060008061012087890312156156d5578384fd5b6156df8888614f74565b95506020808801356001600160401b03808211156156fb578687fd5b6157078b838c01614d7a565b975060408a013591508082111561571c578687fd5b6157288b838c01614d03565b96506157378b60608c01615038565b955060e08a013591508082111561574c578485fd5b508801601f81018a1361575d578384fd5b803561576b614d2182615e1c565b81815283810190838501858402850186018e1015615787578788fd5b8794505b838510156157a957803583526001949094019391850191850161578b565b50809650505050505061010087013590509295509295509295565b60008060008060e085870312156157d9578182fd5b84356001600160401b03808211156157ef578384fd5b9086019060c08289031215615802578384fd5b61580c60c0615df6565b8235815261581d8960208501614f74565b6020820152604083013561583081615e71565b60408201526158428960608501614cf8565b60608201526080830135608082015260a083013582811115615862578586fd5b61586e8a828601614f01565b60a0830152508096505050506158878660208701615038565b939693955050505060a08201359160c0013590565b6000602082840312156158ad578081fd5b5051919050565b6001600160a01b03169052565b6000815180845260208085019450808401835b838110156158f95781516001600160a01b0316875295820195908201906001016158d4565b509495945050505050565b6000815180845260208085019450808401835b838110156158f957815187529582019590820190600101615917565b6000815180845261594b816020860160208601615e3b565b601f01601f19169290920160200192915050565b600061012082516002811061597057fe5b80855250602083015161598660208601826158b4565b50604083015161599960408601826158b4565b50606083015160608501526080830151608085015260a083015160a085015260c08301516159ca60c08601826158b4565b5060e08301516159dd60e08601826158b4565b506101008084015182828701526112c283870182615933565b9182526001600160e01b031916602082015260240190565b6000828483379101908152919050565b60008251615a30818460208701615e3b565b9190910192915050565b6bffffffffffffffffffffffff19606093841b811682529190921b16601482015260280190565b61190160f01b81526002810192909252602282015260420190565b6001600160a01b0391909116815260200190565b6001600160a01b039384168152919092166020820152604081019190915260600190565b6001600160a01b038316815260408101615acd83615e67565b8260208301529392505050565b6001600160a01b03929092168252602082015260400190565b6000602082526116f560208301846158c1565b600060408252615b1960408301856158c1565b828103602084810191909152845180835285820192820190845b81811015615b585784516001600160a01b031683529383019391830191600101615b33565b5090979650505050505050565b600060608252615b7860608301866158c1565b8281036020840152615b8a8186615904565b905082810360408401526112c28185615904565b600060808252615bb160808301876158c1565b8281036020840152615bc38187615904565b90508281036040840152615bd78186615904565b90508281036060840152614b4a8185615933565b600060608252615bfe60608301866158c1565b8281036020840152615c108186615904565b915050826040830152949350505050565b6000602082526116f56020830184615904565b901515815260200190565b92151583526020830191909152604082015260600190565b90815260200190565b9283526001600160a01b03918216602084015216604082015260600190565b60008882526001600160a01b03808916602084015280881660408401525060e06060830152615cb160e0830187615904565b8560808401528460a084015282810360c0840152615ccf8185615933565b9a9950505050505050505050565b94855260208501939093526001600160a01b039190911660408401526060830152608082015260a00190565b9485526020850193909352604084019190915260608301526001600160a01b0316608082015260a00190565b93845260ff9290921660208401526040830152606082015260800190565b60208101615d6083615e67565b91905290565b918252602082015260400190565b600060808252615d87608083018761595f565b8281036020840152615d998187615904565b604084019590955250506060015292915050565b600060608252615dc0606083018661595f565b60208301949094525060400152919050565b938452602084019290925260408301526001600160a01b0316606082015260800190565b6040518181016001600160401b0381118282101715615e1457600080fd5b604052919050565b60006001600160401b03821115615e31578081fd5b5060209081020190565b60005b83811015615e56578181015183820152602001615e3e565b83811115610e1c5750506000910152565b6003811061059e57fe5b6001600160a01b038116811461059e57600080fd5b801515811461059e57600080fd5b6003811061059e57600080fdfea2646970667358221220211e7a9fd98fb9f9917fbdf33420d89701755b65d117ca0baed2374e8d23365364736f6c6343000701003360c060405234801561001057600080fd5b50604051610b5c380380610b5c83398101604081905261002f9161004d565b30608052600160005560601b6001600160601b03191660a05261007b565b60006020828403121561005e578081fd5b81516001600160a01b0381168114610074578182fd5b9392505050565b60805160a05160601c610ab66100a66000398061040352806105095250806102975250610ab66000f3fe608060405234801561001057600080fd5b50600436106100935760003560e01c8063851c1bb311610066578063851c1bb3146100f1578063aaabadc514610104578063d877845c14610119578063e42abf3514610121578063fbfa77cf1461014157610093565b806338e9922e1461009857806355c67628146100ad5780636b6b9f69146100cb5780636daefab6146100de575b600080fd5b6100ab6100a636600461092a565b610149565b005b6100b56101a8565b6040516100c29190610a1c565b60405180910390f35b6100ab6100d936600461092a565b6101ae565b6100ab6100ec366004610777565b610201565b6100b56100ff3660046108ca565b610293565b61010c6102e5565b6040516100c291906109ab565b6100b56102f4565b61013461012f3660046107f8565b6102fa565b6040516100c291906109d8565b61010c610401565b610151610425565b6101686706f05b59d3b20000821115610258610456565b60018190556040517fa9ba3ffe0b6c366b81232caab38605a0699ad5398d6cce76f91ee809e322dafc9061019d908390610a1c565b60405180910390a150565b60015490565b6101b6610425565b6101cc662386f26fc10000821115610259610456565b60028190556040517f5a0b7386237e7f07fa741efc64e59c9387d2cccafec760efed4d53387f20e19a9061019d908390610a1c565b610209610468565b610211610425565b61021b8483610481565b60005b8481101561028357600086868381811061023457fe5b9050602002016020810190610249919061090e565b9050600085858481811061025957fe5b6020029190910135915061027990506001600160a01b038316858361048e565b505060010161021e565b5061028c6104fe565b5050505050565b60007f0000000000000000000000000000000000000000000000000000000000000000826040516020016102c892919061095a565b604051602081830303815290604052805190602001209050919050565b60006102ef610505565b905090565b60025490565b6060815167ffffffffffffffff8111801561031457600080fd5b5060405190808252806020026020018201604052801561033e578160200160208202803683370190505b50905060005b82518110156103fb5782818151811061035957fe5b60200260200101516001600160a01b03166370a08231306040518263ffffffff1660e01b815260040161038c91906109ab565b60206040518083038186803b1580156103a457600080fd5b505afa1580156103b8573d6000803e3d6000fd5b505050506040513d601f19601f820116820180604052508101906103dc9190610942565b8282815181106103e857fe5b6020908102919091010152600101610344565b50919050565b7f000000000000000000000000000000000000000000000000000000000000000081565b600061043c6000356001600160e01b031916610293565b905061045361044b8233610598565b610191610456565b50565b81610464576104648161062a565b5050565b61047a60026000541415610190610456565b6002600055565b6104648183146067610456565b6104f98363a9059cbb60e01b84846040516024016104ad9291906109bf565b60408051601f198184030181529190526020810180517bffffffffffffffffffffffffffffffffffffffffffffffffffffffff166001600160e01b03199093169290921790915261067d565b505050565b6001600055565b60007f00000000000000000000000000000000000000000000000000000000000000006001600160a01b031663aaabadc56040518163ffffffff1660e01b815260040160206040518083038186803b15801561056057600080fd5b505afa158015610574573d6000803e3d6000fd5b505050506040513d601f19601f820116820180604052508101906102ef91906108f2565b60006105a2610505565b6001600160a01b0316639be2a8848484306040518463ffffffff1660e01b81526004016105d193929190610a25565b60206040518083038186803b1580156105e957600080fd5b505afa1580156105fd573d6000803e3d6000fd5b505050506040513d601f19601f8201168201806040525081019061062191906108a3565b90505b92915050565b62461bcd60e51b6000908152602060045260076024526642414c23000030600a808404818106603090810160081b95839006959095019082900491820690940160101b939093010160c81b604452606490fd5b60006060836001600160a01b0316836040516106999190610972565b6000604051808303816000865af19150503d80600081146106d6576040519150601f19603f3d011682016040523d82523d6000602084013e6106db565b606091505b509150915060008214156106f3573d6000803e3d6000fd5b61071d81516000148061071557508180602001905181019061071591906108a3565b6101a2610456565b50505050565b60008083601f840112610734578182fd5b50813567ffffffffffffffff81111561074b578182fd5b602083019150836020808302850101111561076557600080fd5b9250929050565b803561062481610a6b565b60008060008060006060868803121561078e578081fd5b853567ffffffffffffffff808211156107a5578283fd5b6107b189838a01610723565b909750955060208801359150808211156107c9578283fd5b506107d688828901610723565b90945092505060408601356107ea81610a6b565b809150509295509295909350565b6000602080838503121561080a578182fd5b823567ffffffffffffffff80821115610821578384fd5b818501915085601f830112610834578384fd5b813581811115610842578485fd5b8381029150610852848301610a44565b8181528481019084860184860187018a101561086c578788fd5b8795505b83861015610896576108828a8261076c565b835260019590950194918601918601610870565b5098975050505050505050565b6000602082840312156108b4578081fd5b815180151581146108c3578182fd5b9392505050565b6000602082840312156108db578081fd5b81356001600160e01b0319811681146108c3578182fd5b600060208284031215610903578081fd5b81516108c381610a6b565b60006020828403121561091f578081fd5b81356108c381610a6b565b60006020828403121561093b578081fd5b5035919050565b600060208284031215610953578081fd5b5051919050565b9182526001600160e01b031916602082015260240190565b60008251815b818110156109925760208186018101518583015201610978565b818111156109a05782828501525b509190910192915050565b6001600160a01b0391909116815260200190565b6001600160a01b03929092168252602082015260400190565b6020808252825182820181905260009190848201906040850190845b81811015610a10578351835292840192918401916001016109f4565b50909695505050505050565b90815260200190565b9283526001600160a01b03918216602084015216604082015260600190565b60405181810167ffffffffffffffff81118282101715610a6357600080fd5b604052919050565b6001600160a01b038116811461045357600080fdfea2646970667358221220e05bb1ca209c41cbd55a8a5cb4ffb6a39c1ac50b3ac1d86b70d642eec1ac37bd64736f6c63430007010033",
  "linkReferences": {},
  "deployedLinkReferences": {}
}