{
  "_format": "hh-sol-artifact-1",
  "contractName": "WeightedPool",
  "sourceName": "contracts/balancer-core-v2/pools/weighted/WeightedPool.sol",
  "abi": [
    {
      "inputs": [
        {
          "internalType": "contract IVault",
          "name": "vault",
          "type": "address"
        },
        {
          "internalType": "string",
          "name": "name",
          "type": "string"
        },
        {
          "internalType": "string",
          "name": "symbol",
          "type": "string"
        },
        {
          "internalType": "contract IERC20[]",
          "name": "tokens",
          "type": "address[]"
        },
        {
          "internalType": "uint256[]",
          "name": "normalizedWeights",
          "type": "uint256[]"
        },
        {
          "internalType": "uint256",
          "name": "swapFeePercentage",
          "type": "uint256"
        },
        {
          "internalType": "uint256",
          "name": "pauseWindowDuration",
          "type": "uint256"
        },
        {
          "internalType": "uint256",
          "name": "bufferPeriodDuration",
          "type": "uint256"
        },
        {
          "internalType": "address",
          "name": "owner",
          "type": "address"
        }
      ],
      "stateMutability": "nonpayable",
      "type": "constructor"
    },
    {
      "anonymous": false,
      "inputs": [
        {
          "indexed": true,
          "internalType": "address",
          "name": "owner",
          "type": "address"
        },
        {
          "indexed": true,
          "internalType": "address",
          "name": "spender",
          "type": "address"
        },
        {
          "indexed": false,
          "internalType": "uint256",
          "name": "value",
          "type": "uint256"
        }
      ],
      "name": "Approval",
      "type": "event"
    },
    {
      "anonymous": false,
      "inputs": [
        {
          "indexed": false,
          "internalType": "bool",
          "name": "paused",
          "type": "bool"
        }
      ],
      "name": "PausedStateChanged",
      "type": "event"
    },
    {
      "anonymous": false,
      "inputs": [
        {
          "indexed": false,
          "internalType": "uint256",
          "name": "swapFeePercentage",
          "type": "uint256"
        }
      ],
      "name": "SwapFeePercentageChanged",
      "type": "event"
    },
    {
      "anonymous": false,
      "inputs": [
        {
          "indexed": true,
          "internalType": "address",
          "name": "from",
          "type": "address"
        },
        {
          "indexed": true,
          "internalType": "address",
          "name": "to",
          "type": "address"
        },
        {
          "indexed": false,
          "internalType": "uint256",
          "name": "value",
          "type": "uint256"
        }
      ],
      "name": "Transfer",
      "type": "event"
    },
    {
      "inputs": [],
      "name": "DOMAIN_SEPARATOR",
      "outputs": [
        {
          "internalType": "bytes32",
          "name": "",
          "type": "bytes32"
        }
      ],
      "stateMutability": "view",
      "type": "function"
    },
    {
      "inputs": [],
      "name": "SPONSOR",
      "outputs": [
        {
          "internalType": "contract SponsorWhitelistControl",
          "name": "",
          "type": "address"
        }
      ],
      "stateMutability": "view",
      "type": "function"
    },
    {
      "inputs": [
        {
          "internalType": "address",
          "name": "owner",
          "type": "address"
        },
        {
          "internalType": "address",
          "name": "spender",
          "type": "address"
        }
      ],
      "name": "allowance",
      "outputs": [
        {
          "internalType": "uint256",
          "name": "",
          "type": "uint256"
        }
      ],
      "stateMutability": "view",
      "type": "function"
    },
    {
      "inputs": [
        {
          "internalType": "address",
          "name": "spender",
          "type": "address"
        },
        {
          "internalType": "uint256",
          "name": "amount",
          "type": "uint256"
        }
      ],
      "name": "approve",
      "outputs": [
        {
          "internalType": "bool",
          "name": "",
          "type": "bool"
        }
      ],
      "stateMutability": "nonpayable",
      "type": "function"
    },
    {
      "inputs": [
        {
          "internalType": "address",
          "name": "account",
          "type": "address"
        }
      ],
      "name": "balanceOf",
      "outputs": [
        {
          "internalType": "uint256",
          "name": "",
          "type": "uint256"
        }
      ],
      "stateMutability": "view",
      "type": "function"
    },
    {
      "inputs": [],
      "name": "decimals",
      "outputs": [
        {
          "internalType": "uint8",
          "name": "",
          "type": "uint8"
        }
      ],
      "stateMutability": "pure",
      "type": "function"
    },
    {
      "inputs": [
        {
          "internalType": "address",
          "name": "spender",
          "type": "address"
        },
        {
          "internalType": "uint256",
          "name": "amount",
          "type": "uint256"
        }
      ],
      "name": "decreaseApproval",
      "outputs": [
        {
          "internalType": "bool",
          "name": "",
          "type": "bool"
        }
      ],
      "stateMutability": "nonpayable",
      "type": "function"
    },
    {
      "inputs": [
        {
          "internalType": "bytes4",
          "name": "selector",
          "type": "bytes4"
        }
      ],
      "name": "getActionId",
      "outputs": [
        {
          "internalType": "bytes32",
          "name": "",
          "type": "bytes32"
        }
      ],
      "stateMutability": "view",
      "type": "function"
    },
    {
      "inputs": [],
      "name": "getAuthorizer",
      "outputs": [
        {
          "internalType": "contract IAuthorizer",
          "name": "",
          "type": "address"
        }
      ],
      "stateMutability": "view",
      "type": "function"
    },
    {
      "inputs": [],
      "name": "getInvariant",
      "outputs": [
        {
          "internalType": "uint256",
          "name": "",
          "type": "uint256"
        }
      ],
      "stateMutability": "view",
      "type": "function"
    },
    {
      "inputs": [],
      "name": "getLastInvariant",
      "outputs": [
        {
          "internalType": "uint256",
          "name": "",
          "type": "uint256"
        }
      ],
      "stateMutability": "view",
      "type": "function"
    },
    {
      "inputs": [],
      "name": "getNormalizedWeights",
      "outputs": [
        {
          "internalType": "uint256[]",
          "name": "",
          "type": "uint256[]"
        }
      ],
      "stateMutability": "view",
      "type": "function"
    },
    {
      "inputs": [],
      "name": "getOwner",
      "outputs": [
        {
          "internalType": "address",
          "name": "",
          "type": "address"
        }
      ],
      "stateMutability": "view",
      "type": "function"
    },
    {
      "inputs": [],
      "name": "getPausedState",
      "outputs": [
        {
          "internalType": "bool",
          "name": "paused",
          "type": "bool"
        },
        {
          "internalType": "uint256",
          "name": "pauseWindowEndTime",
          "type": "uint256"
        },
        {
          "internalType": "uint256",
          "name": "bufferPeriodEndTime",
          "type": "uint256"
        }
      ],
      "stateMutability": "view",
      "type": "function"
    },
    {
      "inputs": [],
      "name": "getPoolId",
      "outputs": [
        {
          "internalType": "bytes32",
          "name": "",
          "type": "bytes32"
        }
      ],
      "stateMutability": "view",
      "type": "function"
    },
    {
      "inputs": [],
      "name": "getRate",
      "outputs": [
        {
          "internalType": "uint256",
          "name": "",
          "type": "uint256"
        }
      ],
      "stateMutability": "view",
      "type": "function"
    },
    {
      "inputs": [],
      "name": "getSwapFeePercentage",
      "outputs": [
        {
          "internalType": "uint256",
          "name": "",
          "type": "uint256"
        }
      ],
      "stateMutability": "view",
      "type": "function"
    },
    {
      "inputs": [],
      "name": "getVault",
      "outputs": [
        {
          "internalType": "contract IVault",
          "name": "",
          "type": "address"
        }
      ],
      "stateMutability": "view",
      "type": "function"
    },
    {
      "inputs": [
        {
          "internalType": "address",
          "name": "spender",
          "type": "address"
        },
        {
          "internalType": "uint256",
          "name": "amount",
          "type": "uint256"
        }
      ],
      "name": "increaseApproval",
      "outputs": [
        {
          "internalType": "bool",
          "name": "",
          "type": "bool"
        }
      ],
      "stateMutability": "nonpayable",
      "type": "function"
    },
    {
      "inputs": [],
      "name": "name",
      "outputs": [
        {
          "internalType": "string",
          "name": "",
          "type": "string"
        }
      ],
      "stateMutability": "view",
      "type": "function"
    },
    {
      "inputs": [
        {
          "internalType": "address",
          "name": "owner",
          "type": "address"
        }
      ],
      "name": "nonces",
      "outputs": [
        {
          "internalType": "uint256",
          "name": "",
          "type": "uint256"
        }
      ],
      "stateMutability": "view",
      "type": "function"
    },
    {
      "inputs": [
        {
          "internalType": "bytes32",
          "name": "poolId",
          "type": "bytes32"
        },
        {
          "internalType": "address",
          "name": "sender",
          "type": "address"
        },
        {
          "internalType": "address",
          "name": "recipient",
          "type": "address"
        },
        {
          "internalType": "uint256[]",
          "name": "balances",
          "type": "uint256[]"
        },
        {
          "internalType": "uint256",
          "name": "lastChangeBlock",
          "type": "uint256"
        },
        {
          "internalType": "uint256",
          "name": "protocolSwapFeePercentage",
          "type": "uint256"
        },
        {
          "internalType": "bytes",
          "name": "userData",
          "type": "bytes"
        }
      ],
      "name": "onExitPool",
      "outputs": [
        {
          "internalType": "uint256[]",
          "name": "",
          "type": "uint256[]"
        },
        {
          "internalType": "uint256[]",
          "name": "",
          "type": "uint256[]"
        }
      ],
      "stateMutability": "nonpayable",
      "type": "function"
    },
    {
      "inputs": [
        {
          "internalType": "bytes32",
          "name": "poolId",
          "type": "bytes32"
        },
        {
          "internalType": "address",
          "name": "sender",
          "type": "address"
        },
        {
          "internalType": "address",
          "name": "recipient",
          "type": "address"
        },
        {
          "internalType": "uint256[]",
          "name": "balances",
          "type": "uint256[]"
        },
        {
          "internalType": "uint256",
          "name": "lastChangeBlock",
          "type": "uint256"
        },
        {
          "internalType": "uint256",
          "name": "protocolSwapFeePercentage",
          "type": "uint256"
        },
        {
          "internalType": "bytes",
          "name": "userData",
          "type": "bytes"
        }
      ],
      "name": "onJoinPool",
      "outputs": [
        {
          "internalType": "uint256[]",
          "name": "",
          "type": "uint256[]"
        },
        {
          "internalType": "uint256[]",
          "name": "",
          "type": "uint256[]"
        }
      ],
      "stateMutability": "nonpayable",
      "type": "function"
    },
    {
      "inputs": [
        {
          "components": [
            {
              "internalType": "enum IVault.SwapKind",
              "name": "kind",
              "type": "uint8"
            },
            {
              "internalType": "contract IERC20",
              "name": "tokenIn",
              "type": "address"
            },
            {
              "internalType": "contract IERC20",
              "name": "tokenOut",
              "type": "address"
            },
            {
              "internalType": "uint256",
              "name": "amount",
              "type": "uint256"
            },
            {
              "internalType": "bytes32",
              "name": "poolId",
              "type": "bytes32"
            },
            {
              "internalType": "uint256",
              "name": "lastChangeBlock",
              "type": "uint256"
            },
            {
              "internalType": "address",
              "name": "from",
              "type": "address"
            },
            {
              "internalType": "address",
              "name": "to",
              "type": "address"
            },
            {
              "internalType": "bytes",
              "name": "userData",
              "type": "bytes"
            }
          ],
          "internalType": "struct IPoolSwapStructs.SwapRequest",
          "name": "request",
          "type": "tuple"
        },
        {
          "internalType": "uint256",
          "name": "balanceTokenIn",
          "type": "uint256"
        },
        {
          "internalType": "uint256",
          "name": "balanceTokenOut",
          "type": "uint256"
        }
      ],
      "name": "onSwap",
      "outputs": [
        {
          "internalType": "uint256",
          "name": "",
          "type": "uint256"
        }
      ],
      "stateMutability": "view",
      "type": "function"
    },
    {
      "inputs": [
        {
          "internalType": "address",
          "name": "owner",
          "type": "address"
        },
        {
          "internalType": "address",
          "name": "spender",
          "type": "address"
        },
        {
          "internalType": "uint256",
          "name": "value",
          "type": "uint256"
        },
        {
          "internalType": "uint256",
          "name": "deadline",
          "type": "uint256"
        },
        {
          "internalType": "uint8",
          "name": "v",
          "type": "uint8"
        },
        {
          "internalType": "bytes32",
          "name": "r",
          "type": "bytes32"
        },
        {
          "internalType": "bytes32",
          "name": "s",
          "type": "bytes32"
        }
      ],
      "name": "permit",
      "outputs": [],
      "stateMutability": "nonpayable",
      "type": "function"
    },
    {
      "inputs": [
        {
          "internalType": "bytes32",
          "name": "poolId",
          "type": "bytes32"
        },
        {
          "internalType": "address",
          "name": "sender",
          "type": "address"
        },
        {
          "internalType": "address",
          "name": "recipient",
          "type": "address"
        },
        {
          "internalType": "uint256[]",
          "name": "balances",
          "type": "uint256[]"
        },
        {
          "internalType": "uint256",
          "name": "lastChangeBlock",
          "type": "uint256"
        },
        {
          "internalType": "uint256",
          "name": "protocolSwapFeePercentage",
          "type": "uint256"
        },
        {
          "internalType": "bytes",
          "name": "userData",
          "type": "bytes"
        }
      ],
      "name": "queryExit",
      "outputs": [
        {
          "internalType": "uint256",
          "name": "bptIn",
          "type": "uint256"
        },
        {
          "internalType": "uint256[]",
          "name": "amountsOut",
          "type": "uint256[]"
        }
      ],
      "stateMutability": "nonpayable",
      "type": "function"
    },
    {
      "inputs": [
        {
          "internalType": "bytes32",
          "name": "poolId",
          "type": "bytes32"
        },
        {
          "internalType": "address",
          "name": "sender",
          "type": "address"
        },
        {
          "internalType": "address",
          "name": "recipient",
          "type": "address"
        },
        {
          "internalType": "uint256[]",
          "name": "balances",
          "type": "uint256[]"
        },
        {
          "internalType": "uint256",
          "name": "lastChangeBlock",
          "type": "uint256"
        },
        {
          "internalType": "uint256",
          "name": "protocolSwapFeePercentage",
          "type": "uint256"
        },
        {
          "internalType": "bytes",
          "name": "userData",
          "type": "bytes"
        }
      ],
      "name": "queryJoin",
      "outputs": [
        {
          "internalType": "uint256",
          "name": "bptOut",
          "type": "uint256"
        },
        {
          "internalType": "uint256[]",
          "name": "amountsIn",
          "type": "uint256[]"
        }
      ],
      "stateMutability": "nonpayable",
      "type": "function"
    },
    {
      "inputs": [
        {
          "internalType": "bool",
          "name": "paused",
          "type": "bool"
        }
      ],
      "name": "setPaused",
      "outputs": [],
      "stateMutability": "nonpayable",
      "type": "function"
    },
    {
      "inputs": [
        {
          "internalType": "uint256",
          "name": "swapFeePercentage",
          "type": "uint256"
        }
      ],
      "name": "setSwapFeePercentage",
      "outputs": [],
      "stateMutability": "nonpayable",
      "type": "function"
    },
    {
      "inputs": [],
      "name": "symbol",
      "outputs": [
        {
          "internalType": "string",
          "name": "",
          "type": "string"
        }
      ],
      "stateMutability": "view",
      "type": "function"
    },
    {
      "inputs": [],
      "name": "totalSupply",
      "outputs": [
        {
          "internalType": "uint256",
          "name": "",
          "type": "uint256"
        }
      ],
      "stateMutability": "view",
      "type": "function"
    },
    {
      "inputs": [
        {
          "internalType": "address",
          "name": "recipient",
          "type": "address"
        },
        {
          "internalType": "uint256",
          "name": "amount",
          "type": "uint256"
        }
      ],
      "name": "transfer",
      "outputs": [
        {
          "internalType": "bool",
          "name": "",
          "type": "bool"
        }
      ],
      "stateMutability": "nonpayable",
      "type": "function"
    },
    {
      "inputs": [
        {
          "internalType": "address",
          "name": "sender",
          "type": "address"
        },
        {
          "internalType": "address",
          "name": "recipient",
          "type": "address"
        },
        {
          "internalType": "uint256",
          "name": "amount",
          "type": "uint256"
        }
      ],
      "name": "transferFrom",
      "outputs": [
        {
          "internalType": "bool",
          "name": "",
          "type": "bool"
        }
      ],
      "stateMutability": "nonpayable",
      "type": "function"
    }
  ],
  "bytecode": "0x6105006040527f6e71edae12b1b97f4d1f60370fef10105fa2faae0126114a169c64845d6126c9610120523480156200003757600080fd5b5060405162005d4a38038062005d4a8339810160408190526200005a9162000dd0565b88888888878787878785516002146200007557600162000078565b60025b6040805180820190915260018152603160f81b6020808301918252336080526001600160601b0319606087901b1660a0528b51908c0190812060c0529151902060e0527f8b73c3c69bb8fe3d512ecc4cf759cc79239f7b179b0ffacaa9a75d522b39400f6101005289518a918a918a918a918a918a918a91849184918a918a9162000107916003919062000b99565b5080516200011d90600490602084019062000b99565b50620001359150506276a70083111561019462000943565b6200014962278d0082111561019562000943565b42909101610140819052016101605284516200016b906002111560c862000943565b6200018360088651111560c96200094360201b60201c565b62000199856200095860201b62000e281760201c565b620001a48462000964565b6040516309b2760f60e01b81526000906001600160a01b038b16906309b2760f90620001d5908c9060040162000fbb565b602060405180830381600087803b158015620001f057600080fd5b505af115801562000205573d6000803e3d6000fd5b505050506040513d601f19601f820116820180604052508101906200022b919062000db7565b9050896001600160a01b03166366a9c7d2828889516001600160401b03811180156200025657600080fd5b5060405190808252806020026020018201604052801562000281578160200160208202803683370190505b506040518463ffffffff1660e01b8152600401620002a29392919062000f4e565b600060405180830381600087803b158015620002bd57600080fd5b505af1158015620002d2573d6000803e3d6000fd5b5050506001600160601b031960608c901b1661018052506101a081905285516101c0528551620003045760006200031b565b856000815181106200031257fe5b60200260200101515b60601b6001600160601b0319166101e05285516001106200033e57600062000355565b856001815181106200034c57fe5b60200260200101515b60601b6001600160601b031916610200528551600210620003785760006200038f565b856002815181106200038657fe5b60200260200101515b60601b6001600160601b031916610220528551600310620003b2576000620003c9565b85600381518110620003c057fe5b60200260200101515b60601b6001600160601b031916610240528551600410620003ec57600062000403565b85600481518110620003fa57fe5b60200260200101515b60601b6001600160601b031916610260528551600510620004265760006200043d565b856005815181106200043457fe5b60200260200101515b60601b6001600160601b0319166102805285516006106200046057600062000477565b856006815181106200046e57fe5b60200260200101515b60601b6001600160601b0319166102a05285516007106200049a576000620004b1565b85600781518110620004a857fe5b60200260200101515b60601b6001600160601b0319166102c0528551620004d1576000620004f7565b620004f786600081518110620004e357fe5b6020026020010151620009d360201b60201c565b6102e05285516001106200050d5760006200051f565b6200051f86600181518110620004e357fe5b6103005285516002106200053557600062000547565b6200054786600281518110620004e357fe5b6103205285516003106200055d5760006200056f565b6200056f86600381518110620004e357fe5b6103405285516004106200058557600062000597565b6200059786600481518110620004e357fe5b610360528551600510620005ad576000620005bf565b620005bf86600581518110620004e357fe5b610380528551600610620005d5576000620005e7565b620005e786600681518110620004e357fe5b6103a0528551600710620005fd5760006200060f565b6200060f86600781518110620004e357fe5b6103c08181525050505050505050505050505050505050505050606060016001600160401b03811180156200064357600080fd5b506040519080825280602002602001820160405280156200066e578160200160208202803683370190505b5090506000816000815181106200068157fe5b6001600160a01b0390921660209283029190910190910152604051630809469f60e11b8152730888000000000000000000000000000000000001906310128d3e90620006d290849060040162000f32565b600060405180830381600087803b158015620006ed57600080fd5b505af115801562000702573d6000803e3d6000fd5b505050506000875190506200072481885162000a7560201b62000e361760201c565b6000806000805b848160ff161015620007aa5760008b8260ff16815181106200074957fe5b6020026020010151905062000771662386f26fc1000082101561012e6200094360201b60201c565b6200078b818662000a8460201b62000e431790919060201c565b945082811115620007a0578160ff1693508092505b506001016200072b565b50620007c3670de0b6b3a7640000841461013462000943565b6103e08290528951620007d8576000620007ef565b89600081518110620007e657fe5b60200260200101515b610400528951600110620008055760006200081c565b896001815181106200081357fe5b60200260200101515b6104205289516002106200083257600062000849565b896002815181106200084057fe5b60200260200101515b6104405289516003106200085f57600062000876565b896003815181106200086d57fe5b60200260200101515b6104605289516004106200088c576000620008a3565b896004815181106200089a57fe5b60200260200101515b610480528951600510620008b9576000620008d0565b89600581518110620008c757fe5b60200260200101515b6104a0528951600610620008e6576000620008fd565b89600681518110620008f457fe5b60200260200101515b6104c0528951600710620009135760006200092a565b896007815181106200092157fe5b60200260200101515b6104e05250620010369c50505050505050505050505050565b816200095457620009548162000aa1565b5050565b80620009548162000af4565b6200097964e8d4a5100082101560cb62000943565b6200099167016345785d8a000082111560ca62000943565b60078190556040517fa9ba3ffe0b6c366b81232caab38605a0699ad5398d6cce76f91ee809e322dafc90620009c890839062000fd0565b60405180910390a150565b600080826001600160a01b031663313ce5676040518163ffffffff1660e01b815260040160206040518083038186803b15801562000a1057600080fd5b505afa15801562000a25573d6000803e3d6000fd5b505050506040513d601f19601f8201168201806040525081019062000a4b919062000eca565b60ff169050600062000a6a60128362000b8160201b62000e551760201c565b600a0a949350505050565b62000954828214606762000943565b600082820162000a98848210158362000943565b90505b92915050565b62461bcd60e51b6000908152602060045260076024526642414c23000030600a808404818106603090810160081b95839006959095019082900491820690940160101b939093010160c81b604452606490fd5b60028151101562000b055762000b7e565b60008160008151811062000b1557fe5b602002602001015190506000600190505b825181101562000b7b57600083828151811062000b3f57fe5b6020026020010151905062000b70816001600160a01b0316846001600160a01b03161060656200094360201b60201c565b915060010162000b26565b50505b50565b600062000b9383831115600162000943565b50900390565b828054600181600116156101000203166002900490600052602060002090601f016020900481019282601f1062000bdc57805160ff191683800117855562000c0c565b8280016001018555821562000c0c579182015b8281111562000c0c57825182559160200191906001019062000bef565b5062000c1a92915062000c1e565b5090565b5b8082111562000c1a576000815560010162000c1f565b805162000a9b8162001020565b600082601f83011262000c53578081fd5b815162000c6a62000c648262001000565b62000fd9565b81815291506020808301908481018184028601820187101562000c8c57600080fd5b60005b8481101562000cb857815162000ca58162001020565b8452928201929082019060010162000c8f565b505050505092915050565b600082601f83011262000cd4578081fd5b815162000ce562000c648262001000565b81815291506020808301908481018184028601820187101562000d0757600080fd5b60005b8481101562000cb85781518452928201929082019060010162000d0a565b600082601f83011262000d39578081fd5b81516001600160401b0381111562000d4f578182fd5b602062000d65601f8301601f1916820162000fd9565b9250818352848183860101111562000d7c57600080fd5b60005b8281101562000d9c57848101820151848201830152810162000d7f565b8281111562000dae5760008284860101525b50505092915050565b60006020828403121562000dc9578081fd5b5051919050565b60008060008060008060008060006101208a8c03121562000def578485fd5b62000dfb8b8b62000c35565b60208b01519099506001600160401b038082111562000e18578687fd5b62000e268d838e0162000d28565b995060408c015191508082111562000e3c578687fd5b62000e4a8d838e0162000d28565b985060608c015191508082111562000e60578687fd5b62000e6e8d838e0162000c42565b975060808c015191508082111562000e84578687fd5b5062000e938c828d0162000cc3565b95505060a08a0151935060c08a0151925060e08a0151915062000ebb8b6101008c0162000c35565b90509295985092959850929598565b60006020828403121562000edc578081fd5b815160ff8116811462000a98578182fd5b6000815180845260208085019450808401835b8381101562000f275781516001600160a01b03168752958201959082019060010162000f00565b509495945050505050565b60006020825262000f47602083018462000eed565b9392505050565b60006060820185835260206060818501528186518084526080860191508288019350845b8181101562000f995784516001600160a01b03168352938301939183019160010162000f72565b5050848103604086015262000faf818762000eed565b98975050505050505050565b602081016003831062000fca57fe5b91905290565b90815260200190565b6040518181016001600160401b038111828210171562000ff857600080fd5b604052919050565b60006001600160401b0382111562001016578081fd5b5060209081020190565b6001600160a01b038116811462000b7e57600080fd5b60805160a05160601c60c05160e051610100516101205161014051610160516101805160601c6101a0516101c0516101e05160601c6102005160601c6102205160601c6102405160601c6102605160601c6102805160601c6102a05160601c6102c05160601c6102e05161030051610320516103405161036051610380516103a0516103c0516103e05161040051610420516104405161046051610480516104a0516104c0516104e051614afe6200124c600039806120575280612a2152508061201452806129c0525080611fd1528061295f525080611f8e52806128fe525080611f4b528061289d525080611f08528061283c525080611ec552806127db525080611e82528061277a52508061247c52806124b052806124ec5250806117ba5280611cb05250806117775280611c4f5250806117345280611bee5250806116f15280611b8d5250806116ae5280611b2c52508061166b5280611acb5250806116285280611a6a5250806115d75280611a09525080611c7552806129e6525080611c145280612985525080611bb35280612924525080611b5252806128c3525080611af15280612862525080611a905280612801525080611a2f52806127a05250806119ce528061273f52508061120952508061064e5250806108ac525080610ff8525080610fd4525080610b685250806110fb52508061113d52508061111c5250806108885250806108125250614afe6000f3fe608060405234801561001057600080fd5b506004361061020b5760003560e01c806374f3b0091161012a5780639d2c110c116100bd578063d505accf1161008c578063d73dd62311610071578063d73dd6231461041c578063dd62ed3e1461042f578063f89f27ed146104425761020b565b8063d505accf146103f6578063d5c096c4146104095761020b565b80639d2c110c146103c0578063a9059cbb146103d3578063aaabadc5146103e6578063c0ff1a15146103ee5761020b565b8063893d20e8116100f9578063893d20e8146103a05780638d928af8146103a857806395d89b41146103b05780639b02cdde146103b85761020b565b806374f3b009146103465780637ecebe0014610367578063851c1bb31461037a57806387ec68171461038d5761020b565b80633644e515116101a25780636028bfd4116101715780636028bfd4146102f75780636618846314610318578063679aefce1461032b57806370a08231146103335761020b565b80633644e515146102cc57806338e9922e146102d457806338fff2d0146102e757806355c67628146102ef5761020b565b80631c0de051116101de5780631c0de051146102785780631d073a7a1461028f57806323b872dd146102a4578063313ce567146102b75761020b565b806306fdde0314610210578063095ea7b31461022e57806316c38b3c1461024e57806318160ddd14610263575b600080fd5b610218610457565b60405161022591906149b9565b60405180910390f35b61024161023c366004614343565b61050c565b60405161022591906148f0565b61026161025c36600461443a565b610523565b005b61026b610537565b6040516102259190614913565b61028061053d565b604051610225939291906148fb565b610297610566565b60405161022591906148a4565b6102416102b236600461428e565b61057e565b6102bf61061f565b6040516102259190614a43565b61026b610624565b6102616102e23660046147dc565b610633565b61026b61064c565b61026b610670565b61030a610305366004614472565b610676565b604051610225929190614a2a565b610241610326366004614343565b6106ad565b61026b610707565b61026b61034136600461423a565b610732565b610359610354366004614472565b610751565b6040516102259291906148cb565b61026b61037536600461423a565b6107f3565b61026b61038836600461456f565b61080e565b61030a61039b366004614472565b610860565b610297610886565b6102976108aa565b6102186108ce565b61026b61094d565b61026b6103ce3660046146e0565b610953565b6102416103e1366004614343565b610a3a565b610297610a47565b61026b610a51565b6102616104043660046142ce565b610b33565b610359610417366004614472565b610c9a565b61024161042a366004614343565b610dbd565b61026b61043d366004614256565b610df3565b61044a610e1e565b60405161022591906148b8565b60038054604080516020601f60027fffffffffffffffffffffffffffffffffffffffffffffffffffffffffffffffff6101006001881615020190951694909404938401819004810282018101909252828152606093909290918301828280156105015780601f106104d657610100808354040283529160200191610501565b820191906000526020600020905b8154815290600101906020018083116104e457829003601f168201915b505050505090505b90565b6000610519338484610e6b565b5060015b92915050565b61052b610ed3565b61053481610f19565b50565b60025490565b600080600061054a610fb5565b159250610555610fd2565b915061055f610ff6565b9050909192565b73088800000000000000000000000000000000000181565b6001600160a01b038316600081815260016020908152604080832033808552925282205491926105bc9114806105b45750838210155b61019761101a565b6105c7858585611028565b336001600160a01b0386161480159061060057507fffffffffffffffffffffffffffffffffffffffffffffffffffffffffffffffff8114155b15610612576106128533858403610e6b565b60019150505b9392505050565b601290565b600061062e6110f7565b905090565b61063b610ed3565b610643611194565b610534816111a9565b7f000000000000000000000000000000000000000000000000000000000000000090565b60075490565b6000606061068c8651610687611207565b610e36565b6106a18989898989898961122b6112f3611359565b97509795505050505050565b3360009081526001602090815260408083206001600160a01b03861684529091528120548083106106e9576106e433856000610e6b565b6106fd565b6106fd33856106f88487610e55565b610e6b565b5060019392505050565b600061062e610714610537565b61072c61071f610a51565b610727611207565b611506565b9061152a565b6001600160a01b0381166000908152602081905260409020545b919050565b6060808861077b6107606108aa565b6001600160a01b0316336001600160a01b03161460cd61101a565b61079061078661064c565b82146101f461101a565b606061079a61157b565b90506107a688826117f8565b60006060806107ba8e8e8e8e8e8e8e61122b565b9250925092506107ca8d84611859565b6107d482856112f3565b6107de81856112f3565b909550935050505b5097509795505050505050565b6001600160a01b031660009081526005602052604090205490565b60007f00000000000000000000000000000000000000000000000000000000000000008260405160200161084392919061482e565b604051602081830303815290604052805190602001209050919050565b600060606108718651610687611207565b6106a1898989898989896118ec611969611359565b7f000000000000000000000000000000000000000000000000000000000000000090565b7f000000000000000000000000000000000000000000000000000000000000000090565b60048054604080516020601f60027fffffffffffffffffffffffffffffffffffffffffffffffffffffffffffffffff6101006001881615020190951694909404938401819004810282018101909252828152606093909290918301828280156105015780601f106104d657610100808354040283529160200191610501565b60085490565b60008061096385602001516119ca565b9050600061097486604001516119ca565b905060008651600181111561098557fe5b14156109eb576109988660600151611cdf565b60608701526109a78583611d03565b94506109b38482611d03565b93506109c3866060015183611d03565b606087015260006109d5878787611d0f565b90506109e18183611d4a565b9350505050610618565b6109f58583611d03565b9450610a018482611d03565b9350610a11866060015182611d03565b60608701526000610a23878787611d56565b9050610a2f8184611d89565b90506109e181611d95565b6000610519338484611028565b600061062e611dac565b60006060610a5d6108aa565b6001600160a01b031663f94d4668610a7361064c565b6040518263ffffffff1660e01b8152600401610a8f9190614913565b60006040518083038186803b158015610aa757600080fd5b505afa158015610abb573d6000803e3d6000fd5b505050506040513d6000823e601f3d9081017fffffffffffffffffffffffffffffffffffffffffffffffffffffffffffffffe0168201604052610b01919081019061436e565b50915050610b1681610b1161157b565b6117f8565b6060610b20611e26565b9050610b2c8183612083565b9250505090565b610b418442111560d161101a565b6001600160a01b0387166000908152600560209081526040808320549051909291610b98917f0000000000000000000000000000000000000000000000000000000000000000918c918c918c9188918d910161493b565b6040516020818303038152906040528051906020012090506000610bbb826120f5565b9050600060018288888860405160008152602001604052604051610be2949392919061499b565b6020604051602081039080840390855afa158015610c04573d6000803e3d6000fd5b50506040517fffffffffffffffffffffffffffffffffffffffffffffffffffffffffffffffe001519150610c6490506001600160a01b03821615801590610c5c57508b6001600160a01b0316826001600160a01b0316145b6101f861101a565b6001600160a01b038b166000908152600560205260409020600185019055610c8d8b8b8b610e6b565b5050505050505050505050565b60608088610ca96107606108aa565b610cb461078661064c565b6060610cbe61157b565b9050610cc8610537565b610d6e5760006060610cdc8d8d8d8a612111565b91509150610cf1620f424083101560cc61101a565b610cff6000620f42406121ac565b610d0e8b620f424084036121ac565b610d188184611969565b80610d21611207565b67ffffffffffffffff81118015610d3757600080fd5b50604051908082528060200260200182016040528015610d61578160200160208202803683370190505b50955095505050506107e6565b610d7888826117f8565b6000606080610d8c8e8e8e8e8e8e8e6118ec565b925092509250610d9c8c846121ac565b610da68285611969565b610db081856112f3565b90955093506107e6915050565b3360008181526001602090815260408083206001600160a01b038716845290915281205490916105199185906106f89086610e43565b6001600160a01b03918216600090815260016020908152604080832093909416825291909152205490565b606061062e611e26565b80610e3281612242565b5050565b610e32818314606761101a565b6000828201610618848210158361101a565b6000610e6583831115600161101a565b50900390565b6001600160a01b0380841660008181526001602090815260408083209487168084529490915290819020849055517f8c5be1e5ebec7d5bd14f71427d1e84f3dd0314c0f7b2291e5b200ac8c7c3b92590610ec6908590614913565b60405180910390a3505050565b6000610f026000357fffffffff000000000000000000000000000000000000000000000000000000001661080e565b9050610534610f1182336122bb565b61019161101a565b8015610f3957610f34610f2a610fd2565b421061019361101a565b610f4e565b610f4e610f44610ff6565b42106101a961101a565b600680547fffffffffffffffffffffffffffffffffffffffffffffffffffffffffffffff00168215151790556040517f9e3a5e37224532dea67b89face185703738a228a6e8a23dee546960180d3be6490610faa9083906148f0565b60405180910390a150565b6000610fbf610ff6565b42118061062e57505060065460ff161590565b7f000000000000000000000000000000000000000000000000000000000000000090565b7f000000000000000000000000000000000000000000000000000000000000000090565b81610e3257610e32816123ab565b6001600160a01b0383166000908152602081905260409020546110508282101561019661101a565b6110676001600160a01b038416151561019961101a565b6001600160a01b038085166000908152602081905260408082208585039055918516815220546110979083610e43565b6001600160a01b0380851660008181526020819052604090819020939093559151908616907fddf252ad1be2c89b69c2b068fc378daa952ba7f163c4a11628f55a4df523b3ef906110e9908690614913565b60405180910390a350505050565b60007f00000000000000000000000000000000000000000000000000000000000000007f00000000000000000000000000000000000000000000000000000000000000007f0000000000000000000000000000000000000000000000000000000000000000611164612418565b3060405160200161117995949392919061496f565b60405160208183030381529060405280519060200120905090565b6111a761119f610fb5565b61019261101a565b565b6111bc64e8d4a5100082101560cb61101a565b6111d267016345785d8a000082111560ca61101a565b60078190556040517fa9ba3ffe0b6c366b81232caab38605a0699ad5398d6cce76f91ee809e322dafc90610faa908390614913565b7f000000000000000000000000000000000000000000000000000000000000000090565b6000606080606061123a611e26565b9050611244610fb5565b1561127b576000611255828a612083565b90506112668983600854848b61241c565b92506112758984610e5561252c565b506112c7565b611283611207565b67ffffffffffffffff8111801561129957600080fd5b506040519080825280602002602001820160405280156112c3578160200160208202803683370190505b5091505b6112d2888287612597565b90945092506112e2888483612604565b600855509750975097945050505050565b60005b6112fe611207565b8110156113545761133583828151811061131457fe5b602002602001015183838151811061132857fe5b602002602001015161261d565b83828151811061134157fe5b60209081029190910101526001016112f6565b505050565b333014611448576000306001600160a01b031660003660405161137d92919061485e565b6000604051808303816000865af19150503d80600081146113ba576040519150601f19603f3d011682016040523d82523d6000602084013e6113bf565b606091505b5050905080600081146113ce57fe5b60046000803e6000517fffffffff00000000000000000000000000000000000000000000000000000000167f43adbafb00000000000000000000000000000000000000000000000000000000811461142a573d6000803e3d6000fd5b506020600460003e604060205260243d03602460403e601c3d016000f35b606061145261157b565b905061145e87826117f8565b600060606114758c8c8c8c8c8c8c8c63ffffffff16565b509150915061148881848663ffffffff16565b80517fffffffffffffffffffffffffffffffffffffffffffffffffffffffffffffffe082018390526343adbafb7fffffffffffffffffffffffffffffffffffffffffffffffffffffffffffffffc08301526020027fffffffffffffffffffffffffffffffffffffffffffffffffffffffffffffffdc82016044820181fd5b600082820261061884158061152357508385838161152057fe5b04145b600361101a565b6000611539821515600461101a565b826115465750600061051d565b670de0b6b3a7640000838102906115699085838161156057fe5b0414600561101a565b82818161157257fe5b0491505061051d565b60606000611587611207565b905060608167ffffffffffffffff811180156115a257600080fd5b506040519080825280602002602001820160405280156115cc578160200160208202803683370190505b5090508115611614577f00000000000000000000000000000000000000000000000000000000000000008160008151811061160357fe5b60200260200101818152505061161d565b91506105099050565b6001821115611614577f00000000000000000000000000000000000000000000000000000000000000008160018151811061165457fe5b6020026020010181815250506002821115611614577f00000000000000000000000000000000000000000000000000000000000000008160028151811061169757fe5b6020026020010181815250506003821115611614577f0000000000000000000000000000000000000000000000000000000000000000816003815181106116da57fe5b6020026020010181815250506004821115611614577f00000000000000000000000000000000000000000000000000000000000000008160048151811061171d57fe5b6020026020010181815250506005821115611614577f00000000000000000000000000000000000000000000000000000000000000008160058151811061176057fe5b6020026020010181815250506006821115611614577f0000000000000000000000000000000000000000000000000000000000000000816006815181106117a357fe5b6020026020010181815250506007821115611614577f0000000000000000000000000000000000000000000000000000000000000000816007815181106117e657fe5b60200260200101818152505091505090565b60005b611803611207565b8110156113545761183a83828151811061181957fe5b602002602001015183838151811061182d57fe5b6020026020010151611506565b83828151811061184657fe5b60209081029190910101526001016117fb565b6001600160a01b0382166000908152602081905260409020546118818282101561019661101a565b6001600160a01b038316600090815260208190526040902082820390556002546118ab9083610e55565b6002556040516000906001600160a01b038516907fddf252ad1be2c89b69c2b068fc378daa952ba7f163c4a11628f55a4df523b3ef90610ec6908690614913565b60006060806118f9611194565b6060611903611e26565b90506000611911828a612083565b905060606119248a84600854858c61241c565b90506119338a82610e5561252c565b600060606119428c868b61263d565b915091506119518c8287612697565b600855909e909d50909b509950505050505050505050565b60005b611974611207565b811015611354576119ab83828151811061198a57fe5b602002602001015183838151811061199e57fe5b60200260200101516126a6565b8382815181106119b757fe5b602090810291909101015260010161196c565b60007f00000000000000000000000000000000000000000000000000000000000000006001600160a01b0316826001600160a01b03161415611a2d57507f000000000000000000000000000000000000000000000000000000000000000061074c565b7f00000000000000000000000000000000000000000000000000000000000000006001600160a01b0316826001600160a01b03161415611a8e57507f000000000000000000000000000000000000000000000000000000000000000061074c565b7f00000000000000000000000000000000000000000000000000000000000000006001600160a01b0316826001600160a01b03161415611aef57507f000000000000000000000000000000000000000000000000000000000000000061074c565b7f00000000000000000000000000000000000000000000000000000000000000006001600160a01b0316826001600160a01b03161415611b5057507f000000000000000000000000000000000000000000000000000000000000000061074c565b7f00000000000000000000000000000000000000000000000000000000000000006001600160a01b0316826001600160a01b03161415611bb157507f000000000000000000000000000000000000000000000000000000000000000061074c565b7f00000000000000000000000000000000000000000000000000000000000000006001600160a01b0316826001600160a01b03161415611c1257507f000000000000000000000000000000000000000000000000000000000000000061074c565b7f00000000000000000000000000000000000000000000000000000000000000006001600160a01b0316826001600160a01b03161415611c7357507f000000000000000000000000000000000000000000000000000000000000000061074c565b7f00000000000000000000000000000000000000000000000000000000000000006001600160a01b0316826001600160a01b03161415611cd457507f000000000000000000000000000000000000000000000000000000000000000061074c565b61074c6101356123ab565b600080611cf7600754846126d990919063ffffffff16565b90506106188382610e55565b60006106188383611506565b6000611d19611194565b611d4283611d2a866020015161273b565b84611d38886040015161273b565b8860600151612a45565b949350505050565b6000610618838361261d565b6000611d60611194565b611d4283611d71866020015161273b565b84611d7f886040015161273b565b8860600151612ac0565b600061061883836126a6565b600061051d611da5600754612b36565b8390612b5c565b6000611db66108aa565b6001600160a01b031663aaabadc56040518163ffffffff1660e01b815260040160206040518083038186803b158015611dee57600080fd5b505afa158015611e02573d6000803e3d6000fd5b505050506040513d601f19601f8201168201806040525081019061062e91906145af565b60606000611e32611207565b905060608167ffffffffffffffff81118015611e4d57600080fd5b50604051908082528060200260200182016040528015611e77578160200160208202803683370190505b5090508115611614577f000000000000000000000000000000000000000000000000000000000000000081600081518110611eae57fe5b6020026020010181815250506001821115611614577f000000000000000000000000000000000000000000000000000000000000000081600181518110611ef157fe5b6020026020010181815250506002821115611614577f000000000000000000000000000000000000000000000000000000000000000081600281518110611f3457fe5b6020026020010181815250506003821115611614577f000000000000000000000000000000000000000000000000000000000000000081600381518110611f7757fe5b6020026020010181815250506004821115611614577f000000000000000000000000000000000000000000000000000000000000000081600481518110611fba57fe5b6020026020010181815250506005821115611614577f000000000000000000000000000000000000000000000000000000000000000081600581518110611ffd57fe5b6020026020010181815250506006821115611614577f00000000000000000000000000000000000000000000000000000000000000008160068151811061204057fe5b6020026020010181815250506007821115611614577f0000000000000000000000000000000000000000000000000000000000000000816007815181106117e657fe5b670de0b6b3a764000060005b83518110156120e5576120db6120d48583815181106120aa57fe5b60200260200101518584815181106120be57fe5b6020026020010151612b9e90919063ffffffff16565b8390612bed565b915060010161208f565b5061051d6000821161013761101a565b60006120ff6110f7565b8260405160200161084392919061486e565b6000606061211d611194565b600061212884612c19565b9050612143600082600281111561213b57fe5b1460ce61101a565b606061214e85612c2f565b905061216261215b611207565b8251610e36565b61216e81610b1161157b565b6060612178611e26565b905060006121868284612083565b9050600061219682610727611207565b6008929092555099919850909650505050505050565b6001600160a01b0382166000908152602081905260409020546121cf9082610e43565b6001600160a01b0383166000908152602081905260409020556002546121f59082610e43565b6002556040516001600160a01b038316906000907fddf252ad1be2c89b69c2b068fc378daa952ba7f163c4a11628f55a4df523b3ef90612236908590614913565b60405180910390a35050565b60028151101561225157610534565b60008160008151811061226057fe5b602002602001015190506000600190505b825181101561135457600083828151811061228857fe5b602002602001015190506122b1816001600160a01b0316846001600160a01b031610606561101a565b9150600101612271565b600073ba1ba1ba1ba1ba1ba1ba1ba1ba1ba1ba1ba1ba1b6122da610886565b6001600160a01b0316141580156122f557506122f583612c45565b1561231d57612302610886565b6001600160a01b0316336001600160a01b031614905061051d565b612325611dac565b6001600160a01b0316639be2a8848484306040518463ffffffff1660e01b81526004016123549392919061491c565b60206040518083038186803b15801561236c57600080fd5b505afa158015612380573d6000803e3d6000fd5b505050506040513d601f19601f820116820180604052508101906123a49190614456565b905061051d565b7f08c379a0000000000000000000000000000000000000000000000000000000006000908152602060045260076024526642414c23000030600a808404818106603090810160081b95839006959095019082900491820690940160101b939093010160c81b604452606490fd5b4690565b606080612427611207565b67ffffffffffffffff8111801561243d57600080fd5b50604051908082528060200260200182016040528015612467578160200160208202803683370190505b50905082612476579050612523565b6124e9877f0000000000000000000000000000000000000000000000000000000000000000815181106124a557fe5b6020026020010151877f0000000000000000000000000000000000000000000000000000000000000000815181106124d957fe5b6020026020010151878787612c78565b817f00000000000000000000000000000000000000000000000000000000000000008151811061251557fe5b602090810291909101015290505b95945050505050565b60005b612537611207565b8110156125915761257284828151811061254d57fe5b602002602001015184838151811061256157fe5b60200260200101518463ffffffff16565b84828151811061257e57fe5b602090810291909101015260010161252f565b50505050565b6000606060006125a684612c19565b905060008160028111156125b657fe5b14156125d1576125c7868686612cf0565b92509250506125fc565b60018160028111156125df57fe5b14156125ef576125c78685612dce565b6125c7868686612e00565b505b935093915050565b60006126138484610e5561252c565b611d428285612083565b600061262c821515600461101a565b81838161263557fe5b049392505050565b60006060600061264c84612c19565b9050600181600281111561265c57fe5b141561266d576125c7868686612e6b565b600281600281111561267b57fe5b141561268c576125c7868686612ec5565b6125fa6101366123ab565b60006126138484610e4361252c565b60006126b5821515600461101a565b826126c25750600061051d565b8160018403816126ce57fe5b04600101905061051d565b60008282026126f384158061152357508385838161152057fe5b8061270257600091505061051d565b670de0b6b3a76400007fffffffffffffffffffffffffffffffffffffffffffffffffffffffffffffffff82015b0460010191505061051d565b60007f00000000000000000000000000000000000000000000000000000000000000006001600160a01b0316826001600160a01b0316141561279e57507f000000000000000000000000000000000000000000000000000000000000000061074c565b7f00000000000000000000000000000000000000000000000000000000000000006001600160a01b0316826001600160a01b031614156127ff57507f000000000000000000000000000000000000000000000000000000000000000061074c565b7f00000000000000000000000000000000000000000000000000000000000000006001600160a01b0316826001600160a01b0316141561286057507f000000000000000000000000000000000000000000000000000000000000000061074c565b7f00000000000000000000000000000000000000000000000000000000000000006001600160a01b0316826001600160a01b031614156128c157507f000000000000000000000000000000000000000000000000000000000000000061074c565b7f00000000000000000000000000000000000000000000000000000000000000006001600160a01b0316826001600160a01b0316141561292257507f000000000000000000000000000000000000000000000000000000000000000061074c565b7f00000000000000000000000000000000000000000000000000000000000000006001600160a01b0316826001600160a01b0316141561298357507f000000000000000000000000000000000000000000000000000000000000000061074c565b7f00000000000000000000000000000000000000000000000000000000000000006001600160a01b0316826001600160a01b031614156129e457507f000000000000000000000000000000000000000000000000000000000000000061074c565b7f00000000000000000000000000000000000000000000000000000000000000006001600160a01b0316826001600160a01b03161415611cd457507f000000000000000000000000000000000000000000000000000000000000000061074c565b6000612a67612a5c87670429d069189e0000612bed565b83111561013061101a565b6000612a738784610e43565b90506000612a818883612b5c565b90506000612a8f888761152a565b90506000612a9d8383612f6d565b9050612ab2612aab82612b36565b8990612bed565b9a9950505050505050505050565b6000612ae2612ad785670429d069189e0000612bed565b83111561013161101a565b6000612af8612af18685610e55565b8690612b5c565b90506000612b068588612b5c565b90506000612b148383612f6d565b90506000612b2a82670de0b6b3a7640000610e55565b9050612ab28a826126d9565b6000670de0b6b3a76400008210612b4e57600061051d565b50670de0b6b3a76400000390565b6000612b6b821515600461101a565b82612b785750600061051d565b670de0b6b3a764000083810290612b929085838161156057fe5b82600182038161272f57fe5b600080612bab8484612f99565b90506000612bc5612bbe836127106126d9565b6001610e43565b905080821015612bda5760009250505061051d565b612be48282610e55565b9250505061051d565b6000828202612c0784158061152357508385838161152057fe5b670de0b6b3a764000090049392505050565b60008180602001905181019061051d91906145cb565b6060818060200190518101906106189190614691565b6000612c707f38e9922e0000000000000000000000000000000000000000000000000000000061080e565b909114919050565b6000838311612c8957506000612523565b6000612c958585612b5c565b90506000612cab670de0b6b3a76400008861152a565b9050612cbf826709b6e64a8ec600006130d6565b91506000612ccd8383612f6d565b90506000612ce4612cdd83612b36565b8b90612bed565b9050612ab28187612bed565b60006060612cfc611194565b600080612d08856130ed565b91509150612d20612d17611207565b8210606461101a565b6060612d2a611207565b67ffffffffffffffff81118015612d4057600080fd5b50604051908082528060200260200182016040528015612d6a578160200160208202803683370190505b509050612da9888381518110612d7c57fe5b6020026020010151888481518110612d9057fe5b602002602001015185612da1610537565b60075461310f565b818381518110612db557fe5b6020908102919091010152919791965090945050505050565b600060606000612ddd846131cc565b90506060612df38683612dee610537565b6131e2565b9196919550909350505050565b60006060612e0c611194565b60606000612e1985613294565b91509150612e2a8251610687611207565b612e3682610b1161157b565b6000612e4e888885612e46610537565b6007546132ac565b9050612e5e8282111560cf61101a565b9791965090945050505050565b60006060806000612e7b85613294565b91509150612e91612e8a611207565b8351610e36565b612e9d82610b1161157b565b6000612eb5888885612ead610537565b6007546134d1565b9050612e5e8282101560d061101a565b60006060600080612ed5856130ed565b91509150612ee4612d17611207565b6060612eee611207565b67ffffffffffffffff81118015612f0457600080fd5b50604051908082528060200260200182016040528015612f2e578160200160208202803683370190505b509050612da9888381518110612f4057fe5b6020026020010151888481518110612f5457fe5b602002602001015185612f65610537565b6007546136e2565b600080612f7a8484612f99565b90506000612f8d612bbe836127106126d9565b90506125238282610e43565b600081612faf5750670de0b6b3a764000061051d565b82612fbc5750600061051d565b612fe97f80000000000000000000000000000000000000000000000000000000000000008410600661101a565b8261300f770bce5086492111aea88f4bb1ca6bcf584181ea8059f765328410600761101a565b826000670c7d713b49da0000831380156130305750670f43fc2c04ee000083125b1561306757600061304084613784565b9050670de0b6b3a764000080820784020583670de0b6b3a764000083050201915050613075565b81613071846138bb565b0290505b670de0b6b3a764000090056130c37ffffffffffffffffffffffffffffffffffffffffffffffffdc702bd3a30fc000082128015906130bc575068070c1cc73b00c800008213155b600861101a565b6130cc81613c5b565b9695505050505050565b6000818310156130e65781610618565b5090919050565b60008082806020019051810190613104919061465b565b909590945092505050565b600080613126846131208188610e55565b90612b5c565b905061313f6709b6e64a8ec6000082101561013261101a565b600061315d613156670de0b6b3a76400008961152a565b8390612f6d565b9050600061317461316d83612b36565b8a90612bed565b9050600061318189612b36565b9050600061318f83836126d9565b9050600061319d8483610e55565b90506131bc6131b56131ae8a612b36565b8490612bed565b8290610e43565b9c9b505050505050505050505050565b600081806020019051810190610618919061462e565b606060006131f0848461152a565b90506060855167ffffffffffffffff8111801561320c57600080fd5b50604051908082528060200260200182016040528015613236578160200160208202803683370190505b50905060005b865181101561328a5761326b8388838151811061325557fe5b6020026020010151612bed90919063ffffffff16565b82828151811061327757fe5b602090810291909101015260010161323c565b5095945050505050565b606060008280602001905181019061310491906145e7565b60006060845167ffffffffffffffff811180156132c857600080fd5b506040519080825280602002602001820160405280156132f2578160200160208202803683370190505b5090506000805b88518110156133b75761335289828151811061331157fe5b602002602001015161312089848151811061332857fe5b60200260200101518c858151811061333c57fe5b6020026020010151610e5590919063ffffffff16565b83828151811061335e57fe5b6020026020010181815250506133ad6133a689838151811061337c57fe5b602002602001015185848151811061339057fe5b60200260200101516126d990919063ffffffff16565b8390610e43565b91506001016132f9565b50670de0b6b3a764000060005b89518110156134b05760008482815181106133db57fe5b60200260200101518411156134325760006134046133f886612b36565b8d858151811061325557fe5b90506000613418828c868151811061333c57fe5b90506134296133a6611da58b612b36565b92505050613449565b88828151811061343e57fe5b602002602001015190505b60006134728c848151811061345a57fe5b602002602001015161072c848f878151811061333c57fe5b90506134a461349d8c858151811061348657fe5b602002602001015183612b9e90919063ffffffff16565b8590612bed565b935050506001016133c4565b506134c46134bd82612b36565b87906126d9565b9998505050505050505050565b60006060845167ffffffffffffffff811180156134ed57600080fd5b50604051908082528060200260200182016040528015613517578160200160208202803683370190505b5090506000805b88518110156135bf5761357789828151811061353657fe5b602002602001015161072c89848151811061354d57fe5b60200260200101518c858151811061356157fe5b6020026020010151610e4390919063ffffffff16565b83828151811061358357fe5b6020026020010181815250506135b56133a68983815181106135a157fe5b602002602001015185848151811061325557fe5b915060010161351e565b50670de0b6b3a764000060005b89518110156136a0576000838583815181106135e457fe5b602002602001015111156136405760006136096133f886670de0b6b3a7640000610e55565b9050600061361d828c868151811061333c57fe5b90506136376133a66120d4670de0b6b3a76400008c610e55565b92505050613657565b88828151811061364c57fe5b602002602001015190505b60006136808c848151811061366857fe5b602002602001015161072c848f878151811061356157fe5b905061369461349d8c858151811061348657fe5b935050506001016135cc565b50670de0b6b3a764000081106136d6576136cc6136c582670de0b6b3a7640000610e55565b8790612bed565b9350505050612523565b60009350505050612523565b6000806136f3846131208188610e43565b905061370c6729a2241af62c000082111561013361101a565b6000613723613156670de0b6b3a764000089612b5c565b9050600061374361373c83670de0b6b3a7640000610e55565b8a906126d9565b9050600061375089612b36565b9050600061375e83836126d9565b9050600061376c8483610e55565b90506131bc6131b561377d8a612b36565b8490612b5c565b670de0b6b3a7640000026000806ec097ce7bc90715b34b9f1000000000808401907fffffffffffffffffffffffffffffffffff3f68318436f8ea4cb460f000000000850102816137d057fe5b05905060006ec097ce7bc90715b34b9f100000000082800205905081806ec097ce7bc90715b34b9f100000000081840205915060038205016ec097ce7bc90715b34b9f100000000082840205915060058205016ec097ce7bc90715b34b9f100000000082840205915060078205016ec097ce7bc90715b34b9f100000000082840205915060098205016ec097ce7bc90715b34b9f1000000000828402059150600b8205016ec097ce7bc90715b34b9f1000000000828402059150600d8205016ec097ce7bc90715b34b9f1000000000828402059150600f826002919005919091010295945050505050565b6000670de0b6b3a76400008212156138f8576138ee826ec097ce7bc90715b34b9f1000000000816138e857fe5b056138bb565b600003905061074c565b60007e1600ef3172e58d2e933ec884fde10064c63b5372d805e203c0000000000000831261394957770195e54c5dd42177f53a27172fa9ec630262827000000000830592506806f05b59d3b2000000015b73011798004d755d3c8bc8e03204cf44619e0000008312613981576b1425982cf597cd205cef7380830592506803782dace9d9000000015b606492830292026e01855144814a7ff805980ff008400083126139c9576e01855144814a7ff805980ff008400068056bc75e2d63100000840205925068ad78ebc5ac62000000015b6b02df0ab5a80a22c61ab5a7008312613a04576b02df0ab5a80a22c61ab5a70068056bc75e2d6310000084020592506856bc75e2d631000000015b693f1fce3da636ea5cf8508312613a3b57693f1fce3da636ea5cf85068056bc75e2d631000008402059250682b5e3af16b18800000015b690127fa27722cc06cc5e28312613a7257690127fa27722cc06cc5e268056bc75e2d6310000084020592506815af1d78b58c400000015b68280e60114edb805d038312613aa75768280e60114edb805d0368056bc75e2d631000008402059250680ad78ebc5ac6200000015b680ebc5fb417461211108312613ad257680ebc5fb4174612111068056bc75e2d631000009384020592015b6808f00f760a4b2db55d8312613b07576808f00f760a4b2db55d68056bc75e2d6310000084020592506802b5e3af16b1880000015b6806f5f17757889379378312613b3c576806f5f177578893793768056bc75e2d63100000840205925068015af1d78b58c40000015b6806248f33704b2866038312613b70576806248f33704b28660368056bc75e2d63100000840205925067ad78ebc5ac620000015b6805c548670b9510e7ac8312613ba4576805c548670b9510e7ac68056bc75e2d6310000084020592506756bc75e2d6310000015b600068056bc75e2d63100000840168056bc75e2d631000008086030281613bc757fe5b059050600068056bc75e2d63100000828002059050818068056bc75e2d63100000818402059150600382050168056bc75e2d63100000828402059150600582050168056bc75e2d63100000828402059150600782050168056bc75e2d63100000828402059150600982050168056bc75e2d63100000828402059150600b820501600202606485820105979650505050505050565b6000613ca07ffffffffffffffffffffffffffffffffffffffffffffffffdc702bd3a30fc00008312158015613c99575068070c1cc73b00c800008313155b600961101a565b6000821215613cd457613cb582600003613c5b565b6ec097ce7bc90715b34b9f100000000081613ccc57fe5b05905061074c565b60006806f05b59d3b20000008312613d2a57507ffffffffffffffffffffffffffffffffffffffffffffffff90fa4a62c4e00000090910190770195e54c5dd42177f53a27172fa9ec630262827000000000613d76565b6803782dace9d90000008312613d7257507ffffffffffffffffffffffffffffffffffffffffffffffffc87d2531627000000909101906b1425982cf597cd205cef7380613d76565b5060015b6064929092029168056bc75e2d6310000068ad78ebc5ac620000008412613ddc577fffffffffffffffffffffffffffffffffffffffffffffff5287143a539e0000009093019268056bc75e2d631000006e01855144814a7ff805980ff008400082020590505b6856bc75e2d6310000008412613e2e577fffffffffffffffffffffffffffffffffffffffffffffffa9438a1d29cf0000009093019268056bc75e2d631000006b02df0ab5a80a22c61ab5a70082020590505b682b5e3af16b188000008412613e7e577fffffffffffffffffffffffffffffffffffffffffffffffd4a1c50e94e78000009093019268056bc75e2d63100000693f1fce3da636ea5cf85082020590505b6815af1d78b58c4000008412613ece577fffffffffffffffffffffffffffffffffffffffffffffffea50e2874a73c000009093019268056bc75e2d63100000690127fa27722cc06cc5e282020590505b680ad78ebc5ac62000008412613f1d577ffffffffffffffffffffffffffffffffffffffffffffffff5287143a539e000009093019268056bc75e2d6310000068280e60114edb805d0382020590505b68056bc75e2d631000008412613f6c577ffffffffffffffffffffffffffffffffffffffffffffffffa9438a1d29cf000009093019268056bc75e2d63100000680ebc5fb4174612111082020590505b6802b5e3af16b18800008412613fbb577ffffffffffffffffffffffffffffffffffffffffffffffffd4a1c50e94e7800009093019268056bc75e2d631000006808f00f760a4b2db55d82020590505b68015af1d78b58c40000841261400a577ffffffffffffffffffffffffffffffffffffffffffffffffea50e2874a73c00009093019268056bc75e2d631000006806f5f177578893793782020590505b68056bc75e2d631000008481019085906002908280020505918201919050600368056bc75e2d631000008783020505918201919050600468056bc75e2d631000008783020505918201919050600568056bc75e2d631000008783020505918201919050600668056bc75e2d631000008783020505918201919050600768056bc75e2d631000008783020505918201919050600868056bc75e2d631000008783020505918201919050600968056bc75e2d631000008783020505918201919050600a68056bc75e2d631000008783020505918201919050600b68056bc75e2d631000008783020505918201919050600c68056bc75e2d631000008783020505918201919050606468056bc75e2d63100000848402058502059695505050505050565b803561051d81614a98565b600082601f830112614146578081fd5b815161415961415482614a78565b614a51565b81815291506020808301908481018184028601820187101561417a57600080fd5b60005b848110156141995781518452928201929082019060010161417d565b505050505092915050565b600082601f8301126141b4578081fd5b813567ffffffffffffffff8111156141ca578182fd5b6141fb60207fffffffffffffffffffffffffffffffffffffffffffffffffffffffffffffffe0601f84011601614a51565b915080825283602082850101111561421257600080fd5b8060208401602084013760009082016020015292915050565b80356002811061051d57600080fd5b60006020828403121561424b578081fd5b813561061881614a98565b60008060408385031215614268578081fd5b823561427381614a98565b9150602083013561428381614a98565b809150509250929050565b6000806000606084860312156142a2578081fd5b83356142ad81614a98565b925060208401356142bd81614a98565b929592945050506040919091013590565b600080600080600080600060e0888a0312156142e8578283fd5b87356142f381614a98565b9650602088013561430381614a98565b95506040880135945060608801359350608088013560ff81168114614326578384fd5b9699959850939692959460a0840135945060c09093013592915050565b60008060408385031215614355578182fd5b823561436081614a98565b946020939093013593505050565b600080600060608486031215614382578081fd5b835167ffffffffffffffff80821115614399578283fd5b818601915086601f8301126143ac578283fd5b81516143ba61415482614a78565b80828252602080830192508086018b8283870289010111156143da578788fd5b8796505b848710156144055780516143f181614a98565b8452600196909601959281019281016143de565b50890151909750935050508082111561441c578283fd5b5061442986828701614136565b925050604084015190509250925092565b60006020828403121561444b578081fd5b813561061881614aad565b600060208284031215614467578081fd5b815161061881614aad565b600080600080600080600060e0888a03121561448c578081fd5b8735965060208089013561449f81614a98565b965060408901356144af81614a98565b9550606089013567ffffffffffffffff808211156144cb578384fd5b818b0191508b601f8301126144de578384fd5b81356144ec61415482614a78565b8082825285820191508585018f87888602880101111561450a578788fd5b8795505b8386101561452c57803583526001959095019491860191860161450e565b509850505060808b0135955060a08b0135945060c08b0135925080831115614552578384fd5b50506145608a828b016141a4565b91505092959891949750929550565b600060208284031215614580578081fd5b81357fffffffff0000000000000000000000000000000000000000000000000000000081168114610618578182fd5b6000602082840312156145c0578081fd5b815161061881614a98565b6000602082840312156145dc578081fd5b815161061881614abb565b6000806000606084860312156145fb578081fd5b835161460681614abb565b602085015190935067ffffffffffffffff811115614622578182fd5b61442986828701614136565b60008060408385031215614640578182fd5b825161464b81614abb565b6020939093015192949293505050565b60008060006060848603121561466f578081fd5b835161467a81614abb565b602085015160409095015190969495509392505050565b600080604083850312156146a3578182fd5b82516146ae81614abb565b602084015190925067ffffffffffffffff8111156146ca578182fd5b6146d685828601614136565b9150509250929050565b6000806000606084860312156146f4578081fd5b833567ffffffffffffffff8082111561470b578283fd5b8186019150610120808389031215614721578384fd5b61472a81614a51565b9050614736888461422b565b8152614745886020850161412b565b6020820152614757886040850161412b565b6040820152606083013560608201526080830135608082015260a083013560a08201526147878860c0850161412b565b60c08201526147998860e0850161412b565b60e082015261010080840135838111156147b1578586fd5b6147bd8a8287016141a4565b9183019190915250976020870135975060409096013595945050505050565b6000602082840312156147ed578081fd5b5035919050565b6000815180845260208085019450808401835b8381101561482357815187529582019590820190600101614807565b509495945050505050565b9182527fffffffff0000000000000000000000000000000000000000000000000000000016602082015260240190565b6000828483379101908152919050565b7f190100000000000000000000000000000000000000000000000000000000000081526002810192909252602282015260420190565b6001600160a01b0391909116815260200190565b60006020825261061860208301846147f4565b6000604082526148de60408301856147f4565b828103602084015261252381856147f4565b901515815260200190565b92151583526020830191909152604082015260600190565b90815260200190565b9283526001600160a01b03918216602084015216604082015260600190565b9586526001600160a01b0394851660208701529290931660408501526060840152608083019190915260a082015260c00190565b9485526020850193909352604084019190915260608301526001600160a01b0316608082015260a00190565b93845260ff9290921660208401526040830152606082015260800190565b6000602080835283518082850152825b818110156149e5578581018301518582016040015282016149c9565b818111156149f65783604083870101525b50601f017fffffffffffffffffffffffffffffffffffffffffffffffffffffffffffffffe016929092016040019392505050565b600083825260406020830152611d4260408301846147f4565b60ff91909116815260200190565b60405181810167ffffffffffffffff81118282101715614a7057600080fd5b604052919050565b600067ffffffffffffffff821115614a8e578081fd5b5060209081020190565b6001600160a01b038116811461053457600080fd5b801515811461053457600080fd5b6003811061053457600080fdfea264697066735822122093fcd703d3e023d3f4672f91f343675d407e85eeb559c06aeb883c71f4b8e38d64736f6c63430007010033",
  "linkReferences": {},
  "deployedLinkReferences": {}
}