{
  "_format": "hh-sol-artifact-1",
  "contractName": "WeightedPoolFactory",
  "sourceName": "contracts/balancer-core-v2/pools/weighted/WeightedPoolFactory.sol",
  "abi": [
    {
      "inputs": [
        {
          "internalType": "contract IVault",
          "name": "vault",
          "type": "address"
        }
      ],
      "stateMutability": "nonpayable",
      "type": "constructor"
    },
    {
      "anonymous": false,
      "inputs": [
        {
          "indexed": true,
          "internalType": "address",
          "name": "pool",
          "type": "address"
        }
      ],
      "name": "PoolCreated",
      "type": "event"
    },
    {
      "inputs": [],
      "name": "SPONSOR",
      "outputs": [
        {
          "internalType": "contract SponsorWhitelistControl",
          "name": "",
          "type": "address"
        }
      ],
      "stateMutability": "view",
      "type": "function"
    },
    {
      "inputs": [
        {
          "internalType": "string",
          "name": "name",
          "type": "string"
        },
        {
          "internalType": "string",
          "name": "symbol",
          "type": "string"
        },
        {
          "internalType": "contract IERC20[]",
          "name": "tokens",
          "type": "address[]"
        },
        {
          "internalType": "uint256[]",
          "name": "weights",
          "type": "uint256[]"
        },
        {
          "internalType": "uint256",
          "name": "swapFeePercentage",
          "type": "uint256"
        },
        {
          "internalType": "address",
          "name": "owner",
          "type": "address"
        }
      ],
      "name": "create",
      "outputs": [
        {
          "internalType": "address",
          "name": "",
          "type": "address"
        }
      ],
      "stateMutability": "nonpayable",
      "type": "function"
    },
    {
      "inputs": [],
      "name": "getPauseConfiguration",
      "outputs": [
        {
          "internalType": "uint256",
          "name": "pauseWindowDuration",
          "type": "uint256"
        },
        {
          "internalType": "uint256",
          "name": "bufferPeriodDuration",
          "type": "uint256"
        }
      ],
      "stateMutability": "view",
      "type": "function"
    },
    {
      "inputs": [],
      "name": "getVault",
      "outputs": [
        {
          "internalType": "contract IVault",
          "name": "",
          "type": "address"
        }
      ],
      "stateMutability": "view",
      "type": "function"
    },
    {
      "inputs": [
        {
          "internalType": "address",
          "name": "pool",
          "type": "address"
        }
      ],
      "name": "isPoolFromFactory",
      "outputs": [
        {
          "internalType": "bool",
          "name": "",
          "type": "bool"
        }
      ],
      "stateMutability": "view",
      "type": "function"
    }
  ],
  "bytecode": "0x60c060405234801561001057600080fd5b506040516162b43803806162b483398101604081905261002f91610101565b606081811b6001600160601b0319166080526276a700420160a052604080516001808252818301909252906020808301908036833701905050905060008160008151811061007957fe5b6001600160a01b0390921660209283029190910190910152604051630809469f60e11b8152730888000000000000000000000000000000000001906310128d3e906100c890849060040161012f565b600060405180830381600087803b1580156100e257600080fd5b505af11580156100f6573d6000803e3d6000fd5b50505050505061017c565b600060208284031215610112578081fd5b81516001600160a01b0381168114610128578182fd5b9392505050565b6020808252825182820181905260009190848201906040850190845b818110156101705783516001600160a01b03168352928401929184019160010161014b565b50909695505050505050565b60805160601c60a05161610d6101a760003980610116528061014052508061019c525061610d6000f3fe60806040523480156200001157600080fd5b5060043610620000705760003560e01c80636634b75311620000575780636634b75314620000b15780638d928af814620000d7578063fbce039314620000e15762000070565b80631d073a7a14620000755780632da47c401462000097575b600080fd5b6200007f620000f8565b6040516200008e91906200058e565b60405180910390f35b620000a162000110565b6040516200008e92919062000674565b620000c8620000c236600462000400565b6200017c565b6040516200008e9190620005a2565b6200007f6200019a565b6200007f620000f236600462000426565b620001be565b73088800000000000000000000000000000000000181565b600080427f00000000000000000000000000000000000000000000000000000000000000008110156200016e57807f000000000000000000000000000000000000000000000000000000000000000003925062278d00915062000177565b60009250600091505b509091565b6001600160a01b031660009081526020819052604090205460ff1690565b7f000000000000000000000000000000000000000000000000000000000000000090565b6000806000620001cd62000110565b915091506000620001dd6200019a565b8a8a8a8a8a88888c604051620001f3906200028b565b6200020799989796959493929190620005ad565b604051809103906000f08015801562000224573d6000803e3d6000fd5b50905062000232816200023f565b9998505050505050505050565b6001600160a01b038116600081815260208190526040808220805460ff19166001179055517f83a48fbcfc991335314e74d0496aab6a1987e992ddc85dddbcc4d6dd6ef2e9fc9190a250565b6159e780620006f183390190565b8035620002a681620006d7565b92915050565b600082601f830112620002bd578081fd5b8135620002d4620002ce82620006aa565b62000682565b818152915060208083019084810181840286018201871015620002f657600080fd5b60005b84811015620003225781356200030f81620006d7565b84529282019290820190600101620002f9565b505050505092915050565b600082601f8301126200033e578081fd5b81356200034f620002ce82620006aa565b8181529150602080830190848101818402860182018710156200037157600080fd5b60005b84811015620003225781358452928201929082019060010162000374565b600082601f830112620003a3578081fd5b813567ffffffffffffffff811115620003ba578182fd5b620003cf601f8201601f191660200162000682565b9150808252836020828501011115620003e757600080fd5b8060208401602084013760009082016020015292915050565b60006020828403121562000412578081fd5b81356200041f81620006d7565b9392505050565b60008060008060008060c087890312156200043f578182fd5b863567ffffffffffffffff8082111562000457578384fd5b620004658a838b0162000392565b975060208901359150808211156200047b578384fd5b620004898a838b0162000392565b965060408901359150808211156200049f578384fd5b620004ad8a838b01620002ac565b95506060890135915080821115620004c3578384fd5b50620004d289828a016200032d565b93505060808701359150620004eb8860a0890162000299565b90509295509295509295565b6001600160a01b03169052565b6000815180845260208085019450808401835b83811015620005355781518752958201959082019060010162000517565b509495945050505050565b60008151808452815b81811015620005675760208185018101518683018201520162000549565b81811115620005795782602083870101525b50601f01601f19169290920160200192915050565b6001600160a01b0391909116815260200190565b901515815260200190565b60006101206001600160a01b038c16835260208181850152620005d38285018d62000540565b91508382036040850152620005e9828c62000540565b84810360608601528a51808252828c01935090820190845b818110156200062957620006168551620006cb565b8352938301939183019160010162000601565b505084810360808601526200063f818b62000504565b93505050508560a08301528460c08301528360e083015262000666610100830184620004f7565b9a9950505050505050505050565b918252602082015260400190565b60405181810167ffffffffffffffff81118282101715620006a257600080fd5b604052919050565b600067ffffffffffffffff821115620006c1578081fd5b5060209081020190565b6001600160a01b031690565b6001600160a01b0381168114620006ed57600080fd5b5056fe6105006040527f6e71edae12b1b97f4d1f60370fef10105fa2faae0126114a169c64845d6126c9610120523480156200003757600080fd5b50604051620059e7380380620059e78339810160408190526200005a9162000dd0565b88888888878787878785516002146200007557600162000078565b60025b6040805180820190915260018152603160f81b6020808301918252336080526001600160601b0319606087901b1660a0528b51908c0190812060c0529151902060e0527f8b73c3c69bb8fe3d512ecc4cf759cc79239f7b179b0ffacaa9a75d522b39400f6101005289518a918a918a918a918a918a918a91849184918a918a9162000107916003919062000b99565b5080516200011d90600490602084019062000b99565b50620001359150506276a70083111561019462000943565b6200014962278d0082111561019562000943565b42909101610140819052016101605284516200016b906002111560c862000943565b6200018360088651111560c96200094360201b60201c565b62000199856200095860201b62000d921760201c565b620001a48462000964565b6040516309b2760f60e01b81526000906001600160a01b038b16906309b2760f90620001d5908c9060040162000fbb565b602060405180830381600087803b158015620001f057600080fd5b505af115801562000205573d6000803e3d6000fd5b505050506040513d601f19601f820116820180604052508101906200022b919062000db7565b9050896001600160a01b03166366a9c7d2828889516001600160401b03811180156200025657600080fd5b5060405190808252806020026020018201604052801562000281578160200160208202803683370190505b506040518463ffffffff1660e01b8152600401620002a29392919062000f4e565b600060405180830381600087803b158015620002bd57600080fd5b505af1158015620002d2573d6000803e3d6000fd5b5050506001600160601b031960608c901b1661018052506101a081905285516101c0528551620003045760006200031b565b856000815181106200031257fe5b60200260200101515b60601b6001600160601b0319166101e05285516001106200033e57600062000355565b856001815181106200034c57fe5b60200260200101515b60601b6001600160601b031916610200528551600210620003785760006200038f565b856002815181106200038657fe5b60200260200101515b60601b6001600160601b031916610220528551600310620003b2576000620003c9565b85600381518110620003c057fe5b60200260200101515b60601b6001600160601b031916610240528551600410620003ec57600062000403565b85600481518110620003fa57fe5b60200260200101515b60601b6001600160601b031916610260528551600510620004265760006200043d565b856005815181106200043457fe5b60200260200101515b60601b6001600160601b0319166102805285516006106200046057600062000477565b856006815181106200046e57fe5b60200260200101515b60601b6001600160601b0319166102a05285516007106200049a576000620004b1565b85600781518110620004a857fe5b60200260200101515b60601b6001600160601b0319166102c0528551620004d1576000620004f7565b620004f786600081518110620004e357fe5b6020026020010151620009d360201b60201c565b6102e05285516001106200050d5760006200051f565b6200051f86600181518110620004e357fe5b6103005285516002106200053557600062000547565b6200054786600281518110620004e357fe5b6103205285516003106200055d5760006200056f565b6200056f86600381518110620004e357fe5b6103405285516004106200058557600062000597565b6200059786600481518110620004e357fe5b610360528551600510620005ad576000620005bf565b620005bf86600581518110620004e357fe5b610380528551600610620005d5576000620005e7565b620005e786600681518110620004e357fe5b6103a0528551600710620005fd5760006200060f565b6200060f86600781518110620004e357fe5b6103c08181525050505050505050505050505050505050505050606060016001600160401b03811180156200064357600080fd5b506040519080825280602002602001820160405280156200066e578160200160208202803683370190505b5090506000816000815181106200068157fe5b6001600160a01b0390921660209283029190910190910152604051630809469f60e11b8152730888000000000000000000000000000000000001906310128d3e90620006d290849060040162000f32565b600060405180830381600087803b158015620006ed57600080fd5b505af115801562000702573d6000803e3d6000fd5b505050506000875190506200072481885162000a7560201b62000da01760201c565b6000806000805b848160ff161015620007aa5760008b8260ff16815181106200074957fe5b6020026020010151905062000771662386f26fc1000082101561012e6200094360201b60201c565b6200078b818662000a8460201b62000dad1790919060201c565b945082811115620007a0578160ff1693508092505b506001016200072b565b50620007c3670de0b6b3a7640000841461013462000943565b6103e08290528951620007d8576000620007ef565b89600081518110620007e657fe5b60200260200101515b610400528951600110620008055760006200081c565b896001815181106200081357fe5b60200260200101515b6104205289516002106200083257600062000849565b896002815181106200084057fe5b60200260200101515b6104405289516003106200085f57600062000876565b896003815181106200086d57fe5b60200260200101515b6104605289516004106200088c576000620008a3565b896004815181106200089a57fe5b60200260200101515b610480528951600510620008b9576000620008d0565b89600581518110620008c757fe5b60200260200101515b6104a0528951600610620008e6576000620008fd565b89600681518110620008f457fe5b60200260200101515b6104c0528951600710620009135760006200092a565b896007815181106200092157fe5b60200260200101515b6104e05250620010369c50505050505050505050505050565b816200095457620009548162000aa1565b5050565b80620009548162000af4565b6200097964e8d4a5100082101560cb62000943565b6200099167016345785d8a000082111560ca62000943565b60078190556040517fa9ba3ffe0b6c366b81232caab38605a0699ad5398d6cce76f91ee809e322dafc90620009c890839062000fd0565b60405180910390a150565b600080826001600160a01b031663313ce5676040518163ffffffff1660e01b815260040160206040518083038186803b15801562000a1057600080fd5b505afa15801562000a25573d6000803e3d6000fd5b505050506040513d601f19601f8201168201806040525081019062000a4b919062000eca565b60ff169050600062000a6a60128362000b8160201b62000dbf1760201c565b600a0a949350505050565b62000954828214606762000943565b600082820162000a98848210158362000943565b90505b92915050565b62461bcd60e51b6000908152602060045260076024526642414c23000030600a808404818106603090810160081b95839006959095019082900491820690940160101b939093010160c81b604452606490fd5b60028151101562000b055762000b7e565b60008160008151811062000b1557fe5b602002602001015190506000600190505b825181101562000b7b57600083828151811062000b3f57fe5b6020026020010151905062000b70816001600160a01b0316846001600160a01b03161060656200094360201b60201c565b915060010162000b26565b50505b50565b600062000b9383831115600162000943565b50900390565b828054600181600116156101000203166002900490600052602060002090601f016020900481019282601f1062000bdc57805160ff191683800117855562000c0c565b8280016001018555821562000c0c579182015b8281111562000c0c57825182559160200191906001019062000bef565b5062000c1a92915062000c1e565b5090565b5b8082111562000c1a576000815560010162000c1f565b805162000a9b8162001020565b600082601f83011262000c53578081fd5b815162000c6a62000c648262001000565b62000fd9565b81815291506020808301908481018184028601820187101562000c8c57600080fd5b60005b8481101562000cb857815162000ca58162001020565b8452928201929082019060010162000c8f565b505050505092915050565b600082601f83011262000cd4578081fd5b815162000ce562000c648262001000565b81815291506020808301908481018184028601820187101562000d0757600080fd5b60005b8481101562000cb85781518452928201929082019060010162000d0a565b600082601f83011262000d39578081fd5b81516001600160401b0381111562000d4f578182fd5b602062000d65601f8301601f1916820162000fd9565b9250818352848183860101111562000d7c57600080fd5b60005b8281101562000d9c57848101820151848201830152810162000d7f565b8281111562000dae5760008284860101525b50505092915050565b60006020828403121562000dc9578081fd5b5051919050565b60008060008060008060008060006101208a8c03121562000def578485fd5b62000dfb8b8b62000c35565b60208b01519099506001600160401b038082111562000e18578687fd5b62000e268d838e0162000d28565b995060408c015191508082111562000e3c578687fd5b62000e4a8d838e0162000d28565b985060608c015191508082111562000e60578687fd5b62000e6e8d838e0162000c42565b975060808c015191508082111562000e84578687fd5b5062000e938c828d0162000cc3565b95505060a08a0151935060c08a0151925060e08a0151915062000ebb8b6101008c0162000c35565b90509295985092959850929598565b60006020828403121562000edc578081fd5b815160ff8116811462000a98578182fd5b6000815180845260208085019450808401835b8381101562000f275781516001600160a01b03168752958201959082019060010162000f00565b509495945050505050565b60006020825262000f47602083018462000eed565b9392505050565b60006060820185835260206060818501528186518084526080860191508288019350845b8181101562000f995784516001600160a01b03168352938301939183019160010162000f72565b5050848103604086015262000faf818762000eed565b98975050505050505050565b602081016003831062000fca57fe5b91905290565b90815260200190565b6040518181016001600160401b038111828210171562000ff857600080fd5b604052919050565b60006001600160401b0382111562001016578081fd5b5060209081020190565b6001600160a01b038116811462000b7e57600080fd5b60805160a05160601c60c05160e051610100516101205161014051610160516101805160601c6101a0516101c0516101e05160601c6102005160601c6102205160601c6102405160601c6102605160601c6102805160601c6102a05160601c6102c05160601c6102e05161030051610320516103405161036051610380516103a0516103c0516103e05161040051610420516104405161046051610480516104a0516104c0516104e05161479b6200124c60003980611f005280612892525080611ebd5280612831525080611e7a52806127d0525080611e37528061276f525080611df4528061270e525080611db152806126ad525080611d6e528061264c525080611d2b52806125eb52508061230b528061233f528061237b5250806116635280611b595250806116205280611af85250806115dd5280611a9752508061159a5280611a3652508061155752806119d552508061151452806119745250806114d1528061191352508061148052806118b2525080611b1e5280612857525080611abd52806127f6525080611a5c52806127955250806119fb528061273452508061199a52806126d352508061193952806126725250806118d8528061261152508061187752806125b052508061113d525080610612525080610870525080610f2c525080610f08525080610af052508061102f52508061107152508061105052508061084c5250806107d6525061479b6000f3fe608060405234801561001057600080fd5b506004361061020b5760003560e01c806374f3b0091161012a5780639d2c110c116100bd578063d505accf1161008c578063d73dd62311610071578063d73dd6231461041c578063dd62ed3e1461042f578063f89f27ed146104425761020b565b8063d505accf146103f6578063d5c096c4146104095761020b565b80639d2c110c146103c0578063a9059cbb146103d3578063aaabadc5146103e6578063c0ff1a15146103ee5761020b565b8063893d20e8116100f9578063893d20e8146103a05780638d928af8146103a857806395d89b41146103b05780639b02cdde146103b85761020b565b806374f3b009146103465780637ecebe0014610367578063851c1bb31461037a57806387ec68171461038d5761020b565b80633644e515116101a25780636028bfd4116101715780636028bfd4146102f75780636618846314610318578063679aefce1461032b57806370a08231146103335761020b565b80633644e515146102cc57806338e9922e146102d457806338fff2d0146102e757806355c67628146102ef5761020b565b80631c0de051116101de5780631c0de051146102785780631d073a7a1461028f57806323b872dd146102a4578063313ce567146102b75761020b565b806306fdde0314610210578063095ea7b31461022e57806316c38b3c1461024e57806318160ddd14610263575b600080fd5b610218610457565b6040516102259190614674565b60405180910390f35b61024161023c366004614049565b6104ee565b60405161022591906145ab565b61026161025c366004614140565b610505565b005b61026b610519565b60405161022591906145ce565b61028061051f565b604051610225939291906145b6565b610297610548565b604051610225919061455f565b6102416102b2366004613f94565b610560565b6102bf6105e3565b60405161022591906146e0565b61026b6105e8565b6102616102e23660046144ca565b6105f7565b61026b610610565b61026b610634565b61030a610305366004614178565b61063a565b6040516102259291906146c7565b610241610326366004614049565b610671565b61026b6106cb565b61026b610341366004613f40565b6106f6565b610359610354366004614178565b610715565b604051610225929190614586565b61026b610375366004613f40565b6107b7565b61026b610388366004614275565b6107d2565b61030a61039b366004614178565b610824565b61029761084a565b61029761086e565b610218610892565b61026b6108f3565b61026b6103ce3660046143ce565b6108f9565b6102416103e1366004614049565b6109e0565b6102976109ed565b61026b6109f7565b610261610404366004613fd4565b610abb565b610359610417366004614178565b610c04565b61024161042a366004614049565b610d27565b61026b61043d366004613f5c565b610d5d565b61044a610d88565b6040516102259190614573565b60038054604080516020601f60026000196101006001881615020190951694909404938401819004810282018101909252828152606093909290918301828280156104e35780601f106104b8576101008083540402835291602001916104e3565b820191906000526020600020905b8154815290600101906020018083116104c657829003601f168201915b505050505090505b90565b60006104fb338484610dd5565b5060015b92915050565b61050d610e3d565b61051681610e6b565b50565b60025490565b600080600061052c610ee9565b159250610537610f06565b9150610541610f2a565b9050909192565b73088800000000000000000000000000000000000181565b6001600160a01b0383166000818152600160209081526040808320338085529252822054919261059e9114806105965750838210155b610197610f4e565b6105a9858585610f5c565b336001600160a01b038616148015906105c457506000198114155b156105d6576105d68533858403610dd5565b60019150505b9392505050565b601290565b60006105f261102b565b905090565b6105ff610e3d565b6106076110c8565b610516816110dd565b7f000000000000000000000000000000000000000000000000000000000000000090565b60075490565b60006060610650865161064b61113b565b610da0565b6106658989898989898961115f61122761128d565b97509795505050505050565b3360009081526001602090815260408083206001600160a01b03861684529091528120548083106106ad576106a833856000610dd5565b6106c1565b6106c133856106bc8487610dbf565b610dd5565b5060019392505050565b60006105f26106d8610519565b6106f06106e36109f7565b6106eb61113b565b6113af565b906113d3565b6001600160a01b0381166000908152602081905260409020545b919050565b6060808861073f61072461086e565b6001600160a01b0316336001600160a01b03161460cd610f4e565b61075461074a610610565b82146101f4610f4e565b606061075e611424565b905061076a88826116a1565b600060608061077e8e8e8e8e8e8e8e61115f565b92509250925061078e8d84611702565b6107988285611227565b6107a28185611227565b909550935050505b5097509795505050505050565b6001600160a01b031660009081526005602052604090205490565b60007f00000000000000000000000000000000000000000000000000000000000000008260405160200161080792919061451c565b604051602081830303815290604052805190602001209050919050565b60006060610835865161064b61113b565b6106658989898989898961179561181261128d565b7f000000000000000000000000000000000000000000000000000000000000000090565b7f000000000000000000000000000000000000000000000000000000000000000090565b60048054604080516020601f60026000196101006001881615020190951694909404938401819004810282018101909252828152606093909290918301828280156104e35780601f106104b8576101008083540402835291602001916104e3565b60085490565b6000806109098560200151611873565b9050600061091a8660400151611873565b905060008651600181111561092b57fe5b14156109915761093e8660600151611b88565b606087015261094d8583611bac565b94506109598482611bac565b9350610969866060015183611bac565b6060870152600061097b878787611bb8565b90506109878183611bf3565b93505050506105dc565b61099b8583611bac565b94506109a78482611bac565b93506109b7866060015182611bac565b606087015260006109c9878787611bff565b90506109d58184611c32565b905061098781611c3e565b60006104fb338484610f5c565b60006105f2611c55565b60006060610a0361086e565b6001600160a01b031663f94d4668610a19610610565b6040518263ffffffff1660e01b8152600401610a3591906145ce565b60006040518083038186803b158015610a4d57600080fd5b505afa158015610a61573d6000803e3d6000fd5b505050506040513d6000823e601f3d908101601f19168201604052610a899190810190614074565b50915050610a9e81610a99611424565b6116a1565b6060610aa8611ccf565b9050610ab48183611f2c565b9250505090565b610ac98442111560d1610f4e565b6001600160a01b0387166000908152600560209081526040808320549051909291610b20917f0000000000000000000000000000000000000000000000000000000000000000918c918c918c9188918d91016145f6565b6040516020818303038152906040528051906020012090506000610b4382611f9e565b9050600060018288888860405160008152602001604052604051610b6a9493929190614656565b6020604051602081039080840390855afa158015610b8c573d6000803e3d6000fd5b5050604051601f1901519150610bce90506001600160a01b03821615801590610bc657508b6001600160a01b0316826001600160a01b0316145b6101f8610f4e565b6001600160a01b038b166000908152600560205260409020600185019055610bf78b8b8b610dd5565b5050505050505050505050565b60608088610c1361072461086e565b610c1e61074a610610565b6060610c28611424565b9050610c32610519565b610cd85760006060610c468d8d8d8a611fba565b91509150610c5b620f424083101560cc610f4e565b610c696000620f4240612055565b610c788b620f42408403612055565b610c828184611812565b80610c8b61113b565b67ffffffffffffffff81118015610ca157600080fd5b50604051908082528060200260200182016040528015610ccb578160200160208202803683370190505b50955095505050506107aa565b610ce288826116a1565b6000606080610cf68e8e8e8e8e8e8e611795565b925092509250610d068c84612055565b610d108285611812565b610d1a8185611227565b90955093506107aa915050565b3360008181526001602090815260408083206001600160a01b038716845290915281205490916104fb9185906106bc9086610dad565b6001600160a01b03918216600090815260016020908152604080832093909416825291909152205490565b60606105f2611ccf565b80610d9c816120eb565b5050565b610d9c8183146067610f4e565b60008282016105dc8482101583610f4e565b6000610dcf838311156001610f4e565b50900390565b6001600160a01b0380841660008181526001602090815260408083209487168084529490915290819020849055517f8c5be1e5ebec7d5bd14f71427d1e84f3dd0314c0f7b2291e5b200ac8c7c3b92590610e309085906145ce565b60405180910390a3505050565b6000610e546000356001600160e01b0319166107d2565b9050610516610e638233612164565b610191610f4e565b8015610e8b57610e86610e7c610f06565b4210610193610f4e565b610ea0565b610ea0610e96610f2a565b42106101a9610f4e565b6006805460ff19168215151790556040517f9e3a5e37224532dea67b89face185703738a228a6e8a23dee546960180d3be6490610ede9083906145ab565b60405180910390a150565b6000610ef3610f2a565b4211806105f257505060065460ff161590565b7f000000000000000000000000000000000000000000000000000000000000000090565b7f000000000000000000000000000000000000000000000000000000000000000090565b81610d9c57610d9c81612254565b6001600160a01b038316600090815260208190526040902054610f8482821015610196610f4e565b610f9b6001600160a01b0384161515610199610f4e565b6001600160a01b03808516600090815260208190526040808220858503905591851681522054610fcb9083610dad565b6001600160a01b0380851660008181526020819052604090819020939093559151908616907fddf252ad1be2c89b69c2b068fc378daa952ba7f163c4a11628f55a4df523b3ef9061101d9086906145ce565b60405180910390a350505050565b60007f00000000000000000000000000000000000000000000000000000000000000007f00000000000000000000000000000000000000000000000000000000000000007f00000000000000000000000000000000000000000000000000000000000000006110986122a7565b306040516020016110ad95949392919061462a565b60405160208183030381529060405280519060200120905090565b6110db6110d3610ee9565b610192610f4e565b565b6110f064e8d4a5100082101560cb610f4e565b61110667016345785d8a000082111560ca610f4e565b60078190556040517fa9ba3ffe0b6c366b81232caab38605a0699ad5398d6cce76f91ee809e322dafc90610ede9083906145ce565b7f000000000000000000000000000000000000000000000000000000000000000090565b6000606080606061116e611ccf565b9050611178610ee9565b156111af576000611189828a611f2c565b905061119a8983600854848b6122ab565b92506111a98984610dbf6123bb565b506111fb565b6111b761113b565b67ffffffffffffffff811180156111cd57600080fd5b506040519080825280602002602001820160405280156111f7578160200160208202803683370190505b5091505b611206888287612426565b9094509250611216888483612493565b600855509750975097945050505050565b60005b61123261113b565b8110156112885761126983828151811061124857fe5b602002602001015183838151811061125c57fe5b60200260200101516124ac565b83828151811061127557fe5b602090810291909101015260010161122a565b505050565b33301461134b576000306001600160a01b03166000366040516112b1929190614534565b6000604051808303816000865af19150503d80600081146112ee576040519150601f19603f3d011682016040523d82523d6000602084013e6112f3565b606091505b50509050806000811461130257fe5b60046000803e6000516001600160e01b0319166343adbafb60e01b811461132d573d6000803e3d6000fd5b506020600460003e604060205260243d03602460403e601c3d016000f35b6060611355611424565b905061136187826116a1565b600060606113788c8c8c8c8c8c8c8c63ffffffff16565b509150915061138b81848663ffffffff16565b8051601f1982018390526343adbafb603f1983015260200260231982016044820181fd5b60008282026105dc8415806113cc5750838583816113c957fe5b04145b6003610f4e565b60006113e28215156004610f4e565b826113ef575060006104ff565b670de0b6b3a7640000838102906114129085838161140957fe5b04146005610f4e565b82818161141b57fe5b049150506104ff565b6060600061143061113b565b905060608167ffffffffffffffff8111801561144b57600080fd5b50604051908082528060200260200182016040528015611475578160200160208202803683370190505b50905081156114bd577f0000000000000000000000000000000000000000000000000000000000000000816000815181106114ac57fe5b6020026020010181815250506114c6565b91506104eb9050565b60018211156114bd577f0000000000000000000000000000000000000000000000000000000000000000816001815181106114fd57fe5b60200260200101818152505060028211156114bd577f00000000000000000000000000000000000000000000000000000000000000008160028151811061154057fe5b60200260200101818152505060038211156114bd577f00000000000000000000000000000000000000000000000000000000000000008160038151811061158357fe5b60200260200101818152505060048211156114bd577f0000000000000000000000000000000000000000000000000000000000000000816004815181106115c657fe5b60200260200101818152505060058211156114bd577f00000000000000000000000000000000000000000000000000000000000000008160058151811061160957fe5b60200260200101818152505060068211156114bd577f00000000000000000000000000000000000000000000000000000000000000008160068151811061164c57fe5b60200260200101818152505060078211156114bd577f00000000000000000000000000000000000000000000000000000000000000008160078151811061168f57fe5b60200260200101818152505091505090565b60005b6116ac61113b565b811015611288576116e38382815181106116c257fe5b60200260200101518383815181106116d657fe5b60200260200101516113af565b8382815181106116ef57fe5b60209081029190910101526001016116a4565b6001600160a01b03821660009081526020819052604090205461172a82821015610196610f4e565b6001600160a01b038316600090815260208190526040902082820390556002546117549083610dbf565b6002556040516000906001600160a01b038516907fddf252ad1be2c89b69c2b068fc378daa952ba7f163c4a11628f55a4df523b3ef90610e309086906145ce565b60006060806117a26110c8565b60606117ac611ccf565b905060006117ba828a611f2c565b905060606117cd8a84600854858c6122ab565b90506117dc8a82610dbf6123bb565b600060606117eb8c868b6124cc565b915091506117fa8c8287612526565b600855909e909d50909b509950505050505050505050565b60005b61181d61113b565b8110156112885761185483828151811061183357fe5b602002602001015183838151811061184757fe5b6020026020010151612535565b83828151811061186057fe5b6020908102919091010152600101611815565b60007f00000000000000000000000000000000000000000000000000000000000000006001600160a01b0316826001600160a01b031614156118d657507f0000000000000000000000000000000000000000000000000000000000000000610710565b7f00000000000000000000000000000000000000000000000000000000000000006001600160a01b0316826001600160a01b0316141561193757507f0000000000000000000000000000000000000000000000000000000000000000610710565b7f00000000000000000000000000000000000000000000000000000000000000006001600160a01b0316826001600160a01b0316141561199857507f0000000000000000000000000000000000000000000000000000000000000000610710565b7f00000000000000000000000000000000000000000000000000000000000000006001600160a01b0316826001600160a01b031614156119f957507f0000000000000000000000000000000000000000000000000000000000000000610710565b7f00000000000000000000000000000000000000000000000000000000000000006001600160a01b0316826001600160a01b03161415611a5a57507f0000000000000000000000000000000000000000000000000000000000000000610710565b7f00000000000000000000000000000000000000000000000000000000000000006001600160a01b0316826001600160a01b03161415611abb57507f0000000000000000000000000000000000000000000000000000000000000000610710565b7f00000000000000000000000000000000000000000000000000000000000000006001600160a01b0316826001600160a01b03161415611b1c57507f0000000000000000000000000000000000000000000000000000000000000000610710565b7f00000000000000000000000000000000000000000000000000000000000000006001600160a01b0316826001600160a01b03161415611b7d57507f0000000000000000000000000000000000000000000000000000000000000000610710565b610710610135612254565b600080611ba06007548461256890919063ffffffff16565b90506105dc8382610dbf565b60006105dc83836113af565b6000611bc26110c8565b611beb83611bd386602001516125ac565b84611be188604001516125ac565b88606001516128b6565b949350505050565b60006105dc83836124ac565b6000611c096110c8565b611beb83611c1a86602001516125ac565b84611c2888604001516125ac565b8860600151612931565b60006105dc8383612535565b60006104ff611c4e6007546129a7565b83906129cd565b6000611c5f61086e565b6001600160a01b031663aaabadc56040518163ffffffff1660e01b815260040160206040518083038186803b158015611c9757600080fd5b505afa158015611cab573d6000803e3d6000fd5b505050506040513d601f19601f820116820180604052508101906105f2919061429d565b60606000611cdb61113b565b905060608167ffffffffffffffff81118015611cf657600080fd5b50604051908082528060200260200182016040528015611d20578160200160208202803683370190505b50905081156114bd577f000000000000000000000000000000000000000000000000000000000000000081600081518110611d5757fe5b60200260200101818152505060018211156114bd577f000000000000000000000000000000000000000000000000000000000000000081600181518110611d9a57fe5b60200260200101818152505060028211156114bd577f000000000000000000000000000000000000000000000000000000000000000081600281518110611ddd57fe5b60200260200101818152505060038211156114bd577f000000000000000000000000000000000000000000000000000000000000000081600381518110611e2057fe5b60200260200101818152505060048211156114bd577f000000000000000000000000000000000000000000000000000000000000000081600481518110611e6357fe5b60200260200101818152505060058211156114bd577f000000000000000000000000000000000000000000000000000000000000000081600581518110611ea657fe5b60200260200101818152505060068211156114bd577f000000000000000000000000000000000000000000000000000000000000000081600681518110611ee957fe5b60200260200101818152505060078211156114bd577f00000000000000000000000000000000000000000000000000000000000000008160078151811061168f57fe5b670de0b6b3a764000060005b8351811015611f8e57611f84611f7d858381518110611f5357fe5b6020026020010151858481518110611f6757fe5b6020026020010151612a0f90919063ffffffff16565b8390612a5e565b9150600101611f38565b506104ff60008211610137610f4e565b6000611fa861102b565b82604051602001610807929190614544565b60006060611fc66110c8565b6000611fd184612a8a565b9050611fec6000826002811115611fe457fe5b1460ce610f4e565b6060611ff785612aa0565b905061200b61200461113b565b8251610da0565b61201781610a99611424565b6060612021611ccf565b9050600061202f8284611f2c565b9050600061203f826106eb61113b565b6008929092555099919850909650505050505050565b6001600160a01b0382166000908152602081905260409020546120789082610dad565b6001600160a01b03831660009081526020819052604090205560025461209e9082610dad565b6002556040516001600160a01b038316906000907fddf252ad1be2c89b69c2b068fc378daa952ba7f163c4a11628f55a4df523b3ef906120df9085906145ce565b60405180910390a35050565b6002815110156120fa57610516565b60008160008151811061210957fe5b602002602001015190506000600190505b825181101561128857600083828151811061213157fe5b6020026020010151905061215a816001600160a01b0316846001600160a01b0316106065610f4e565b915060010161211a565b600073ba1ba1ba1ba1ba1ba1ba1ba1ba1ba1ba1ba1ba1b61218361084a565b6001600160a01b03161415801561219e575061219e83612ab6565b156121c6576121ab61084a565b6001600160a01b0316336001600160a01b03161490506104ff565b6121ce611c55565b6001600160a01b0316639be2a8848484306040518463ffffffff1660e01b81526004016121fd939291906145d7565b60206040518083038186803b15801561221557600080fd5b505afa158015612229573d6000803e3d6000fd5b505050506040513d601f19601f8201168201806040525081019061224d919061415c565b90506104ff565b62461bcd60e51b6000908152602060045260076024526642414c23000030600a808404818106603090810160081b95839006959095019082900491820690940160101b939093010160c81b604452606490fd5b4690565b6060806122b661113b565b67ffffffffffffffff811180156122cc57600080fd5b506040519080825280602002602001820160405280156122f6578160200160208202803683370190505b509050826123055790506123b2565b612378877f00000000000000000000000000000000000000000000000000000000000000008151811061233457fe5b6020026020010151877f00000000000000000000000000000000000000000000000000000000000000008151811061236857fe5b6020026020010151878787612ad0565b817f0000000000000000000000000000000000000000000000000000000000000000815181106123a457fe5b602090810291909101015290505b95945050505050565b60005b6123c661113b565b811015612420576124018482815181106123dc57fe5b60200260200101518483815181106123f057fe5b60200260200101518463ffffffff16565b84828151811061240d57fe5b60209081029190910101526001016123be565b50505050565b60006060600061243584612a8a565b9050600081600281111561244557fe5b141561246057612456868686612b48565b925092505061248b565b600181600281111561246e57fe5b141561247e576124568685612c26565b612456868686612c58565b505b935093915050565b60006124a28484610dbf6123bb565b611beb8285611f2c565b60006124bb8215156004610f4e565b8183816124c457fe5b049392505050565b6000606060006124db84612a8a565b905060018160028111156124eb57fe5b14156124fc57612456868686612cc3565b600281600281111561250a57fe5b141561251b57612456868686612d1d565b612489610136612254565b60006124a28484610dad6123bb565b60006125448215156004610f4e565b82612551575060006104ff565b81600184038161255d57fe5b0460010190506104ff565b60008282026125828415806113cc5750838583816113c957fe5b806125915760009150506104ff565b670de0b6b3a764000060001982015b046001019150506104ff565b60007f00000000000000000000000000000000000000000000000000000000000000006001600160a01b0316826001600160a01b0316141561260f57507f0000000000000000000000000000000000000000000000000000000000000000610710565b7f00000000000000000000000000000000000000000000000000000000000000006001600160a01b0316826001600160a01b0316141561267057507f0000000000000000000000000000000000000000000000000000000000000000610710565b7f00000000000000000000000000000000000000000000000000000000000000006001600160a01b0316826001600160a01b031614156126d157507f0000000000000000000000000000000000000000000000000000000000000000610710565b7f00000000000000000000000000000000000000000000000000000000000000006001600160a01b0316826001600160a01b0316141561273257507f0000000000000000000000000000000000000000000000000000000000000000610710565b7f00000000000000000000000000000000000000000000000000000000000000006001600160a01b0316826001600160a01b0316141561279357507f0000000000000000000000000000000000000000000000000000000000000000610710565b7f00000000000000000000000000000000000000000000000000000000000000006001600160a01b0316826001600160a01b031614156127f457507f0000000000000000000000000000000000000000000000000000000000000000610710565b7f00000000000000000000000000000000000000000000000000000000000000006001600160a01b0316826001600160a01b0316141561285557507f0000000000000000000000000000000000000000000000000000000000000000610710565b7f00000000000000000000000000000000000000000000000000000000000000006001600160a01b0316826001600160a01b03161415611b7d57507f0000000000000000000000000000000000000000000000000000000000000000610710565b60006128d86128cd87670429d069189e0000612a5e565b831115610130610f4e565b60006128e48784610dad565b905060006128f288836129cd565b9050600061290088876113d3565b9050600061290e8383612dc5565b905061292361291c826129a7565b8990612a5e565b9a9950505050505050505050565b600061295361294885670429d069189e0000612a5e565b831115610131610f4e565b60006129696129628685610dbf565b86906129cd565b9050600061297785886129cd565b905060006129858383612dc5565b9050600061299b82670de0b6b3a7640000610dbf565b90506129238a82612568565b6000670de0b6b3a764000082106129bf5760006104ff565b50670de0b6b3a76400000390565b60006129dc8215156004610f4e565b826129e9575060006104ff565b670de0b6b3a764000083810290612a039085838161140957fe5b8260018203816125a057fe5b600080612a1c8484612df1565b90506000612a36612a2f83612710612568565b6001610dad565b905080821015612a4b576000925050506104ff565b612a558282610dbf565b925050506104ff565b6000828202612a788415806113cc5750838583816113c957fe5b670de0b6b3a764000090049392505050565b6000818060200190518101906104ff91906142b9565b6060818060200190518101906105dc919061437f565b6000612ac8631c74c91760e11b6107d2565b909114919050565b6000838311612ae1575060006123b2565b6000612aed85856129cd565b90506000612b03670de0b6b3a7640000886113d3565b9050612b17826709b6e64a8ec60000612efc565b91506000612b258383612dc5565b90506000612b3c612b35836129a7565b8b90612a5e565b90506129238187612a5e565b60006060612b546110c8565b600080612b6085612f13565b91509150612b78612b6f61113b565b82106064610f4e565b6060612b8261113b565b67ffffffffffffffff81118015612b9857600080fd5b50604051908082528060200260200182016040528015612bc2578160200160208202803683370190505b509050612c01888381518110612bd457fe5b6020026020010151888481518110612be857fe5b602002602001015185612bf9610519565b600754612f35565b818381518110612c0d57fe5b6020908102919091010152919791965090945050505050565b600060606000612c3584612ff2565b90506060612c4b8683612c46610519565b613008565b9196919550909350505050565b60006060612c646110c8565b60606000612c71856130ba565b91509150612c82825161064b61113b565b612c8e82610a99611424565b6000612ca6888885612c9e610519565b6007546130d2565b9050612cb68282111560cf610f4e565b9791965090945050505050565b60006060806000612cd3856130ba565b91509150612ce9612ce261113b565b8351610da0565b612cf582610a99611424565b6000612d0d888885612d05610519565b6007546132f7565b9050612cb68282101560d0610f4e565b60006060600080612d2d85612f13565b91509150612d3c612b6f61113b565b6060612d4661113b565b67ffffffffffffffff81118015612d5c57600080fd5b50604051908082528060200260200182016040528015612d86578160200160208202803683370190505b509050612c01888381518110612d9857fe5b6020026020010151888481518110612dac57fe5b602002602001015185612dbd610519565b600754613508565b600080612dd28484612df1565b90506000612de5612a2f83612710612568565b90506123b28282610dad565b600081612e075750670de0b6b3a76400006104ff565b82612e14575060006104ff565b612e25600160ff1b84106006610f4e565b82612e4b770bce5086492111aea88f4bb1ca6bcf584181ea8059f7653284106007610f4e565b826000670c7d713b49da000083138015612e6c5750670f43fc2c04ee000083125b15612ea3576000612e7c846135aa565b9050670de0b6b3a764000080820784020583670de0b6b3a764000083050201915050612eb1565b81612ead846136d1565b0290505b670de0b6b3a76400009005612ee9680238fd42c5cf03ffff198212801590612ee2575068070c1cc73b00c800008213155b6008610f4e565b612ef281613a71565b9695505050505050565b600081831015612f0c57816105dc565b5090919050565b60008082806020019051810190612f2a9190614349565b909590945092505050565b600080612f4c84612f468188610dbf565b906129cd565b9050612f656709b6e64a8ec60000821015610132610f4e565b6000612f83612f7c670de0b6b3a7640000896113d3565b8390612dc5565b90506000612f9a612f93836129a7565b8a90612a5e565b90506000612fa7896129a7565b90506000612fb58383612568565b90506000612fc38483610dbf565b9050612fe2612fdb612fd48a6129a7565b8490612a5e565b8290610dad565b9c9b505050505050505050505050565b6000818060200190518101906105dc919061431c565b6060600061301684846113d3565b90506060855167ffffffffffffffff8111801561303257600080fd5b5060405190808252806020026020018201604052801561305c578160200160208202803683370190505b50905060005b86518110156130b0576130918388838151811061307b57fe5b6020026020010151612a5e90919063ffffffff16565b82828151811061309d57fe5b6020908102919091010152600101613062565b5095945050505050565b6060600082806020019051810190612f2a91906142d5565b60006060845167ffffffffffffffff811180156130ee57600080fd5b50604051908082528060200260200182016040528015613118578160200160208202803683370190505b5090506000805b88518110156131dd5761317889828151811061313757fe5b6020026020010151612f4689848151811061314e57fe5b60200260200101518c858151811061316257fe5b6020026020010151610dbf90919063ffffffff16565b83828151811061318457fe5b6020026020010181815250506131d36131cc8983815181106131a257fe5b60200260200101518584815181106131b657fe5b602002602001015161256890919063ffffffff16565b8390610dad565b915060010161311f565b50670de0b6b3a764000060005b89518110156132d657600084828151811061320157fe5b602002602001015184111561325857600061322a61321e866129a7565b8d858151811061307b57fe5b9050600061323e828c868151811061316257fe5b905061324f6131cc611c4e8b6129a7565b9250505061326f565b88828151811061326457fe5b602002602001015190505b60006132988c848151811061328057fe5b60200260200101516106f0848f878151811061316257fe5b90506132ca6132c38c85815181106132ac57fe5b602002602001015183612a0f90919063ffffffff16565b8590612a5e565b935050506001016131ea565b506132ea6132e3826129a7565b8790612568565b9998505050505050505050565b60006060845167ffffffffffffffff8111801561331357600080fd5b5060405190808252806020026020018201604052801561333d578160200160208202803683370190505b5090506000805b88518110156133e55761339d89828151811061335c57fe5b60200260200101516106f089848151811061337357fe5b60200260200101518c858151811061338757fe5b6020026020010151610dad90919063ffffffff16565b8382815181106133a957fe5b6020026020010181815250506133db6131cc8983815181106133c757fe5b602002602001015185848151811061307b57fe5b9150600101613344565b50670de0b6b3a764000060005b89518110156134c65760008385838151811061340a57fe5b6020026020010151111561346657600061342f61321e86670de0b6b3a7640000610dbf565b90506000613443828c868151811061316257fe5b905061345d6131cc611f7d670de0b6b3a76400008c610dbf565b9250505061347d565b88828151811061347257fe5b602002602001015190505b60006134a68c848151811061348e57fe5b60200260200101516106f0848f878151811061338757fe5b90506134ba6132c38c85815181106132ac57fe5b935050506001016133f2565b50670de0b6b3a764000081106134fc576134f26134eb82670de0b6b3a7640000610dbf565b8790612a5e565b93505050506123b2565b600093505050506123b2565b60008061351984612f468188610dad565b90506135326729a2241af62c0000821115610133610f4e565b6000613549612f7c670de0b6b3a7640000896129cd565b9050600061356961356283670de0b6b3a7640000610dbf565b8a90612568565b90506000613576896129a7565b905060006135848383612568565b905060006135928483610dbf565b9050612fe2612fdb6135a38a6129a7565b84906129cd565b670de0b6b3a7640000026000806ec097ce7bc90715b34b9f1000000000808401906ec097ce7bc90715b34b9f0fffffffff19850102816135e657fe5b05905060006ec097ce7bc90715b34b9f100000000082800205905081806ec097ce7bc90715b34b9f100000000081840205915060038205016ec097ce7bc90715b34b9f100000000082840205915060058205016ec097ce7bc90715b34b9f100000000082840205915060078205016ec097ce7bc90715b34b9f100000000082840205915060098205016ec097ce7bc90715b34b9f1000000000828402059150600b8205016ec097ce7bc90715b34b9f1000000000828402059150600d8205016ec097ce7bc90715b34b9f1000000000828402059150600f826002919005919091010295945050505050565b6000670de0b6b3a764000082121561370e57613704826ec097ce7bc90715b34b9f1000000000816136fe57fe5b056136d1565b6000039050610710565b60007e1600ef3172e58d2e933ec884fde10064c63b5372d805e203c0000000000000831261375f57770195e54c5dd42177f53a27172fa9ec630262827000000000830592506806f05b59d3b2000000015b73011798004d755d3c8bc8e03204cf44619e0000008312613797576b1425982cf597cd205cef7380830592506803782dace9d9000000015b606492830292026e01855144814a7ff805980ff008400083126137df576e01855144814a7ff805980ff008400068056bc75e2d63100000840205925068ad78ebc5ac62000000015b6b02df0ab5a80a22c61ab5a700831261381a576b02df0ab5a80a22c61ab5a70068056bc75e2d6310000084020592506856bc75e2d631000000015b693f1fce3da636ea5cf850831261385157693f1fce3da636ea5cf85068056bc75e2d631000008402059250682b5e3af16b18800000015b690127fa27722cc06cc5e2831261388857690127fa27722cc06cc5e268056bc75e2d6310000084020592506815af1d78b58c400000015b68280e60114edb805d0383126138bd5768280e60114edb805d0368056bc75e2d631000008402059250680ad78ebc5ac6200000015b680ebc5fb4174612111083126138e857680ebc5fb4174612111068056bc75e2d631000009384020592015b6808f00f760a4b2db55d831261391d576808f00f760a4b2db55d68056bc75e2d6310000084020592506802b5e3af16b1880000015b6806f5f17757889379378312613952576806f5f177578893793768056bc75e2d63100000840205925068015af1d78b58c40000015b6806248f33704b2866038312613986576806248f33704b28660368056bc75e2d63100000840205925067ad78ebc5ac620000015b6805c548670b9510e7ac83126139ba576805c548670b9510e7ac68056bc75e2d6310000084020592506756bc75e2d6310000015b600068056bc75e2d63100000840168056bc75e2d6310000080860302816139dd57fe5b059050600068056bc75e2d63100000828002059050818068056bc75e2d63100000818402059150600382050168056bc75e2d63100000828402059150600582050168056bc75e2d63100000828402059150600782050168056bc75e2d63100000828402059150600982050168056bc75e2d63100000828402059150600b820501600202606485820105979650505050505050565b6000613aa0680238fd42c5cf03ffff198312158015613a99575068070c1cc73b00c800008313155b6009610f4e565b6000821215613ad457613ab582600003613a71565b6ec097ce7bc90715b34b9f100000000081613acc57fe5b059050610710565b60006806f05b59d3b20000008312613b1457506806f05b59d3b1ffffff1990910190770195e54c5dd42177f53a27172fa9ec630262827000000000613b4a565b6803782dace9d90000008312613b4657506803782dace9d8ffffff19909101906b1425982cf597cd205cef7380613b4a565b5060015b6064929092029168056bc75e2d6310000068ad78ebc5ac620000008412613b9a5768ad78ebc5ac61ffffff199093019268056bc75e2d631000006e01855144814a7ff805980ff008400082020590505b6856bc75e2d6310000008412613bd6576856bc75e2d630ffffff199093019268056bc75e2d631000006b02df0ab5a80a22c61ab5a70082020590505b682b5e3af16b188000008412613c1057682b5e3af16b187fffff199093019268056bc75e2d63100000693f1fce3da636ea5cf85082020590505b6815af1d78b58c4000008412613c4a576815af1d78b58c3fffff199093019268056bc75e2d63100000690127fa27722cc06cc5e282020590505b680ad78ebc5ac62000008412613c8357680ad78ebc5ac61fffff199093019268056bc75e2d6310000068280e60114edb805d0382020590505b68056bc75e2d631000008412613cbc5768056bc75e2d630fffff199093019268056bc75e2d63100000680ebc5fb4174612111082020590505b6802b5e3af16b18800008412613cf5576802b5e3af16b187ffff199093019268056bc75e2d631000006808f00f760a4b2db55d82020590505b68015af1d78b58c400008412613d2e5768015af1d78b58c3ffff199093019268056bc75e2d631000006806f5f177578893793782020590505b68056bc75e2d631000008481019085906002908280020505918201919050600368056bc75e2d631000008783020505918201919050600468056bc75e2d631000008783020505918201919050600568056bc75e2d631000008783020505918201919050600668056bc75e2d631000008783020505918201919050600768056bc75e2d631000008783020505918201919050600868056bc75e2d631000008783020505918201919050600968056bc75e2d631000008783020505918201919050600a68056bc75e2d631000008783020505918201919050600b68056bc75e2d631000008783020505918201919050600c68056bc75e2d631000008783020505918201919050606468056bc75e2d63100000848402058502059695505050505050565b80356104ff81614735565b600082601f830112613e6a578081fd5b8151613e7d613e7882614715565b6146ee565b818152915060208083019084810181840286018201871015613e9e57600080fd5b60005b84811015613ebd57815184529282019290820190600101613ea1565b505050505092915050565b600082601f830112613ed8578081fd5b813567ffffffffffffffff811115613eee578182fd5b613f01601f8201601f19166020016146ee565b9150808252836020828501011115613f1857600080fd5b8060208401602084013760009082016020015292915050565b8035600281106104ff57600080fd5b600060208284031215613f51578081fd5b81356105dc81614735565b60008060408385031215613f6e578081fd5b8235613f7981614735565b91506020830135613f8981614735565b809150509250929050565b600080600060608486031215613fa8578081fd5b8335613fb381614735565b92506020840135613fc381614735565b929592945050506040919091013590565b600080600080600080600060e0888a031215613fee578283fd5b8735613ff981614735565b9650602088013561400981614735565b95506040880135945060608801359350608088013560ff8116811461402c578384fd5b9699959850939692959460a0840135945060c09093013592915050565b6000806040838503121561405b578182fd5b823561406681614735565b946020939093013593505050565b600080600060608486031215614088578081fd5b835167ffffffffffffffff8082111561409f578283fd5b818601915086601f8301126140b2578283fd5b81516140c0613e7882614715565b80828252602080830192508086018b8283870289010111156140e0578788fd5b8796505b8487101561410b5780516140f781614735565b8452600196909601959281019281016140e4565b508901519097509350505080821115614122578283fd5b5061412f86828701613e5a565b925050604084015190509250925092565b600060208284031215614151578081fd5b81356105dc8161474a565b60006020828403121561416d578081fd5b81516105dc8161474a565b600080600080600080600060e0888a031215614192578081fd5b873596506020808901356141a581614735565b965060408901356141b581614735565b9550606089013567ffffffffffffffff808211156141d1578384fd5b818b0191508b601f8301126141e4578384fd5b81356141f2613e7882614715565b8082825285820191508585018f878886028801011115614210578788fd5b8795505b83861015614232578035835260019590950194918601918601614214565b509850505060808b0135955060a08b0135945060c08b0135925080831115614258578384fd5b50506142668a828b01613ec8565b91505092959891949750929550565b600060208284031215614286578081fd5b81356001600160e01b0319811681146105dc578182fd5b6000602082840312156142ae578081fd5b81516105dc81614735565b6000602082840312156142ca578081fd5b81516105dc81614758565b6000806000606084860312156142e9578081fd5b83516142f481614758565b602085015190935067ffffffffffffffff811115614310578182fd5b61412f86828701613e5a565b6000806040838503121561432e578182fd5b825161433981614758565b6020939093015192949293505050565b60008060006060848603121561435d578081fd5b835161436881614758565b602085015160409095015190969495509392505050565b60008060408385031215614391578182fd5b825161439c81614758565b602084015190925067ffffffffffffffff8111156143b8578182fd5b6143c485828601613e5a565b9150509250929050565b6000806000606084860312156143e2578081fd5b833567ffffffffffffffff808211156143f9578283fd5b818601915061012080838903121561440f578384fd5b614418816146ee565b90506144248884613f31565b81526144338860208501613e4f565b60208201526144458860408501613e4f565b6040820152606083013560608201526080830135608082015260a083013560a08201526144758860c08501613e4f565b60c08201526144878860e08501613e4f565b60e0820152610100808401358381111561449f578586fd5b6144ab8a828701613ec8565b9183019190915250976020870135975060409096013595945050505050565b6000602082840312156144db578081fd5b5035919050565b6000815180845260208085019450808401835b83811015614511578151875295820195908201906001016144f5565b509495945050505050565b9182526001600160e01b031916602082015260240190565b6000828483379101908152919050565b61190160f01b81526002810192909252602282015260420190565b6001600160a01b0391909116815260200190565b6000602082526105dc60208301846144e2565b60006040825261459960408301856144e2565b82810360208401526123b281856144e2565b901515815260200190565b92151583526020830191909152604082015260600190565b90815260200190565b9283526001600160a01b03918216602084015216604082015260600190565b9586526001600160a01b0394851660208701529290931660408501526060840152608083019190915260a082015260c00190565b9485526020850193909352604084019190915260608301526001600160a01b0316608082015260a00190565b93845260ff9290921660208401526040830152606082015260800190565b6000602080835283518082850152825b818110156146a057858101830151858201604001528201614684565b818111156146b15783604083870101525b50601f01601f1916929092016040019392505050565b600083825260406020830152611beb60408301846144e2565b60ff91909116815260200190565b60405181810167ffffffffffffffff8111828210171561470d57600080fd5b604052919050565b600067ffffffffffffffff82111561472b578081fd5b5060209081020190565b6001600160a01b038116811461051657600080fd5b801515811461051657600080fd5b6003811061051657600080fdfea2646970667358221220b145af443b0a99d1a76ffaef8b98201d603d4f8181d7ae72729db25958641e5564736f6c63430007010033a26469706673582212202a8e0a8446212846534cc95bd35cb517e2cbde2f2ab817d1f1675ffe8be8813464736f6c63430007010033",
  "linkReferences": {},
  "deployedLinkReferences": {}
}